{
	"contracts/supply_chain.sol": {
		"Item": {
			"abi": [
				{
					"inputs": [
						{
							"internalType": "string",
							"name": "item_name",
							"type": "string"
						},
						{
							"internalType": "string",
							"name": "time_stamp",
							"type": "string"
						},
						{
							"internalType": "string",
							"name": "mfg_date",
							"type": "string"
						},
						{
							"internalType": "string",
							"name": "expiry_date",
							"type": "string"
						},
						{
							"internalType": "string",
							"name": "batch_no",
							"type": "string"
						},
						{
							"internalType": "uint256",
							"name": "numOfItem",
							"type": "uint256"
						}
					],
					"stateMutability": "nonpayable",
					"type": "constructor"
				},
				{
					"inputs": [],
					"name": "batchNo",
					"outputs": [
						{
							"internalType": "string",
							"name": "",
							"type": "string"
						}
					],
					"stateMutability": "view",
					"type": "function"
				},
				{
					"inputs": [
						{
							"internalType": "string",
							"name": "item_name",
							"type": "string"
						},
						{
							"internalType": "string",
							"name": "time_stamp",
							"type": "string"
						},
						{
							"internalType": "string",
							"name": "mfg_date",
							"type": "string"
						},
						{
							"internalType": "string",
							"name": "expiry_date",
							"type": "string"
						},
						{
							"internalType": "string",
							"name": "batch_no",
							"type": "string"
						}
					],
					"name": "createHash",
					"outputs": [
						{
							"internalType": "bytes32",
							"name": "",
							"type": "bytes32"
						}
					],
					"stateMutability": "pure",
					"type": "function"
				},
				{
					"inputs": [],
					"name": "expiryDate",
					"outputs": [
						{
							"internalType": "string",
							"name": "",
							"type": "string"
						}
					],
					"stateMutability": "view",
					"type": "function"
				},
				{
					"inputs": [
						{
							"internalType": "bytes32",
							"name": "_messageHash",
							"type": "bytes32"
						}
					],
					"name": "getEthSignedMessageHash",
					"outputs": [
						{
							"internalType": "bytes32",
							"name": "",
							"type": "bytes32"
						}
					],
					"stateMutability": "pure",
					"type": "function"
				},
				{
					"inputs": [],
					"name": "getExpiryDate",
					"outputs": [
						{
							"internalType": "string",
							"name": "",
							"type": "string"
						}
					],
					"stateMutability": "view",
					"type": "function"
				},
				{
					"inputs": [],
					"name": "getMfgDate",
					"outputs": [
						{
							"internalType": "string",
							"name": "",
							"type": "string"
						}
					],
					"stateMutability": "view",
					"type": "function"
				},
				{
					"inputs": [],
					"name": "getName",
					"outputs": [
						{
							"internalType": "string",
							"name": "",
							"type": "string"
						}
					],
					"stateMutability": "view",
					"type": "function"
				},
				{
					"inputs": [],
					"name": "getTimeStamp",
					"outputs": [
						{
							"internalType": "string",
							"name": "",
							"type": "string"
						}
					],
					"stateMutability": "view",
					"type": "function"
				},
				{
					"inputs": [],
					"name": "itemName",
					"outputs": [
						{
							"internalType": "string",
							"name": "",
							"type": "string"
						}
					],
					"stateMutability": "view",
					"type": "function"
				},
				{
					"inputs": [],
					"name": "mfgDate",
					"outputs": [
						{
							"internalType": "string",
							"name": "",
							"type": "string"
						}
					],
					"stateMutability": "view",
					"type": "function"
				},
				{
					"inputs": [],
					"name": "numberOfItem",
					"outputs": [
						{
							"internalType": "uint256",
							"name": "",
							"type": "uint256"
						}
					],
					"stateMutability": "view",
					"type": "function"
				},
				{
					"inputs": [
						{
							"internalType": "string",
							"name": "date",
							"type": "string"
						}
					],
					"name": "setExpiryDate",
					"outputs": [],
					"stateMutability": "nonpayable",
					"type": "function"
				},
				{
					"inputs": [
						{
							"internalType": "string",
							"name": "date",
							"type": "string"
						}
					],
					"name": "setMfgDate",
					"outputs": [],
					"stateMutability": "nonpayable",
					"type": "function"
				},
				{
					"inputs": [
						{
							"internalType": "string",
							"name": "time",
							"type": "string"
						}
					],
					"name": "setTimeStamp",
					"outputs": [],
					"stateMutability": "nonpayable",
					"type": "function"
				},
				{
					"inputs": [],
					"name": "timestamp",
					"outputs": [
						{
							"internalType": "string",
							"name": "",
							"type": "string"
						}
					],
					"stateMutability": "view",
					"type": "function"
				}
			],
			"devdoc": {
				"kind": "dev",
				"methods": {},
				"version": 1
			},
			"evm": {
				"assembly": "    /* \"contracts/supply_chain.sol\":74:2451  contract Item... */\n  mstore(0x40, 0x80)\n    /* \"contracts/supply_chain.sol\":283:642  constructor(string memory item_name,string memory time_stamp,string memory mfg_date, string memory expiry_date, string memory batch_no,uint numOfItem )... */\n  callvalue\n  dup1\n  iszero\n  tag_1\n  jumpi\n  0x00\n  dup1\n  revert\ntag_1:\n  pop\n  mload(0x40)\n  sub(codesize, bytecodeSize)\n  dup1\n  bytecodeSize\n  dup4\n  codecopy\n  dup2\n  dup2\n  add\n  0x40\n  mstore\n  dup2\n  add\n  swap1\n  tag_2\n  swap2\n  swap1\n  tag_3\n  jump\t// in\ntag_2:\n    /* \"contracts/supply_chain.sol\":463:473  time_stamp */\n  dup5\n    /* \"contracts/supply_chain.sol\":451:460  timestamp */\n  0x00\n    /* \"contracts/supply_chain.sol\":451:473  timestamp = time_stamp */\n  swap1\n  dup2\n  tag_6\n  swap2\n  swap1\n  tag_7\n  jump\t// in\ntag_6:\n  pop\n    /* \"contracts/supply_chain.sol\":495:504  item_name */\n  dup6\n    /* \"contracts/supply_chain.sol\":484:492  itemName */\n  0x01\n    /* \"contracts/supply_chain.sol\":484:504  itemName = item_name */\n  swap1\n  dup2\n  tag_8\n  swap2\n  swap1\n  tag_7\n  jump\t// in\ntag_8:\n  pop\n    /* \"contracts/supply_chain.sol\":525:533  mfg_date */\n  dup4\n    /* \"contracts/supply_chain.sol\":515:522  mfgDate */\n  0x02\n    /* \"contracts/supply_chain.sol\":515:533  mfgDate = mfg_date */\n  swap1\n  dup2\n  tag_9\n  swap2\n  swap1\n  tag_7\n  jump\t// in\ntag_9:\n  pop\n    /* \"contracts/supply_chain.sol\":557:568  expiry_date */\n  dup3\n    /* \"contracts/supply_chain.sol\":544:554  expiryDate */\n  0x03\n    /* \"contracts/supply_chain.sol\":544:568  expiryDate = expiry_date */\n  swap1\n  dup2\n  tag_10\n  swap2\n  swap1\n  tag_7\n  jump\t// in\ntag_10:\n  pop\n    /* \"contracts/supply_chain.sol\":589:597  batch_no */\n  dup2\n    /* \"contracts/supply_chain.sol\":579:586  batchNo */\n  0x04\n    /* \"contracts/supply_chain.sol\":579:597  batchNo = batch_no */\n  swap1\n  dup2\n  tag_11\n  swap2\n  swap1\n  tag_7\n  jump\t// in\ntag_11:\n  pop\n    /* \"contracts/supply_chain.sol\":623:632  numOfItem */\n  dup1\n    /* \"contracts/supply_chain.sol\":608:620  numberOfItem */\n  0x05\n    /* \"contracts/supply_chain.sol\":608:632  numberOfItem = numOfItem */\n  dup2\n  swap1\n  sstore\n  pop\n    /* \"contracts/supply_chain.sol\":283:642  constructor(string memory item_name,string memory time_stamp,string memory mfg_date, string memory expiry_date, string memory batch_no,uint numOfItem )... */\n  pop\n  pop\n  pop\n  pop\n  pop\n  pop\n    /* \"contracts/supply_chain.sol\":74:2451  contract Item... */\n  jump(tag_12)\n    /* \"#utility.yul\":7:82   */\ntag_13:\n    /* \"#utility.yul\":40:46   */\n  0x00\n    /* \"#utility.yul\":73:75   */\n  0x40\n    /* \"#utility.yul\":67:76   */\n  mload\n    /* \"#utility.yul\":57:76   */\n  swap1\n  pop\n    /* \"#utility.yul\":7:82   */\n  swap1\n  jump\t// out\n    /* \"#utility.yul\":88:205   */\ntag_14:\n    /* \"#utility.yul\":197:198   */\n  0x00\n    /* \"#utility.yul\":194:195   */\n  dup1\n    /* \"#utility.yul\":187:199   */\n  revert\n    /* \"#utility.yul\":211:328   */\ntag_15:\n    /* \"#utility.yul\":320:321   */\n  0x00\n    /* \"#utility.yul\":317:318   */\n  dup1\n    /* \"#utility.yul\":310:322   */\n  revert\n    /* \"#utility.yul\":334:451   */\ntag_16:\n    /* \"#utility.yul\":443:444   */\n  0x00\n    /* \"#utility.yul\":440:441   */\n  dup1\n    /* \"#utility.yul\":433:445   */\n  revert\n    /* \"#utility.yul\":457:574   */\ntag_17:\n    /* \"#utility.yul\":566:567   */\n  0x00\n    /* \"#utility.yul\":563:564   */\n  dup1\n    /* \"#utility.yul\":556:568   */\n  revert\n    /* \"#utility.yul\":580:682   */\ntag_18:\n    /* \"#utility.yul\":621:627   */\n  0x00\n    /* \"#utility.yul\":672:674   */\n  0x1f\n    /* \"#utility.yul\":668:675   */\n  not\n    /* \"#utility.yul\":663:665   */\n  0x1f\n    /* \"#utility.yul\":656:661   */\n  dup4\n    /* \"#utility.yul\":652:666   */\n  add\n    /* \"#utility.yul\":648:676   */\n  and\n    /* \"#utility.yul\":638:676   */\n  swap1\n  pop\n    /* \"#utility.yul\":580:682   */\n  swap2\n  swap1\n  pop\n  jump\t// out\n    /* \"#utility.yul\":688:868   */\ntag_19:\n    /* \"#utility.yul\":736:813   */\n  0x4e487b7100000000000000000000000000000000000000000000000000000000\n    /* \"#utility.yul\":733:734   */\n  0x00\n    /* \"#utility.yul\":726:814   */\n  mstore\n    /* \"#utility.yul\":833:837   */\n  0x41\n    /* \"#utility.yul\":830:831   */\n  0x04\n    /* \"#utility.yul\":823:838   */\n  mstore\n    /* \"#utility.yul\":857:861   */\n  0x24\n    /* \"#utility.yul\":854:855   */\n  0x00\n    /* \"#utility.yul\":847:862   */\n  revert\n    /* \"#utility.yul\":874:1155   */\ntag_20:\n    /* \"#utility.yul\":957:984   */\n  tag_56\n    /* \"#utility.yul\":979:983   */\n  dup3\n    /* \"#utility.yul\":957:984   */\n  tag_18\n  jump\t// in\ntag_56:\n    /* \"#utility.yul\":949:955   */\n  dup2\n    /* \"#utility.yul\":945:985   */\n  add\n    /* \"#utility.yul\":1087:1093   */\n  dup2\n    /* \"#utility.yul\":1075:1085   */\n  dup2\n    /* \"#utility.yul\":1072:1094   */\n  lt\n    /* \"#utility.yul\":1051:1069   */\n  0xffffffffffffffff\n    /* \"#utility.yul\":1039:1049   */\n  dup3\n    /* \"#utility.yul\":1036:1070   */\n  gt\n    /* \"#utility.yul\":1033:1095   */\n  or\n    /* \"#utility.yul\":1030:1118   */\n  iszero\n  tag_57\n  jumpi\n    /* \"#utility.yul\":1098:1116   */\n  tag_58\n  tag_19\n  jump\t// in\ntag_58:\n    /* \"#utility.yul\":1030:1118   */\ntag_57:\n    /* \"#utility.yul\":1138:1148   */\n  dup1\n    /* \"#utility.yul\":1134:1136   */\n  0x40\n    /* \"#utility.yul\":1127:1149   */\n  mstore\n    /* \"#utility.yul\":917:1155   */\n  pop\n    /* \"#utility.yul\":874:1155   */\n  pop\n  pop\n  jump\t// out\n    /* \"#utility.yul\":1161:1290   */\ntag_21:\n    /* \"#utility.yul\":1195:1201   */\n  0x00\n    /* \"#utility.yul\":1222:1242   */\n  tag_60\n  tag_13\n  jump\t// in\ntag_60:\n    /* \"#utility.yul\":1212:1242   */\n  swap1\n  pop\n    /* \"#utility.yul\":1251:1284   */\n  tag_61\n    /* \"#utility.yul\":1279:1283   */\n  dup3\n    /* \"#utility.yul\":1271:1277   */\n  dup3\n    /* \"#utility.yul\":1251:1284   */\n  tag_20\n  jump\t// in\ntag_61:\n    /* \"#utility.yul\":1161:1290   */\n  swap2\n  swap1\n  pop\n  jump\t// out\n    /* \"#utility.yul\":1296:1604   */\ntag_22:\n    /* \"#utility.yul\":1358:1362   */\n  0x00\n    /* \"#utility.yul\":1448:1466   */\n  0xffffffffffffffff\n    /* \"#utility.yul\":1440:1446   */\n  dup3\n    /* \"#utility.yul\":1437:1467   */\n  gt\n    /* \"#utility.yul\":1434:1490   */\n  iszero\n  tag_63\n  jumpi\n    /* \"#utility.yul\":1470:1488   */\n  tag_64\n  tag_19\n  jump\t// in\ntag_64:\n    /* \"#utility.yul\":1434:1490   */\ntag_63:\n    /* \"#utility.yul\":1508:1537   */\n  tag_65\n    /* \"#utility.yul\":1530:1536   */\n  dup3\n    /* \"#utility.yul\":1508:1537   */\n  tag_18\n  jump\t// in\ntag_65:\n    /* \"#utility.yul\":1500:1537   */\n  swap1\n  pop\n    /* \"#utility.yul\":1592:1596   */\n  0x20\n    /* \"#utility.yul\":1586:1590   */\n  dup2\n    /* \"#utility.yul\":1582:1597   */\n  add\n    /* \"#utility.yul\":1574:1597   */\n  swap1\n  pop\n    /* \"#utility.yul\":1296:1604   */\n  swap2\n  swap1\n  pop\n  jump\t// out\n    /* \"#utility.yul\":1610:1856   */\ntag_23:\n    /* \"#utility.yul\":1691:1692   */\n  0x00\n    /* \"#utility.yul\":1701:1814   */\ntag_67:\n    /* \"#utility.yul\":1715:1721   */\n  dup4\n    /* \"#utility.yul\":1712:1713   */\n  dup2\n    /* \"#utility.yul\":1709:1722   */\n  lt\n    /* \"#utility.yul\":1701:1814   */\n  iszero\n  tag_69\n  jumpi\n    /* \"#utility.yul\":1800:1801   */\n  dup1\n    /* \"#utility.yul\":1795:1798   */\n  dup3\n    /* \"#utility.yul\":1791:1802   */\n  add\n    /* \"#utility.yul\":1785:1803   */\n  mload\n    /* \"#utility.yul\":1781:1782   */\n  dup2\n    /* \"#utility.yul\":1776:1779   */\n  dup5\n    /* \"#utility.yul\":1772:1783   */\n  add\n    /* \"#utility.yul\":1765:1804   */\n  mstore\n    /* \"#utility.yul\":1737:1739   */\n  0x20\n    /* \"#utility.yul\":1734:1735   */\n  dup2\n    /* \"#utility.yul\":1730:1740   */\n  add\n    /* \"#utility.yul\":1725:1740   */\n  swap1\n  pop\n    /* \"#utility.yul\":1701:1814   */\n  jump(tag_67)\ntag_69:\n    /* \"#utility.yul\":1848:1849   */\n  0x00\n    /* \"#utility.yul\":1839:1845   */\n  dup5\n    /* \"#utility.yul\":1834:1837   */\n  dup5\n    /* \"#utility.yul\":1830:1846   */\n  add\n    /* \"#utility.yul\":1823:1850   */\n  mstore\n    /* \"#utility.yul\":1672:1856   */\n  pop\n    /* \"#utility.yul\":1610:1856   */\n  pop\n  pop\n  pop\n  jump\t// out\n    /* \"#utility.yul\":1862:2296   */\ntag_24:\n    /* \"#utility.yul\":1951:1956   */\n  0x00\n    /* \"#utility.yul\":1976:2042   */\n  tag_71\n    /* \"#utility.yul\":1992:2041   */\n  tag_72\n    /* \"#utility.yul\":2034:2040   */\n  dup5\n    /* \"#utility.yul\":1992:2041   */\n  tag_22\n  jump\t// in\ntag_72:\n    /* \"#utility.yul\":1976:2042   */\n  tag_21\n  jump\t// in\ntag_71:\n    /* \"#utility.yul\":1967:2042   */\n  swap1\n  pop\n    /* \"#utility.yul\":2065:2071   */\n  dup3\n    /* \"#utility.yul\":2058:2063   */\n  dup2\n    /* \"#utility.yul\":2051:2072   */\n  mstore\n    /* \"#utility.yul\":2103:2107   */\n  0x20\n    /* \"#utility.yul\":2096:2101   */\n  dup2\n    /* \"#utility.yul\":2092:2108   */\n  add\n    /* \"#utility.yul\":2141:2144   */\n  dup5\n    /* \"#utility.yul\":2132:2138   */\n  dup5\n    /* \"#utility.yul\":2127:2130   */\n  dup5\n    /* \"#utility.yul\":2123:2139   */\n  add\n    /* \"#utility.yul\":2120:2145   */\n  gt\n    /* \"#utility.yul\":2117:2229   */\n  iszero\n  tag_73\n  jumpi\n    /* \"#utility.yul\":2148:2227   */\n  tag_74\n  tag_17\n  jump\t// in\ntag_74:\n    /* \"#utility.yul\":2117:2229   */\ntag_73:\n    /* \"#utility.yul\":2238:2290   */\n  tag_75\n    /* \"#utility.yul\":2283:2289   */\n  dup5\n    /* \"#utility.yul\":2278:2281   */\n  dup3\n    /* \"#utility.yul\":2273:2276   */\n  dup6\n    /* \"#utility.yul\":2238:2290   */\n  tag_23\n  jump\t// in\ntag_75:\n    /* \"#utility.yul\":1957:2296   */\n  pop\n    /* \"#utility.yul\":1862:2296   */\n  swap4\n  swap3\n  pop\n  pop\n  pop\n  jump\t// out\n    /* \"#utility.yul\":2316:2671   */\ntag_25:\n    /* \"#utility.yul\":2383:2388   */\n  0x00\n    /* \"#utility.yul\":2432:2435   */\n  dup3\n    /* \"#utility.yul\":2425:2429   */\n  0x1f\n    /* \"#utility.yul\":2417:2423   */\n  dup4\n    /* \"#utility.yul\":2413:2430   */\n  add\n    /* \"#utility.yul\":2409:2436   */\n  slt\n    /* \"#utility.yul\":2399:2521   */\n  tag_77\n  jumpi\n    /* \"#utility.yul\":2440:2519   */\n  tag_78\n  tag_16\n  jump\t// in\ntag_78:\n    /* \"#utility.yul\":2399:2521   */\ntag_77:\n    /* \"#utility.yul\":2550:2556   */\n  dup2\n    /* \"#utility.yul\":2544:2557   */\n  mload\n    /* \"#utility.yul\":2575:2665   */\n  tag_79\n    /* \"#utility.yul\":2661:2664   */\n  dup5\n    /* \"#utility.yul\":2653:2659   */\n  dup3\n    /* \"#utility.yul\":2646:2650   */\n  0x20\n    /* \"#utility.yul\":2638:2644   */\n  dup7\n    /* \"#utility.yul\":2634:2651   */\n  add\n    /* \"#utility.yul\":2575:2665   */\n  tag_24\n  jump\t// in\ntag_79:\n    /* \"#utility.yul\":2566:2665   */\n  swap2\n  pop\n    /* \"#utility.yul\":2389:2671   */\n  pop\n    /* \"#utility.yul\":2316:2671   */\n  swap3\n  swap2\n  pop\n  pop\n  jump\t// out\n    /* \"#utility.yul\":2677:2754   */\ntag_26:\n    /* \"#utility.yul\":2714:2721   */\n  0x00\n    /* \"#utility.yul\":2743:2748   */\n  dup2\n    /* \"#utility.yul\":2732:2748   */\n  swap1\n  pop\n    /* \"#utility.yul\":2677:2754   */\n  swap2\n  swap1\n  pop\n  jump\t// out\n    /* \"#utility.yul\":2760:2882   */\ntag_27:\n    /* \"#utility.yul\":2833:2857   */\n  tag_82\n    /* \"#utility.yul\":2851:2856   */\n  dup2\n    /* \"#utility.yul\":2833:2857   */\n  tag_26\n  jump\t// in\ntag_82:\n    /* \"#utility.yul\":2826:2831   */\n  dup2\n    /* \"#utility.yul\":2823:2858   */\n  eq\n    /* \"#utility.yul\":2813:2876   */\n  tag_83\n  jumpi\n    /* \"#utility.yul\":2872:2873   */\n  0x00\n    /* \"#utility.yul\":2869:2870   */\n  dup1\n    /* \"#utility.yul\":2862:2874   */\n  revert\n    /* \"#utility.yul\":2813:2876   */\ntag_83:\n    /* \"#utility.yul\":2760:2882   */\n  pop\n  jump\t// out\n    /* \"#utility.yul\":2888:3031   */\ntag_28:\n    /* \"#utility.yul\":2945:2950   */\n  0x00\n    /* \"#utility.yul\":2976:2982   */\n  dup2\n    /* \"#utility.yul\":2970:2983   */\n  mload\n    /* \"#utility.yul\":2961:2983   */\n  swap1\n  pop\n    /* \"#utility.yul\":2992:3025   */\n  tag_85\n    /* \"#utility.yul\":3019:3024   */\n  dup2\n    /* \"#utility.yul\":2992:3025   */\n  tag_27\n  jump\t// in\ntag_85:\n    /* \"#utility.yul\":2888:3031   */\n  swap3\n  swap2\n  pop\n  pop\n  jump\t// out\n    /* \"#utility.yul\":3037:5036   */\ntag_3:\n    /* \"#utility.yul\":3202:3208   */\n  0x00\n    /* \"#utility.yul\":3210:3216   */\n  dup1\n    /* \"#utility.yul\":3218:3224   */\n  0x00\n    /* \"#utility.yul\":3226:3232   */\n  dup1\n    /* \"#utility.yul\":3234:3240   */\n  0x00\n    /* \"#utility.yul\":3242:3248   */\n  dup1\n    /* \"#utility.yul\":3291:3294   */\n  0xc0\n    /* \"#utility.yul\":3279:3288   */\n  dup8\n    /* \"#utility.yul\":3270:3277   */\n  dup10\n    /* \"#utility.yul\":3266:3289   */\n  sub\n    /* \"#utility.yul\":3262:3295   */\n  slt\n    /* \"#utility.yul\":3259:3379   */\n  iszero\n  tag_87\n  jumpi\n    /* \"#utility.yul\":3298:3377   */\n  tag_88\n  tag_14\n  jump\t// in\ntag_88:\n    /* \"#utility.yul\":3259:3379   */\ntag_87:\n    /* \"#utility.yul\":3439:3440   */\n  0x00\n    /* \"#utility.yul\":3428:3437   */\n  dup8\n    /* \"#utility.yul\":3424:3441   */\n  add\n    /* \"#utility.yul\":3418:3442   */\n  mload\n    /* \"#utility.yul\":3469:3487   */\n  0xffffffffffffffff\n    /* \"#utility.yul\":3461:3467   */\n  dup2\n    /* \"#utility.yul\":3458:3488   */\n  gt\n    /* \"#utility.yul\":3455:3572   */\n  iszero\n  tag_89\n  jumpi\n    /* \"#utility.yul\":3491:3570   */\n  tag_90\n  tag_15\n  jump\t// in\ntag_90:\n    /* \"#utility.yul\":3455:3572   */\ntag_89:\n    /* \"#utility.yul\":3596:3670   */\n  tag_91\n    /* \"#utility.yul\":3662:3669   */\n  dup10\n    /* \"#utility.yul\":3653:3659   */\n  dup3\n    /* \"#utility.yul\":3642:3651   */\n  dup11\n    /* \"#utility.yul\":3638:3660   */\n  add\n    /* \"#utility.yul\":3596:3670   */\n  tag_25\n  jump\t// in\ntag_91:\n    /* \"#utility.yul\":3586:3670   */\n  swap7\n  pop\n    /* \"#utility.yul\":3389:3680   */\n  pop\n    /* \"#utility.yul\":3740:3742   */\n  0x20\n    /* \"#utility.yul\":3729:3738   */\n  dup8\n    /* \"#utility.yul\":3725:3743   */\n  add\n    /* \"#utility.yul\":3719:3744   */\n  mload\n    /* \"#utility.yul\":3771:3789   */\n  0xffffffffffffffff\n    /* \"#utility.yul\":3763:3769   */\n  dup2\n    /* \"#utility.yul\":3760:3790   */\n  gt\n    /* \"#utility.yul\":3757:3874   */\n  iszero\n  tag_92\n  jumpi\n    /* \"#utility.yul\":3793:3872   */\n  tag_93\n  tag_15\n  jump\t// in\ntag_93:\n    /* \"#utility.yul\":3757:3874   */\ntag_92:\n    /* \"#utility.yul\":3898:3972   */\n  tag_94\n    /* \"#utility.yul\":3964:3971   */\n  dup10\n    /* \"#utility.yul\":3955:3961   */\n  dup3\n    /* \"#utility.yul\":3944:3953   */\n  dup11\n    /* \"#utility.yul\":3940:3962   */\n  add\n    /* \"#utility.yul\":3898:3972   */\n  tag_25\n  jump\t// in\ntag_94:\n    /* \"#utility.yul\":3888:3972   */\n  swap6\n  pop\n    /* \"#utility.yul\":3690:3982   */\n  pop\n    /* \"#utility.yul\":4042:4044   */\n  0x40\n    /* \"#utility.yul\":4031:4040   */\n  dup8\n    /* \"#utility.yul\":4027:4045   */\n  add\n    /* \"#utility.yul\":4021:4046   */\n  mload\n    /* \"#utility.yul\":4073:4091   */\n  0xffffffffffffffff\n    /* \"#utility.yul\":4065:4071   */\n  dup2\n    /* \"#utility.yul\":4062:4092   */\n  gt\n    /* \"#utility.yul\":4059:4176   */\n  iszero\n  tag_95\n  jumpi\n    /* \"#utility.yul\":4095:4174   */\n  tag_96\n  tag_15\n  jump\t// in\ntag_96:\n    /* \"#utility.yul\":4059:4176   */\ntag_95:\n    /* \"#utility.yul\":4200:4274   */\n  tag_97\n    /* \"#utility.yul\":4266:4273   */\n  dup10\n    /* \"#utility.yul\":4257:4263   */\n  dup3\n    /* \"#utility.yul\":4246:4255   */\n  dup11\n    /* \"#utility.yul\":4242:4264   */\n  add\n    /* \"#utility.yul\":4200:4274   */\n  tag_25\n  jump\t// in\ntag_97:\n    /* \"#utility.yul\":4190:4274   */\n  swap5\n  pop\n    /* \"#utility.yul\":3992:4284   */\n  pop\n    /* \"#utility.yul\":4344:4346   */\n  0x60\n    /* \"#utility.yul\":4333:4342   */\n  dup8\n    /* \"#utility.yul\":4329:4347   */\n  add\n    /* \"#utility.yul\":4323:4348   */\n  mload\n    /* \"#utility.yul\":4375:4393   */\n  0xffffffffffffffff\n    /* \"#utility.yul\":4367:4373   */\n  dup2\n    /* \"#utility.yul\":4364:4394   */\n  gt\n    /* \"#utility.yul\":4361:4478   */\n  iszero\n  tag_98\n  jumpi\n    /* \"#utility.yul\":4397:4476   */\n  tag_99\n  tag_15\n  jump\t// in\ntag_99:\n    /* \"#utility.yul\":4361:4478   */\ntag_98:\n    /* \"#utility.yul\":4502:4576   */\n  tag_100\n    /* \"#utility.yul\":4568:4575   */\n  dup10\n    /* \"#utility.yul\":4559:4565   */\n  dup3\n    /* \"#utility.yul\":4548:4557   */\n  dup11\n    /* \"#utility.yul\":4544:4566   */\n  add\n    /* \"#utility.yul\":4502:4576   */\n  tag_25\n  jump\t// in\ntag_100:\n    /* \"#utility.yul\":4492:4576   */\n  swap4\n  pop\n    /* \"#utility.yul\":4294:4586   */\n  pop\n    /* \"#utility.yul\":4646:4649   */\n  0x80\n    /* \"#utility.yul\":4635:4644   */\n  dup8\n    /* \"#utility.yul\":4631:4650   */\n  add\n    /* \"#utility.yul\":4625:4651   */\n  mload\n    /* \"#utility.yul\":4678:4696   */\n  0xffffffffffffffff\n    /* \"#utility.yul\":4670:4676   */\n  dup2\n    /* \"#utility.yul\":4667:4697   */\n  gt\n    /* \"#utility.yul\":4664:4781   */\n  iszero\n  tag_101\n  jumpi\n    /* \"#utility.yul\":4700:4779   */\n  tag_102\n  tag_15\n  jump\t// in\ntag_102:\n    /* \"#utility.yul\":4664:4781   */\ntag_101:\n    /* \"#utility.yul\":4805:4879   */\n  tag_103\n    /* \"#utility.yul\":4871:4878   */\n  dup10\n    /* \"#utility.yul\":4862:4868   */\n  dup3\n    /* \"#utility.yul\":4851:4860   */\n  dup11\n    /* \"#utility.yul\":4847:4869   */\n  add\n    /* \"#utility.yul\":4805:4879   */\n  tag_25\n  jump\t// in\ntag_103:\n    /* \"#utility.yul\":4795:4879   */\n  swap3\n  pop\n    /* \"#utility.yul\":4596:4889   */\n  pop\n    /* \"#utility.yul\":4928:4931   */\n  0xa0\n    /* \"#utility.yul\":4955:5019   */\n  tag_104\n    /* \"#utility.yul\":5011:5018   */\n  dup10\n    /* \"#utility.yul\":5002:5008   */\n  dup3\n    /* \"#utility.yul\":4991:5000   */\n  dup11\n    /* \"#utility.yul\":4987:5009   */\n  add\n    /* \"#utility.yul\":4955:5019   */\n  tag_28\n  jump\t// in\ntag_104:\n    /* \"#utility.yul\":4945:5019   */\n  swap2\n  pop\n    /* \"#utility.yul\":4899:5029   */\n  pop\n    /* \"#utility.yul\":3037:5036   */\n  swap3\n  swap6\n  pop\n  swap3\n  swap6\n  pop\n  swap3\n  swap6\n  jump\t// out\n    /* \"#utility.yul\":5042:5141   */\ntag_29:\n    /* \"#utility.yul\":5094:5100   */\n  0x00\n    /* \"#utility.yul\":5128:5133   */\n  dup2\n    /* \"#utility.yul\":5122:5134   */\n  mload\n    /* \"#utility.yul\":5112:5134   */\n  swap1\n  pop\n    /* \"#utility.yul\":5042:5141   */\n  swap2\n  swap1\n  pop\n  jump\t// out\n    /* \"#utility.yul\":5147:5327   */\ntag_30:\n    /* \"#utility.yul\":5195:5272   */\n  0x4e487b7100000000000000000000000000000000000000000000000000000000\n    /* \"#utility.yul\":5192:5193   */\n  0x00\n    /* \"#utility.yul\":5185:5273   */\n  mstore\n    /* \"#utility.yul\":5292:5296   */\n  0x22\n    /* \"#utility.yul\":5289:5290   */\n  0x04\n    /* \"#utility.yul\":5282:5297   */\n  mstore\n    /* \"#utility.yul\":5316:5320   */\n  0x24\n    /* \"#utility.yul\":5313:5314   */\n  0x00\n    /* \"#utility.yul\":5306:5321   */\n  revert\n    /* \"#utility.yul\":5333:5653   */\ntag_31:\n    /* \"#utility.yul\":5377:5383   */\n  0x00\n    /* \"#utility.yul\":5414:5415   */\n  0x02\n    /* \"#utility.yul\":5408:5412   */\n  dup3\n    /* \"#utility.yul\":5404:5416   */\n  div\n    /* \"#utility.yul\":5394:5416   */\n  swap1\n  pop\n    /* \"#utility.yul\":5461:5462   */\n  0x01\n    /* \"#utility.yul\":5455:5459   */\n  dup3\n    /* \"#utility.yul\":5451:5463   */\n  and\n    /* \"#utility.yul\":5482:5500   */\n  dup1\n    /* \"#utility.yul\":5472:5553   */\n  tag_108\n  jumpi\n    /* \"#utility.yul\":5538:5542   */\n  0x7f\n    /* \"#utility.yul\":5530:5536   */\n  dup3\n    /* \"#utility.yul\":5526:5543   */\n  and\n    /* \"#utility.yul\":5516:5543   */\n  swap2\n  pop\n    /* \"#utility.yul\":5472:5553   */\ntag_108:\n    /* \"#utility.yul\":5600:5602   */\n  0x20\n    /* \"#utility.yul\":5592:5598   */\n  dup3\n    /* \"#utility.yul\":5589:5603   */\n  lt\n    /* \"#utility.yul\":5569:5587   */\n  dup2\n    /* \"#utility.yul\":5566:5604   */\n  sub\n    /* \"#utility.yul\":5563:5647   */\n  tag_109\n  jumpi\n    /* \"#utility.yul\":5619:5637   */\n  tag_110\n  tag_30\n  jump\t// in\ntag_110:\n    /* \"#utility.yul\":5563:5647   */\ntag_109:\n    /* \"#utility.yul\":5384:5653   */\n  pop\n    /* \"#utility.yul\":5333:5653   */\n  swap2\n  swap1\n  pop\n  jump\t// out\n    /* \"#utility.yul\":5659:5800   */\ntag_32:\n    /* \"#utility.yul\":5708:5712   */\n  0x00\n    /* \"#utility.yul\":5731:5734   */\n  dup2\n    /* \"#utility.yul\":5723:5734   */\n  swap1\n  pop\n    /* \"#utility.yul\":5754:5757   */\n  dup2\n    /* \"#utility.yul\":5751:5752   */\n  0x00\n    /* \"#utility.yul\":5744:5758   */\n  mstore\n    /* \"#utility.yul\":5788:5792   */\n  0x20\n    /* \"#utility.yul\":5785:5786   */\n  0x00\n    /* \"#utility.yul\":5775:5793   */\n  keccak256\n    /* \"#utility.yul\":5767:5793   */\n  swap1\n  pop\n    /* \"#utility.yul\":5659:5800   */\n  swap2\n  swap1\n  pop\n  jump\t// out\n    /* \"#utility.yul\":5806:5899   */\ntag_33:\n    /* \"#utility.yul\":5843:5849   */\n  0x00\n    /* \"#utility.yul\":5890:5892   */\n  0x20\n    /* \"#utility.yul\":5885:5887   */\n  0x1f\n    /* \"#utility.yul\":5878:5883   */\n  dup4\n    /* \"#utility.yul\":5874:5888   */\n  add\n    /* \"#utility.yul\":5870:5893   */\n  div\n    /* \"#utility.yul\":5860:5893   */\n  swap1\n  pop\n    /* \"#utility.yul\":5806:5899   */\n  swap2\n  swap1\n  pop\n  jump\t// out\n    /* \"#utility.yul\":5905:6012   */\ntag_34:\n    /* \"#utility.yul\":5949:5957   */\n  0x00\n    /* \"#utility.yul\":5999:6004   */\n  dup3\n    /* \"#utility.yul\":5993:5997   */\n  dup3\n    /* \"#utility.yul\":5989:6005   */\n  shl\n    /* \"#utility.yul\":5968:6005   */\n  swap1\n  pop\n    /* \"#utility.yul\":5905:6012   */\n  swap3\n  swap2\n  pop\n  pop\n  jump\t// out\n    /* \"#utility.yul\":6018:6411   */\ntag_35:\n    /* \"#utility.yul\":6087:6093   */\n  0x00\n    /* \"#utility.yul\":6137:6138   */\n  0x08\n    /* \"#utility.yul\":6125:6135   */\n  dup4\n    /* \"#utility.yul\":6121:6139   */\n  mul\n    /* \"#utility.yul\":6160:6257   */\n  tag_115\n    /* \"#utility.yul\":6190:6256   */\n  0xffffffffffffffffffffffffffffffffffffffffffffffffffffffffffffffff\n    /* \"#utility.yul\":6179:6188   */\n  dup3\n    /* \"#utility.yul\":6160:6257   */\n  tag_34\n  jump\t// in\ntag_115:\n    /* \"#utility.yul\":6278:6317   */\n  tag_116\n    /* \"#utility.yul\":6308:6316   */\n  dup7\n    /* \"#utility.yul\":6297:6306   */\n  dup4\n    /* \"#utility.yul\":6278:6317   */\n  tag_34\n  jump\t// in\ntag_116:\n    /* \"#utility.yul\":6266:6317   */\n  swap6\n  pop\n    /* \"#utility.yul\":6350:6354   */\n  dup1\n    /* \"#utility.yul\":6346:6355   */\n  not\n    /* \"#utility.yul\":6339:6344   */\n  dup5\n    /* \"#utility.yul\":6335:6356   */\n  and\n    /* \"#utility.yul\":6326:6356   */\n  swap4\n  pop\n    /* \"#utility.yul\":6399:6403   */\n  dup1\n    /* \"#utility.yul\":6389:6397   */\n  dup7\n    /* \"#utility.yul\":6385:6404   */\n  and\n    /* \"#utility.yul\":6378:6383   */\n  dup5\n    /* \"#utility.yul\":6375:6405   */\n  or\n    /* \"#utility.yul\":6365:6405   */\n  swap3\n  pop\n    /* \"#utility.yul\":6094:6411   */\n  pop\n  pop\n    /* \"#utility.yul\":6018:6411   */\n  swap4\n  swap3\n  pop\n  pop\n  pop\n  jump\t// out\n    /* \"#utility.yul\":6417:6477   */\ntag_36:\n    /* \"#utility.yul\":6445:6448   */\n  0x00\n    /* \"#utility.yul\":6466:6471   */\n  dup2\n    /* \"#utility.yul\":6459:6471   */\n  swap1\n  pop\n    /* \"#utility.yul\":6417:6477   */\n  swap2\n  swap1\n  pop\n  jump\t// out\n    /* \"#utility.yul\":6483:6625   */\ntag_37:\n    /* \"#utility.yul\":6533:6542   */\n  0x00\n    /* \"#utility.yul\":6566:6619   */\n  tag_119\n    /* \"#utility.yul\":6584:6618   */\n  tag_120\n    /* \"#utility.yul\":6593:6617   */\n  tag_121\n    /* \"#utility.yul\":6611:6616   */\n  dup5\n    /* \"#utility.yul\":6593:6617   */\n  tag_26\n  jump\t// in\ntag_121:\n    /* \"#utility.yul\":6584:6618   */\n  tag_36\n  jump\t// in\ntag_120:\n    /* \"#utility.yul\":6566:6619   */\n  tag_26\n  jump\t// in\ntag_119:\n    /* \"#utility.yul\":6553:6619   */\n  swap1\n  pop\n    /* \"#utility.yul\":6483:6625   */\n  swap2\n  swap1\n  pop\n  jump\t// out\n    /* \"#utility.yul\":6631:6706   */\ntag_38:\n    /* \"#utility.yul\":6674:6677   */\n  0x00\n    /* \"#utility.yul\":6695:6700   */\n  dup2\n    /* \"#utility.yul\":6688:6700   */\n  swap1\n  pop\n    /* \"#utility.yul\":6631:6706   */\n  swap2\n  swap1\n  pop\n  jump\t// out\n    /* \"#utility.yul\":6712:6981   */\ntag_39:\n    /* \"#utility.yul\":6822:6861   */\n  tag_124\n    /* \"#utility.yul\":6853:6860   */\n  dup4\n    /* \"#utility.yul\":6822:6861   */\n  tag_37\n  jump\t// in\ntag_124:\n    /* \"#utility.yul\":6883:6974   */\n  tag_125\n    /* \"#utility.yul\":6932:6973   */\n  tag_126\n    /* \"#utility.yul\":6956:6972   */\n  dup3\n    /* \"#utility.yul\":6932:6973   */\n  tag_38\n  jump\t// in\ntag_126:\n    /* \"#utility.yul\":6924:6930   */\n  dup5\n    /* \"#utility.yul\":6917:6921   */\n  dup5\n    /* \"#utility.yul\":6911:6922   */\n  sload\n    /* \"#utility.yul\":6883:6974   */\n  tag_35\n  jump\t// in\ntag_125:\n    /* \"#utility.yul\":6877:6881   */\n  dup3\n    /* \"#utility.yul\":6870:6975   */\n  sstore\n    /* \"#utility.yul\":6788:6981   */\n  pop\n    /* \"#utility.yul\":6712:6981   */\n  pop\n  pop\n  pop\n  jump\t// out\n    /* \"#utility.yul\":6987:7060   */\ntag_40:\n    /* \"#utility.yul\":7032:7035   */\n  0x00\n    /* \"#utility.yul\":6987:7060   */\n  swap1\n  jump\t// out\n    /* \"#utility.yul\":7066:7255   */\ntag_41:\n    /* \"#utility.yul\":7143:7175   */\n  tag_129\n  tag_40\n  jump\t// in\ntag_129:\n    /* \"#utility.yul\":7184:7249   */\n  tag_130\n    /* \"#utility.yul\":7242:7248   */\n  dup2\n    /* \"#utility.yul\":7234:7240   */\n  dup5\n    /* \"#utility.yul\":7228:7232   */\n  dup5\n    /* \"#utility.yul\":7184:7249   */\n  tag_39\n  jump\t// in\ntag_130:\n    /* \"#utility.yul\":7119:7255   */\n  pop\n    /* \"#utility.yul\":7066:7255   */\n  pop\n  pop\n  jump\t// out\n    /* \"#utility.yul\":7261:7447   */\ntag_42:\n    /* \"#utility.yul\":7321:7441   */\ntag_132:\n    /* \"#utility.yul\":7338:7341   */\n  dup2\n    /* \"#utility.yul\":7331:7336   */\n  dup2\n    /* \"#utility.yul\":7328:7342   */\n  lt\n    /* \"#utility.yul\":7321:7441   */\n  iszero\n  tag_134\n  jumpi\n    /* \"#utility.yul\":7392:7431   */\n  tag_135\n    /* \"#utility.yul\":7429:7430   */\n  0x00\n    /* \"#utility.yul\":7422:7427   */\n  dup3\n    /* \"#utility.yul\":7392:7431   */\n  tag_41\n  jump\t// in\ntag_135:\n    /* \"#utility.yul\":7365:7366   */\n  0x01\n    /* \"#utility.yul\":7358:7363   */\n  dup2\n    /* \"#utility.yul\":7354:7367   */\n  add\n    /* \"#utility.yul\":7345:7367   */\n  swap1\n  pop\n    /* \"#utility.yul\":7321:7441   */\n  jump(tag_132)\ntag_134:\n    /* \"#utility.yul\":7261:7447   */\n  pop\n  pop\n  jump\t// out\n    /* \"#utility.yul\":7453:7996   */\ntag_43:\n    /* \"#utility.yul\":7554:7556   */\n  0x1f\n    /* \"#utility.yul\":7549:7552   */\n  dup3\n    /* \"#utility.yul\":7546:7557   */\n  gt\n    /* \"#utility.yul\":7543:7989   */\n  iszero\n  tag_137\n  jumpi\n    /* \"#utility.yul\":7588:7626   */\n  tag_138\n    /* \"#utility.yul\":7620:7625   */\n  dup2\n    /* \"#utility.yul\":7588:7626   */\n  tag_32\n  jump\t// in\ntag_138:\n    /* \"#utility.yul\":7672:7701   */\n  tag_139\n    /* \"#utility.yul\":7690:7700   */\n  dup5\n    /* \"#utility.yul\":7672:7701   */\n  tag_33\n  jump\t// in\ntag_139:\n    /* \"#utility.yul\":7662:7670   */\n  dup2\n    /* \"#utility.yul\":7658:7702   */\n  add\n    /* \"#utility.yul\":7855:7857   */\n  0x20\n    /* \"#utility.yul\":7843:7853   */\n  dup6\n    /* \"#utility.yul\":7840:7858   */\n  lt\n    /* \"#utility.yul\":7837:7886   */\n  iszero\n  tag_140\n  jumpi\n    /* \"#utility.yul\":7876:7884   */\n  dup2\n    /* \"#utility.yul\":7861:7884   */\n  swap1\n  pop\n    /* \"#utility.yul\":7837:7886   */\ntag_140:\n    /* \"#utility.yul\":7899:7979   */\n  tag_141\n    /* \"#utility.yul\":7955:7977   */\n  tag_142\n    /* \"#utility.yul\":7973:7976   */\n  dup6\n    /* \"#utility.yul\":7955:7977   */\n  tag_33\n  jump\t// in\ntag_142:\n    /* \"#utility.yul\":7945:7953   */\n  dup4\n    /* \"#utility.yul\":7941:7978   */\n  add\n    /* \"#utility.yul\":7928:7939   */\n  dup3\n    /* \"#utility.yul\":7899:7979   */\n  tag_42\n  jump\t// in\ntag_141:\n    /* \"#utility.yul\":7558:7989   */\n  pop\n  pop\n    /* \"#utility.yul\":7543:7989   */\ntag_137:\n    /* \"#utility.yul\":7453:7996   */\n  pop\n  pop\n  pop\n  jump\t// out\n    /* \"#utility.yul\":8002:8119   */\ntag_44:\n    /* \"#utility.yul\":8056:8064   */\n  0x00\n    /* \"#utility.yul\":8106:8111   */\n  dup3\n    /* \"#utility.yul\":8100:8104   */\n  dup3\n    /* \"#utility.yul\":8096:8112   */\n  shr\n    /* \"#utility.yul\":8075:8112   */\n  swap1\n  pop\n    /* \"#utility.yul\":8002:8119   */\n  swap3\n  swap2\n  pop\n  pop\n  jump\t// out\n    /* \"#utility.yul\":8125:8294   */\ntag_45:\n    /* \"#utility.yul\":8169:8175   */\n  0x00\n    /* \"#utility.yul\":8202:8253   */\n  tag_145\n    /* \"#utility.yul\":8250:8251   */\n  0x00\n    /* \"#utility.yul\":8246:8252   */\n  not\n    /* \"#utility.yul\":8238:8243   */\n  dup5\n    /* \"#utility.yul\":8235:8236   */\n  0x08\n    /* \"#utility.yul\":8231:8244   */\n  mul\n    /* \"#utility.yul\":8202:8253   */\n  tag_44\n  jump\t// in\ntag_145:\n    /* \"#utility.yul\":8198:8254   */\n  not\n    /* \"#utility.yul\":8283:8287   */\n  dup1\n    /* \"#utility.yul\":8277:8281   */\n  dup4\n    /* \"#utility.yul\":8273:8288   */\n  and\n    /* \"#utility.yul\":8263:8288   */\n  swap2\n  pop\n    /* \"#utility.yul\":8176:8294   */\n  pop\n    /* \"#utility.yul\":8125:8294   */\n  swap3\n  swap2\n  pop\n  pop\n  jump\t// out\n    /* \"#utility.yul\":8299:8594   */\ntag_46:\n    /* \"#utility.yul\":8375:8379   */\n  0x00\n    /* \"#utility.yul\":8521:8550   */\n  tag_147\n    /* \"#utility.yul\":8546:8549   */\n  dup4\n    /* \"#utility.yul\":8540:8544   */\n  dup4\n    /* \"#utility.yul\":8521:8550   */\n  tag_45\n  jump\t// in\ntag_147:\n    /* \"#utility.yul\":8513:8550   */\n  swap2\n  pop\n    /* \"#utility.yul\":8583:8586   */\n  dup3\n    /* \"#utility.yul\":8580:8581   */\n  0x02\n    /* \"#utility.yul\":8576:8587   */\n  mul\n    /* \"#utility.yul\":8570:8574   */\n  dup3\n    /* \"#utility.yul\":8567:8588   */\n  or\n    /* \"#utility.yul\":8559:8588   */\n  swap1\n  pop\n    /* \"#utility.yul\":8299:8594   */\n  swap3\n  swap2\n  pop\n  pop\n  jump\t// out\n    /* \"#utility.yul\":8599:9994   */\ntag_7:\n    /* \"#utility.yul\":8716:8753   */\n  tag_149\n    /* \"#utility.yul\":8749:8752   */\n  dup3\n    /* \"#utility.yul\":8716:8753   */\n  tag_29\n  jump\t// in\ntag_149:\n    /* \"#utility.yul\":8818:8836   */\n  0xffffffffffffffff\n    /* \"#utility.yul\":8810:8816   */\n  dup2\n    /* \"#utility.yul\":8807:8837   */\n  gt\n    /* \"#utility.yul\":8804:8860   */\n  iszero\n  tag_150\n  jumpi\n    /* \"#utility.yul\":8840:8858   */\n  tag_151\n  tag_19\n  jump\t// in\ntag_151:\n    /* \"#utility.yul\":8804:8860   */\ntag_150:\n    /* \"#utility.yul\":8884:8922   */\n  tag_152\n    /* \"#utility.yul\":8916:8920   */\n  dup3\n    /* \"#utility.yul\":8910:8921   */\n  sload\n    /* \"#utility.yul\":8884:8922   */\n  tag_31\n  jump\t// in\ntag_152:\n    /* \"#utility.yul\":8969:9036   */\n  tag_153\n    /* \"#utility.yul\":9029:9035   */\n  dup3\n    /* \"#utility.yul\":9021:9027   */\n  dup3\n    /* \"#utility.yul\":9015:9019   */\n  dup6\n    /* \"#utility.yul\":8969:9036   */\n  tag_43\n  jump\t// in\ntag_153:\n    /* \"#utility.yul\":9063:9064   */\n  0x00\n    /* \"#utility.yul\":9087:9091   */\n  0x20\n    /* \"#utility.yul\":9074:9091   */\n  swap1\n  pop\n    /* \"#utility.yul\":9119:9121   */\n  0x1f\n    /* \"#utility.yul\":9111:9117   */\n  dup4\n    /* \"#utility.yul\":9108:9122   */\n  gt\n    /* \"#utility.yul\":9136:9137   */\n  0x01\n    /* \"#utility.yul\":9131:9749   */\n  dup2\n  eq\n  tag_155\n  jumpi\n    /* \"#utility.yul\":9793:9794   */\n  0x00\n    /* \"#utility.yul\":9810:9816   */\n  dup5\n    /* \"#utility.yul\":9807:9884   */\n  iszero\n  tag_156\n  jumpi\n    /* \"#utility.yul\":9859:9868   */\n  dup3\n    /* \"#utility.yul\":9854:9857   */\n  dup8\n    /* \"#utility.yul\":9850:9869   */\n  add\n    /* \"#utility.yul\":9844:9870   */\n  mload\n    /* \"#utility.yul\":9835:9870   */\n  swap1\n  pop\n    /* \"#utility.yul\":9807:9884   */\ntag_156:\n    /* \"#utility.yul\":9910:9977   */\n  tag_157\n    /* \"#utility.yul\":9970:9976   */\n  dup6\n    /* \"#utility.yul\":9963:9968   */\n  dup3\n    /* \"#utility.yul\":9910:9977   */\n  tag_46\n  jump\t// in\ntag_157:\n    /* \"#utility.yul\":9904:9908   */\n  dup7\n    /* \"#utility.yul\":9897:9978   */\n  sstore\n    /* \"#utility.yul\":9766:9988   */\n  pop\n    /* \"#utility.yul\":9101:9988   */\n  jump(tag_154)\n    /* \"#utility.yul\":9131:9749   */\ntag_155:\n    /* \"#utility.yul\":9183:9187   */\n  0x1f\n    /* \"#utility.yul\":9179:9188   */\n  not\n    /* \"#utility.yul\":9171:9177   */\n  dup5\n    /* \"#utility.yul\":9167:9189   */\n  and\n    /* \"#utility.yul\":9217:9254   */\n  tag_158\n    /* \"#utility.yul\":9249:9253   */\n  dup7\n    /* \"#utility.yul\":9217:9254   */\n  tag_32\n  jump\t// in\ntag_158:\n    /* \"#utility.yul\":9276:9277   */\n  0x00\n    /* \"#utility.yul\":9290:9498   */\ntag_159:\n    /* \"#utility.yul\":9304:9311   */\n  dup3\n    /* \"#utility.yul\":9301:9302   */\n  dup2\n    /* \"#utility.yul\":9298:9312   */\n  lt\n    /* \"#utility.yul\":9290:9498   */\n  iszero\n  tag_161\n  jumpi\n    /* \"#utility.yul\":9383:9392   */\n  dup5\n    /* \"#utility.yul\":9378:9381   */\n  dup10\n    /* \"#utility.yul\":9374:9393   */\n  add\n    /* \"#utility.yul\":9368:9394   */\n  mload\n    /* \"#utility.yul\":9360:9366   */\n  dup3\n    /* \"#utility.yul\":9353:9395   */\n  sstore\n    /* \"#utility.yul\":9434:9435   */\n  0x01\n    /* \"#utility.yul\":9426:9432   */\n  dup3\n    /* \"#utility.yul\":9422:9436   */\n  add\n    /* \"#utility.yul\":9412:9436   */\n  swap2\n  pop\n    /* \"#utility.yul\":9481:9483   */\n  0x20\n    /* \"#utility.yul\":9470:9479   */\n  dup6\n    /* \"#utility.yul\":9466:9484   */\n  add\n    /* \"#utility.yul\":9453:9484   */\n  swap5\n  pop\n    /* \"#utility.yul\":9327:9331   */\n  0x20\n    /* \"#utility.yul\":9324:9325   */\n  dup2\n    /* \"#utility.yul\":9320:9332   */\n  add\n    /* \"#utility.yul\":9315:9332   */\n  swap1\n  pop\n    /* \"#utility.yul\":9290:9498   */\n  jump(tag_159)\ntag_161:\n    /* \"#utility.yul\":9526:9532   */\n  dup7\n    /* \"#utility.yul\":9517:9524   */\n  dup4\n    /* \"#utility.yul\":9514:9533   */\n  lt\n    /* \"#utility.yul\":9511:9690   */\n  iszero\n  tag_162\n  jumpi\n    /* \"#utility.yul\":9584:9593   */\n  dup5\n    /* \"#utility.yul\":9579:9582   */\n  dup10\n    /* \"#utility.yul\":9575:9594   */\n  add\n    /* \"#utility.yul\":9569:9595   */\n  mload\n    /* \"#utility.yul\":9627:9675   */\n  tag_163\n    /* \"#utility.yul\":9669:9673   */\n  0x1f\n    /* \"#utility.yul\":9661:9667   */\n  dup10\n    /* \"#utility.yul\":9657:9674   */\n  and\n    /* \"#utility.yul\":9646:9655   */\n  dup3\n    /* \"#utility.yul\":9627:9675   */\n  tag_45\n  jump\t// in\ntag_163:\n    /* \"#utility.yul\":9619:9625   */\n  dup4\n    /* \"#utility.yul\":9612:9676   */\n  sstore\n    /* \"#utility.yul\":9534:9690   */\n  pop\n    /* \"#utility.yul\":9511:9690   */\ntag_162:\n    /* \"#utility.yul\":9736:9737   */\n  0x01\n    /* \"#utility.yul\":9732:9733   */\n  0x02\n    /* \"#utility.yul\":9724:9730   */\n  dup9\n    /* \"#utility.yul\":9720:9734   */\n  mul\n    /* \"#utility.yul\":9716:9738   */\n  add\n    /* \"#utility.yul\":9710:9714   */\n  dup9\n    /* \"#utility.yul\":9703:9739   */\n  sstore\n    /* \"#utility.yul\":9138:9749   */\n  pop\n  pop\n  pop\n    /* \"#utility.yul\":9101:9988   */\ntag_154:\n  pop\n    /* \"#utility.yul\":8691:9994   */\n  pop\n  pop\n  pop\n    /* \"#utility.yul\":8599:9994   */\n  pop\n  pop\n  jump\t// out\n    /* \"contracts/supply_chain.sol\":74:2451  contract Item... */\ntag_12:\n  dataSize(sub_0)\n  dup1\n  dataOffset(sub_0)\n  0x00\n  codecopy\n  0x00\n  return\nstop\n\nsub_0: assembly {\n        /* \"contracts/supply_chain.sol\":74:2451  contract Item... */\n      mstore(0x40, 0x80)\n      callvalue\n      dup1\n      iszero\n      tag_1\n      jumpi\n      0x00\n      dup1\n      revert\n    tag_1:\n      pop\n      jumpi(tag_2, lt(calldatasize, 0x04))\n      shr(0xe0, calldataload(0x00))\n      dup1\n      0x9e650a49\n      gt\n      tag_18\n      jumpi\n      dup1\n      0xda235b22\n      gt\n      tag_19\n      jumpi\n      dup1\n      0xda235b22\n      eq\n      tag_14\n      jumpi\n      dup1\n      0xddd57872\n      eq\n      tag_15\n      jumpi\n      dup1\n      0xe480d4d7\n      eq\n      tag_16\n      jumpi\n      dup1\n      0xfa540801\n      eq\n      tag_17\n      jumpi\n      jump(tag_2)\n    tag_19:\n      dup1\n      0x9e650a49\n      eq\n      tag_10\n      jumpi\n      dup1\n      0xa85a940b\n      eq\n      tag_11\n      jumpi\n      dup1\n      0xb80777ea\n      eq\n      tag_12\n      jumpi\n      dup1\n      0xc4701516\n      eq\n      tag_13\n      jumpi\n      jump(tag_2)\n    tag_18:\n      dup1\n      0x40401fea\n      gt\n      tag_20\n      jumpi\n      dup1\n      0x40401fea\n      eq\n      tag_6\n      jumpi\n      dup1\n      0x516dde43\n      eq\n      tag_7\n      jumpi\n      dup1\n      0x6c6526aa\n      eq\n      tag_8\n      jumpi\n      dup1\n      0x98727a0e\n      eq\n      tag_9\n      jumpi\n      jump(tag_2)\n    tag_20:\n      dup1\n      0x11a08d01\n      eq\n      tag_3\n      jumpi\n      dup1\n      0x17d7de7c\n      eq\n      tag_4\n      jumpi\n      dup1\n      0x2d8ed84a\n      eq\n      tag_5\n      jumpi\n    tag_2:\n      0x00\n      dup1\n      revert\n        /* \"contracts/supply_chain.sol\":1141:1236  function getMfgDate() public view returns(string memory)... */\n    tag_3:\n      tag_21\n      tag_22\n      jump\t// in\n    tag_21:\n      mload(0x40)\n      tag_23\n      swap2\n      swap1\n      tag_24\n      jump\t// in\n    tag_23:\n      mload(0x40)\n      dup1\n      swap2\n      sub\n      swap1\n      return\n        /* \"contracts/supply_chain.sol\":1042:1135  function getName() public view returns(string memory)... */\n    tag_4:\n      tag_25\n      tag_26\n      jump\t// in\n    tag_25:\n      mload(0x40)\n      tag_27\n      swap2\n      swap1\n      tag_24\n      jump\t// in\n    tag_27:\n      mload(0x40)\n      dup1\n      swap2\n      sub\n      swap1\n      return\n        /* \"contracts/supply_chain.sol\":1242:1343  function getExpiryDate() public view returns(string memory)... */\n    tag_5:\n      tag_28\n      tag_29\n      jump\t// in\n    tag_28:\n      mload(0x40)\n      tag_30\n      swap2\n      swap1\n      tag_24\n      jump\t// in\n    tag_30:\n      mload(0x40)\n      dup1\n      swap2\n      sub\n      swap1\n      return\n        /* \"contracts/supply_chain.sol\":132:154  string public itemName */\n    tag_6:\n      tag_31\n      tag_32\n      jump\t// in\n    tag_31:\n      mload(0x40)\n      tag_33\n      swap2\n      swap1\n      tag_24\n      jump\t// in\n    tag_33:\n      mload(0x40)\n      dup1\n      swap2\n      sub\n      swap1\n      return\n        /* \"contracts/supply_chain.sol\":189:213  string public expiryDate */\n    tag_7:\n      tag_34\n      tag_35\n      jump\t// in\n    tag_34:\n      mload(0x40)\n      tag_36\n      swap2\n      swap1\n      tag_24\n      jump\t// in\n    tag_36:\n      mload(0x40)\n      dup1\n      swap2\n      sub\n      swap1\n      return\n        /* \"contracts/supply_chain.sol\":746:831  function setMfgDate(string memory date) public... */\n    tag_8:\n      tag_37\n      0x04\n      dup1\n      calldatasize\n      sub\n      dup2\n      add\n      swap1\n      tag_38\n      swap2\n      swap1\n      tag_39\n      jump\t// in\n    tag_38:\n      tag_40\n      jump\t// in\n    tag_37:\n      stop\n        /* \"contracts/supply_chain.sol\":161:182  string public mfgDate */\n    tag_9:\n      tag_41\n      tag_42\n      jump\t// in\n    tag_41:\n      mload(0x40)\n      tag_43\n      swap2\n      swap1\n      tag_24\n      jump\t// in\n    tag_43:\n      mload(0x40)\n      dup1\n      swap2\n      sub\n      swap1\n      return\n        /* \"contracts/supply_chain.sol\":837:929  function setExpiryDate(string memory date) public... */\n    tag_10:\n      tag_44\n      0x04\n      dup1\n      calldatasize\n      sub\n      dup2\n      add\n      swap1\n      tag_45\n      swap2\n      swap1\n      tag_39\n      jump\t// in\n    tag_45:\n      tag_46\n      jump\t// in\n    tag_44:\n      stop\n        /* \"contracts/supply_chain.sol\":220:241  string public batchNo */\n    tag_11:\n      tag_47\n      tag_48\n      jump\t// in\n    tag_47:\n      mload(0x40)\n      tag_49\n      swap2\n      swap1\n      tag_24\n      jump\t// in\n    tag_49:\n      mload(0x40)\n      dup1\n      swap2\n      sub\n      swap1\n      return\n        /* \"contracts/supply_chain.sol\":102:125  string public timestamp */\n    tag_12:\n      tag_50\n      tag_51\n      jump\t// in\n    tag_50:\n      mload(0x40)\n      tag_52\n      swap2\n      swap1\n      tag_24\n      jump\t// in\n    tag_52:\n      mload(0x40)\n      dup1\n      swap2\n      sub\n      swap1\n      return\n        /* \"contracts/supply_chain.sol\":248:272  uint public numberOfItem */\n    tag_13:\n      tag_53\n      tag_54\n      jump\t// in\n    tag_53:\n      mload(0x40)\n      tag_55\n      swap2\n      swap1\n      tag_56\n      jump\t// in\n    tag_55:\n      mload(0x40)\n      dup1\n      swap2\n      sub\n      swap1\n      return\n        /* \"contracts/supply_chain.sol\":937:1036  function getTimeStamp() public view returns(string memory)... */\n    tag_14:\n      tag_57\n      tag_58\n      jump\t// in\n    tag_57:\n      mload(0x40)\n      tag_59\n      swap2\n      swap1\n      tag_24\n      jump\t// in\n    tag_59:\n      mload(0x40)\n      dup1\n      swap2\n      sub\n      swap1\n      return\n        /* \"contracts/supply_chain.sol\":650:740  function setTimeStamp(string memory time) public... */\n    tag_15:\n      tag_60\n      0x04\n      dup1\n      calldatasize\n      sub\n      dup2\n      add\n      swap1\n      tag_61\n      swap2\n      swap1\n      tag_39\n      jump\t// in\n    tag_61:\n      tag_62\n      jump\t// in\n    tag_60:\n      stop\n        /* \"contracts/supply_chain.sol\":1356:1744  function createHash(string memory item_name,string memory time_stamp,string memory mfg_date, string memory expiry_date, string memory batch_no ) public pure returns(bytes32)// allowed only for manufacturer and distributer... */\n    tag_16:\n      tag_63\n      0x04\n      dup1\n      calldatasize\n      sub\n      dup2\n      add\n      swap1\n      tag_64\n      swap2\n      swap1\n      tag_65\n      jump\t// in\n    tag_64:\n      tag_66\n      jump\t// in\n    tag_63:\n      mload(0x40)\n      tag_67\n      swap2\n      swap1\n      tag_68\n      jump\t// in\n    tag_67:\n      mload(0x40)\n      dup1\n      swap2\n      sub\n      swap1\n      return\n        /* \"contracts/supply_chain.sol\":1752:2169  function getEthSignedMessageHash(... */\n    tag_17:\n      tag_69\n      0x04\n      dup1\n      calldatasize\n      sub\n      dup2\n      add\n      swap1\n      tag_70\n      swap2\n      swap1\n      tag_71\n      jump\t// in\n    tag_70:\n      tag_72\n      jump\t// in\n    tag_69:\n      mload(0x40)\n      tag_73\n      swap2\n      swap1\n      tag_68\n      jump\t// in\n    tag_73:\n      mload(0x40)\n      dup1\n      swap2\n      sub\n      swap1\n      return\n        /* \"contracts/supply_chain.sol\":1141:1236  function getMfgDate() public view returns(string memory)... */\n    tag_22:\n        /* \"contracts/supply_chain.sol\":1183:1196  string memory */\n      0x60\n        /* \"contracts/supply_chain.sol\":1221:1228  mfgDate */\n      0x02\n        /* \"contracts/supply_chain.sol\":1214:1228  return mfgDate */\n      dup1\n      sload\n      tag_75\n      swap1\n      tag_76\n      jump\t// in\n    tag_75:\n      dup1\n      0x1f\n      add\n      0x20\n      dup1\n      swap2\n      div\n      mul\n      0x20\n      add\n      mload(0x40)\n      swap1\n      dup2\n      add\n      0x40\n      mstore\n      dup1\n      swap3\n      swap2\n      swap1\n      dup2\n      dup2\n      mstore\n      0x20\n      add\n      dup3\n      dup1\n      sload\n      tag_77\n      swap1\n      tag_76\n      jump\t// in\n    tag_77:\n      dup1\n      iszero\n      tag_78\n      jumpi\n      dup1\n      0x1f\n      lt\n      tag_79\n      jumpi\n      0x0100\n      dup1\n      dup4\n      sload\n      div\n      mul\n      dup4\n      mstore\n      swap2\n      0x20\n      add\n      swap2\n      jump(tag_78)\n    tag_79:\n      dup3\n      add\n      swap2\n      swap1\n      0x00\n      mstore\n      keccak256(0x00, 0x20)\n      swap1\n    tag_80:\n      dup2\n      sload\n      dup2\n      mstore\n      swap1\n      0x01\n      add\n      swap1\n      0x20\n      add\n      dup1\n      dup4\n      gt\n      tag_80\n      jumpi\n      dup3\n      swap1\n      sub\n      0x1f\n      and\n      dup3\n      add\n      swap2\n    tag_78:\n      pop\n      pop\n      pop\n      pop\n      pop\n      swap1\n      pop\n        /* \"contracts/supply_chain.sol\":1141:1236  function getMfgDate() public view returns(string memory)... */\n      swap1\n      jump\t// out\n        /* \"contracts/supply_chain.sol\":1042:1135  function getName() public view returns(string memory)... */\n    tag_26:\n        /* \"contracts/supply_chain.sol\":1081:1094  string memory */\n      0x60\n        /* \"contracts/supply_chain.sol\":1119:1127  itemName */\n      0x01\n        /* \"contracts/supply_chain.sol\":1112:1127  return itemName */\n      dup1\n      sload\n      tag_82\n      swap1\n      tag_76\n      jump\t// in\n    tag_82:\n      dup1\n      0x1f\n      add\n      0x20\n      dup1\n      swap2\n      div\n      mul\n      0x20\n      add\n      mload(0x40)\n      swap1\n      dup2\n      add\n      0x40\n      mstore\n      dup1\n      swap3\n      swap2\n      swap1\n      dup2\n      dup2\n      mstore\n      0x20\n      add\n      dup3\n      dup1\n      sload\n      tag_83\n      swap1\n      tag_76\n      jump\t// in\n    tag_83:\n      dup1\n      iszero\n      tag_84\n      jumpi\n      dup1\n      0x1f\n      lt\n      tag_85\n      jumpi\n      0x0100\n      dup1\n      dup4\n      sload\n      div\n      mul\n      dup4\n      mstore\n      swap2\n      0x20\n      add\n      swap2\n      jump(tag_84)\n    tag_85:\n      dup3\n      add\n      swap2\n      swap1\n      0x00\n      mstore\n      keccak256(0x00, 0x20)\n      swap1\n    tag_86:\n      dup2\n      sload\n      dup2\n      mstore\n      swap1\n      0x01\n      add\n      swap1\n      0x20\n      add\n      dup1\n      dup4\n      gt\n      tag_86\n      jumpi\n      dup3\n      swap1\n      sub\n      0x1f\n      and\n      dup3\n      add\n      swap2\n    tag_84:\n      pop\n      pop\n      pop\n      pop\n      pop\n      swap1\n      pop\n        /* \"contracts/supply_chain.sol\":1042:1135  function getName() public view returns(string memory)... */\n      swap1\n      jump\t// out\n        /* \"contracts/supply_chain.sol\":1242:1343  function getExpiryDate() public view returns(string memory)... */\n    tag_29:\n        /* \"contracts/supply_chain.sol\":1287:1300  string memory */\n      0x60\n        /* \"contracts/supply_chain.sol\":1325:1335  expiryDate */\n      0x03\n        /* \"contracts/supply_chain.sol\":1318:1335  return expiryDate */\n      dup1\n      sload\n      tag_88\n      swap1\n      tag_76\n      jump\t// in\n    tag_88:\n      dup1\n      0x1f\n      add\n      0x20\n      dup1\n      swap2\n      div\n      mul\n      0x20\n      add\n      mload(0x40)\n      swap1\n      dup2\n      add\n      0x40\n      mstore\n      dup1\n      swap3\n      swap2\n      swap1\n      dup2\n      dup2\n      mstore\n      0x20\n      add\n      dup3\n      dup1\n      sload\n      tag_89\n      swap1\n      tag_76\n      jump\t// in\n    tag_89:\n      dup1\n      iszero\n      tag_90\n      jumpi\n      dup1\n      0x1f\n      lt\n      tag_91\n      jumpi\n      0x0100\n      dup1\n      dup4\n      sload\n      div\n      mul\n      dup4\n      mstore\n      swap2\n      0x20\n      add\n      swap2\n      jump(tag_90)\n    tag_91:\n      dup3\n      add\n      swap2\n      swap1\n      0x00\n      mstore\n      keccak256(0x00, 0x20)\n      swap1\n    tag_92:\n      dup2\n      sload\n      dup2\n      mstore\n      swap1\n      0x01\n      add\n      swap1\n      0x20\n      add\n      dup1\n      dup4\n      gt\n      tag_92\n      jumpi\n      dup3\n      swap1\n      sub\n      0x1f\n      and\n      dup3\n      add\n      swap2\n    tag_90:\n      pop\n      pop\n      pop\n      pop\n      pop\n      swap1\n      pop\n        /* \"contracts/supply_chain.sol\":1242:1343  function getExpiryDate() public view returns(string memory)... */\n      swap1\n      jump\t// out\n        /* \"contracts/supply_chain.sol\":132:154  string public itemName */\n    tag_32:\n      0x01\n      dup1\n      sload\n      tag_93\n      swap1\n      tag_76\n      jump\t// in\n    tag_93:\n      dup1\n      0x1f\n      add\n      0x20\n      dup1\n      swap2\n      div\n      mul\n      0x20\n      add\n      mload(0x40)\n      swap1\n      dup2\n      add\n      0x40\n      mstore\n      dup1\n      swap3\n      swap2\n      swap1\n      dup2\n      dup2\n      mstore\n      0x20\n      add\n      dup3\n      dup1\n      sload\n      tag_94\n      swap1\n      tag_76\n      jump\t// in\n    tag_94:\n      dup1\n      iszero\n      tag_95\n      jumpi\n      dup1\n      0x1f\n      lt\n      tag_96\n      jumpi\n      0x0100\n      dup1\n      dup4\n      sload\n      div\n      mul\n      dup4\n      mstore\n      swap2\n      0x20\n      add\n      swap2\n      jump(tag_95)\n    tag_96:\n      dup3\n      add\n      swap2\n      swap1\n      0x00\n      mstore\n      keccak256(0x00, 0x20)\n      swap1\n    tag_97:\n      dup2\n      sload\n      dup2\n      mstore\n      swap1\n      0x01\n      add\n      swap1\n      0x20\n      add\n      dup1\n      dup4\n      gt\n      tag_97\n      jumpi\n      dup3\n      swap1\n      sub\n      0x1f\n      and\n      dup3\n      add\n      swap2\n    tag_95:\n      pop\n      pop\n      pop\n      pop\n      pop\n      dup2\n      jump\t// out\n        /* \"contracts/supply_chain.sol\":189:213  string public expiryDate */\n    tag_35:\n      0x03\n      dup1\n      sload\n      tag_98\n      swap1\n      tag_76\n      jump\t// in\n    tag_98:\n      dup1\n      0x1f\n      add\n      0x20\n      dup1\n      swap2\n      div\n      mul\n      0x20\n      add\n      mload(0x40)\n      swap1\n      dup2\n      add\n      0x40\n      mstore\n      dup1\n      swap3\n      swap2\n      swap1\n      dup2\n      dup2\n      mstore\n      0x20\n      add\n      dup3\n      dup1\n      sload\n      tag_99\n      swap1\n      tag_76\n      jump\t// in\n    tag_99:\n      dup1\n      iszero\n      tag_100\n      jumpi\n      dup1\n      0x1f\n      lt\n      tag_101\n      jumpi\n      0x0100\n      dup1\n      dup4\n      sload\n      div\n      mul\n      dup4\n      mstore\n      swap2\n      0x20\n      add\n      swap2\n      jump(tag_100)\n    tag_101:\n      dup3\n      add\n      swap2\n      swap1\n      0x00\n      mstore\n      keccak256(0x00, 0x20)\n      swap1\n    tag_102:\n      dup2\n      sload\n      dup2\n      mstore\n      swap1\n      0x01\n      add\n      swap1\n      0x20\n      add\n      dup1\n      dup4\n      gt\n      tag_102\n      jumpi\n      dup3\n      swap1\n      sub\n      0x1f\n      and\n      dup3\n      add\n      swap2\n    tag_100:\n      pop\n      pop\n      pop\n      pop\n      pop\n      dup2\n      jump\t// out\n        /* \"contracts/supply_chain.sol\":746:831  function setMfgDate(string memory date) public... */\n    tag_40:\n        /* \"contracts/supply_chain.sol\":819:823  date */\n      dup1\n        /* \"contracts/supply_chain.sol\":809:816  mfgDate */\n      0x02\n        /* \"contracts/supply_chain.sol\":809:823  mfgDate = date */\n      swap1\n      dup2\n      tag_104\n      swap2\n      swap1\n      tag_105\n      jump\t// in\n    tag_104:\n      pop\n        /* \"contracts/supply_chain.sol\":746:831  function setMfgDate(string memory date) public... */\n      pop\n      jump\t// out\n        /* \"contracts/supply_chain.sol\":161:182  string public mfgDate */\n    tag_42:\n      0x02\n      dup1\n      sload\n      tag_106\n      swap1\n      tag_76\n      jump\t// in\n    tag_106:\n      dup1\n      0x1f\n      add\n      0x20\n      dup1\n      swap2\n      div\n      mul\n      0x20\n      add\n      mload(0x40)\n      swap1\n      dup2\n      add\n      0x40\n      mstore\n      dup1\n      swap3\n      swap2\n      swap1\n      dup2\n      dup2\n      mstore\n      0x20\n      add\n      dup3\n      dup1\n      sload\n      tag_107\n      swap1\n      tag_76\n      jump\t// in\n    tag_107:\n      dup1\n      iszero\n      tag_108\n      jumpi\n      dup1\n      0x1f\n      lt\n      tag_109\n      jumpi\n      0x0100\n      dup1\n      dup4\n      sload\n      div\n      mul\n      dup4\n      mstore\n      swap2\n      0x20\n      add\n      swap2\n      jump(tag_108)\n    tag_109:\n      dup3\n      add\n      swap2\n      swap1\n      0x00\n      mstore\n      keccak256(0x00, 0x20)\n      swap1\n    tag_110:\n      dup2\n      sload\n      dup2\n      mstore\n      swap1\n      0x01\n      add\n      swap1\n      0x20\n      add\n      dup1\n      dup4\n      gt\n      tag_110\n      jumpi\n      dup3\n      swap1\n      sub\n      0x1f\n      and\n      dup3\n      add\n      swap2\n    tag_108:\n      pop\n      pop\n      pop\n      pop\n      pop\n      dup2\n      jump\t// out\n        /* \"contracts/supply_chain.sol\":837:929  function setExpiryDate(string memory date) public... */\n    tag_46:\n        /* \"contracts/supply_chain.sol\":917:921  date */\n      dup1\n        /* \"contracts/supply_chain.sol\":903:913  expiryDate */\n      0x03\n        /* \"contracts/supply_chain.sol\":903:921  expiryDate  = date */\n      swap1\n      dup2\n      tag_112\n      swap2\n      swap1\n      tag_105\n      jump\t// in\n    tag_112:\n      pop\n        /* \"contracts/supply_chain.sol\":837:929  function setExpiryDate(string memory date) public... */\n      pop\n      jump\t// out\n        /* \"contracts/supply_chain.sol\":220:241  string public batchNo */\n    tag_48:\n      0x04\n      dup1\n      sload\n      tag_113\n      swap1\n      tag_76\n      jump\t// in\n    tag_113:\n      dup1\n      0x1f\n      add\n      0x20\n      dup1\n      swap2\n      div\n      mul\n      0x20\n      add\n      mload(0x40)\n      swap1\n      dup2\n      add\n      0x40\n      mstore\n      dup1\n      swap3\n      swap2\n      swap1\n      dup2\n      dup2\n      mstore\n      0x20\n      add\n      dup3\n      dup1\n      sload\n      tag_114\n      swap1\n      tag_76\n      jump\t// in\n    tag_114:\n      dup1\n      iszero\n      tag_115\n      jumpi\n      dup1\n      0x1f\n      lt\n      tag_116\n      jumpi\n      0x0100\n      dup1\n      dup4\n      sload\n      div\n      mul\n      dup4\n      mstore\n      swap2\n      0x20\n      add\n      swap2\n      jump(tag_115)\n    tag_116:\n      dup3\n      add\n      swap2\n      swap1\n      0x00\n      mstore\n      keccak256(0x00, 0x20)\n      swap1\n    tag_117:\n      dup2\n      sload\n      dup2\n      mstore\n      swap1\n      0x01\n      add\n      swap1\n      0x20\n      add\n      dup1\n      dup4\n      gt\n      tag_117\n      jumpi\n      dup3\n      swap1\n      sub\n      0x1f\n      and\n      dup3\n      add\n      swap2\n    tag_115:\n      pop\n      pop\n      pop\n      pop\n      pop\n      dup2\n      jump\t// out\n        /* \"contracts/supply_chain.sol\":102:125  string public timestamp */\n    tag_51:\n      0x00\n      dup1\n      sload\n      tag_118\n      swap1\n      tag_76\n      jump\t// in\n    tag_118:\n      dup1\n      0x1f\n      add\n      0x20\n      dup1\n      swap2\n      div\n      mul\n      0x20\n      add\n      mload(0x40)\n      swap1\n      dup2\n      add\n      0x40\n      mstore\n      dup1\n      swap3\n      swap2\n      swap1\n      dup2\n      dup2\n      mstore\n      0x20\n      add\n      dup3\n      dup1\n      sload\n      tag_119\n      swap1\n      tag_76\n      jump\t// in\n    tag_119:\n      dup1\n      iszero\n      tag_120\n      jumpi\n      dup1\n      0x1f\n      lt\n      tag_121\n      jumpi\n      0x0100\n      dup1\n      dup4\n      sload\n      div\n      mul\n      dup4\n      mstore\n      swap2\n      0x20\n      add\n      swap2\n      jump(tag_120)\n    tag_121:\n      dup3\n      add\n      swap2\n      swap1\n      0x00\n      mstore\n      keccak256(0x00, 0x20)\n      swap1\n    tag_122:\n      dup2\n      sload\n      dup2\n      mstore\n      swap1\n      0x01\n      add\n      swap1\n      0x20\n      add\n      dup1\n      dup4\n      gt\n      tag_122\n      jumpi\n      dup3\n      swap1\n      sub\n      0x1f\n      and\n      dup3\n      add\n      swap2\n    tag_120:\n      pop\n      pop\n      pop\n      pop\n      pop\n      dup2\n      jump\t// out\n        /* \"contracts/supply_chain.sol\":248:272  uint public numberOfItem */\n    tag_54:\n      sload(0x05)\n      dup2\n      jump\t// out\n        /* \"contracts/supply_chain.sol\":937:1036  function getTimeStamp() public view returns(string memory)... */\n    tag_58:\n        /* \"contracts/supply_chain.sol\":981:994  string memory */\n      0x60\n        /* \"contracts/supply_chain.sol\":1019:1028  timestamp */\n      0x00\n        /* \"contracts/supply_chain.sol\":1012:1028  return timestamp */\n      dup1\n      sload\n      tag_124\n      swap1\n      tag_76\n      jump\t// in\n    tag_124:\n      dup1\n      0x1f\n      add\n      0x20\n      dup1\n      swap2\n      div\n      mul\n      0x20\n      add\n      mload(0x40)\n      swap1\n      dup2\n      add\n      0x40\n      mstore\n      dup1\n      swap3\n      swap2\n      swap1\n      dup2\n      dup2\n      mstore\n      0x20\n      add\n      dup3\n      dup1\n      sload\n      tag_125\n      swap1\n      tag_76\n      jump\t// in\n    tag_125:\n      dup1\n      iszero\n      tag_126\n      jumpi\n      dup1\n      0x1f\n      lt\n      tag_127\n      jumpi\n      0x0100\n      dup1\n      dup4\n      sload\n      div\n      mul\n      dup4\n      mstore\n      swap2\n      0x20\n      add\n      swap2\n      jump(tag_126)\n    tag_127:\n      dup3\n      add\n      swap2\n      swap1\n      0x00\n      mstore\n      keccak256(0x00, 0x20)\n      swap1\n    tag_128:\n      dup2\n      sload\n      dup2\n      mstore\n      swap1\n      0x01\n      add\n      swap1\n      0x20\n      add\n      dup1\n      dup4\n      gt\n      tag_128\n      jumpi\n      dup3\n      swap1\n      sub\n      0x1f\n      and\n      dup3\n      add\n      swap2\n    tag_126:\n      pop\n      pop\n      pop\n      pop\n      pop\n      swap1\n      pop\n        /* \"contracts/supply_chain.sol\":937:1036  function getTimeStamp() public view returns(string memory)... */\n      swap1\n      jump\t// out\n        /* \"contracts/supply_chain.sol\":650:740  function setTimeStamp(string memory time) public... */\n    tag_62:\n        /* \"contracts/supply_chain.sol\":728:732  time */\n      dup1\n        /* \"contracts/supply_chain.sol\":715:724  timestamp */\n      0x00\n        /* \"contracts/supply_chain.sol\":715:732  timestamp  = time */\n      swap1\n      dup2\n      tag_130\n      swap2\n      swap1\n      tag_105\n      jump\t// in\n    tag_130:\n      pop\n        /* \"contracts/supply_chain.sol\":650:740  function setTimeStamp(string memory time) public... */\n      pop\n      jump\t// out\n        /* \"contracts/supply_chain.sol\":1356:1744  function createHash(string memory item_name,string memory time_stamp,string memory mfg_date, string memory expiry_date, string memory batch_no ) public pure returns(bytes32)// allowed only for manufacturer and distributer... */\n    tag_66:\n        /* \"contracts/supply_chain.sol\":1521:1528  bytes32 */\n      0x00\n        /* \"contracts/supply_chain.sol\":1594:1607  bytes32 hash1 */\n      dup1\n        /* \"contracts/supply_chain.sol\":1631:1640  item_name */\n      dup7\n        /* \"contracts/supply_chain.sol\":1641:1651  time_stamp */\n      dup7\n        /* \"contracts/supply_chain.sol\":1652:1660  mfg_date */\n      dup7\n        /* \"contracts/supply_chain.sol\":1662:1673  expiry_date */\n      dup7\n        /* \"contracts/supply_chain.sol\":1675:1683  batch_no */\n      dup7\n        /* \"contracts/supply_chain.sol\":1620:1685  abi.encode(item_name,time_stamp,mfg_date, expiry_date, batch_no ) */\n      add(0x20, mload(0x40))\n      tag_132\n      swap6\n      swap5\n      swap4\n      swap3\n      swap2\n      swap1\n      tag_133\n      jump\t// in\n    tag_132:\n      mload(0x40)\n      0x20\n      dup2\n      dup4\n      sub\n      sub\n      dup2\n      mstore\n      swap1\n      0x40\n      mstore\n        /* \"contracts/supply_chain.sol\":1610:1686  keccak256(abi.encode(item_name,time_stamp,mfg_date, expiry_date, batch_no )) */\n      dup1\n      mload\n      swap1\n      0x20\n      add\n      keccak256\n        /* \"contracts/supply_chain.sol\":1594:1686  bytes32 hash1 = keccak256(abi.encode(item_name,time_stamp,mfg_date, expiry_date, batch_no )) */\n      swap1\n      pop\n        /* \"contracts/supply_chain.sol\":1704:1734  getEthSignedMessageHash(hash1) */\n      tag_134\n        /* \"contracts/supply_chain.sol\":1728:1733  hash1 */\n      dup2\n        /* \"contracts/supply_chain.sol\":1704:1727  getEthSignedMessageHash */\n      tag_72\n        /* \"contracts/supply_chain.sol\":1704:1734  getEthSignedMessageHash(hash1) */\n      jump\t// in\n    tag_134:\n        /* \"contracts/supply_chain.sol\":1697:1734  return getEthSignedMessageHash(hash1) */\n      swap2\n      pop\n      pop\n        /* \"contracts/supply_chain.sol\":1356:1744  function createHash(string memory item_name,string memory time_stamp,string memory mfg_date, string memory expiry_date, string memory batch_no ) public pure returns(bytes32)// allowed only for manufacturer and distributer... */\n      swap6\n      swap5\n      pop\n      pop\n      pop\n      pop\n      pop\n      jump\t// out\n        /* \"contracts/supply_chain.sol\":1752:2169  function getEthSignedMessageHash(... */\n    tag_72:\n        /* \"contracts/supply_chain.sol\":1844:1851  bytes32 */\n      0x00\n        /* \"contracts/supply_chain.sol\":2133:2145  _messageHash */\n      dup2\n        /* \"contracts/supply_chain.sol\":2080:2146  abi.encodePacked(\"\\x19Ethereum Signed Message:\\n32\", _messageHash) */\n      add(0x20, mload(0x40))\n      tag_136\n      swap2\n      swap1\n      tag_137\n      jump\t// in\n    tag_136:\n      mload(0x40)\n      0x20\n      dup2\n      dup4\n      sub\n      sub\n      dup2\n      mstore\n      swap1\n      0x40\n      mstore\n        /* \"contracts/supply_chain.sol\":2052:2161  keccak256(... */\n      dup1\n      mload\n      swap1\n      0x20\n      add\n      keccak256\n        /* \"contracts/supply_chain.sol\":2032:2161  return... */\n      swap1\n      pop\n        /* \"contracts/supply_chain.sol\":1752:2169  function getEthSignedMessageHash(... */\n      swap2\n      swap1\n      pop\n      jump\t// out\n        /* \"#utility.yul\":7:106   */\n    tag_138:\n        /* \"#utility.yul\":59:65   */\n      0x00\n        /* \"#utility.yul\":93:98   */\n      dup2\n        /* \"#utility.yul\":87:99   */\n      mload\n        /* \"#utility.yul\":77:99   */\n      swap1\n      pop\n        /* \"#utility.yul\":7:106   */\n      swap2\n      swap1\n      pop\n      jump\t// out\n        /* \"#utility.yul\":112:281   */\n    tag_139:\n        /* \"#utility.yul\":196:207   */\n      0x00\n        /* \"#utility.yul\":230:236   */\n      dup3\n        /* \"#utility.yul\":225:228   */\n      dup3\n        /* \"#utility.yul\":218:237   */\n      mstore\n        /* \"#utility.yul\":270:274   */\n      0x20\n        /* \"#utility.yul\":265:268   */\n      dup3\n        /* \"#utility.yul\":261:275   */\n      add\n        /* \"#utility.yul\":246:275   */\n      swap1\n      pop\n        /* \"#utility.yul\":112:281   */\n      swap3\n      swap2\n      pop\n      pop\n      jump\t// out\n        /* \"#utility.yul\":287:533   */\n    tag_140:\n        /* \"#utility.yul\":368:369   */\n      0x00\n        /* \"#utility.yul\":378:491   */\n    tag_186:\n        /* \"#utility.yul\":392:398   */\n      dup4\n        /* \"#utility.yul\":389:390   */\n      dup2\n        /* \"#utility.yul\":386:399   */\n      lt\n        /* \"#utility.yul\":378:491   */\n      iszero\n      tag_188\n      jumpi\n        /* \"#utility.yul\":477:478   */\n      dup1\n        /* \"#utility.yul\":472:475   */\n      dup3\n        /* \"#utility.yul\":468:479   */\n      add\n        /* \"#utility.yul\":462:480   */\n      mload\n        /* \"#utility.yul\":458:459   */\n      dup2\n        /* \"#utility.yul\":453:456   */\n      dup5\n        /* \"#utility.yul\":449:460   */\n      add\n        /* \"#utility.yul\":442:481   */\n      mstore\n        /* \"#utility.yul\":414:416   */\n      0x20\n        /* \"#utility.yul\":411:412   */\n      dup2\n        /* \"#utility.yul\":407:417   */\n      add\n        /* \"#utility.yul\":402:417   */\n      swap1\n      pop\n        /* \"#utility.yul\":378:491   */\n      jump(tag_186)\n    tag_188:\n        /* \"#utility.yul\":525:526   */\n      0x00\n        /* \"#utility.yul\":516:522   */\n      dup5\n        /* \"#utility.yul\":511:514   */\n      dup5\n        /* \"#utility.yul\":507:523   */\n      add\n        /* \"#utility.yul\":500:527   */\n      mstore\n        /* \"#utility.yul\":349:533   */\n      pop\n        /* \"#utility.yul\":287:533   */\n      pop\n      pop\n      pop\n      jump\t// out\n        /* \"#utility.yul\":539:641   */\n    tag_141:\n        /* \"#utility.yul\":580:586   */\n      0x00\n        /* \"#utility.yul\":631:633   */\n      0x1f\n        /* \"#utility.yul\":627:634   */\n      not\n        /* \"#utility.yul\":622:624   */\n      0x1f\n        /* \"#utility.yul\":615:620   */\n      dup4\n        /* \"#utility.yul\":611:625   */\n      add\n        /* \"#utility.yul\":607:635   */\n      and\n        /* \"#utility.yul\":597:635   */\n      swap1\n      pop\n        /* \"#utility.yul\":539:641   */\n      swap2\n      swap1\n      pop\n      jump\t// out\n        /* \"#utility.yul\":647:1024   */\n    tag_142:\n        /* \"#utility.yul\":735:738   */\n      0x00\n        /* \"#utility.yul\":763:802   */\n      tag_191\n        /* \"#utility.yul\":796:801   */\n      dup3\n        /* \"#utility.yul\":763:802   */\n      tag_138\n      jump\t// in\n    tag_191:\n        /* \"#utility.yul\":818:889   */\n      tag_192\n        /* \"#utility.yul\":882:888   */\n      dup2\n        /* \"#utility.yul\":877:880   */\n      dup6\n        /* \"#utility.yul\":818:889   */\n      tag_139\n      jump\t// in\n    tag_192:\n        /* \"#utility.yul\":811:889   */\n      swap4\n      pop\n        /* \"#utility.yul\":898:963   */\n      tag_193\n        /* \"#utility.yul\":956:962   */\n      dup2\n        /* \"#utility.yul\":951:954   */\n      dup6\n        /* \"#utility.yul\":944:948   */\n      0x20\n        /* \"#utility.yul\":937:942   */\n      dup7\n        /* \"#utility.yul\":933:949   */\n      add\n        /* \"#utility.yul\":898:963   */\n      tag_140\n      jump\t// in\n    tag_193:\n        /* \"#utility.yul\":988:1017   */\n      tag_194\n        /* \"#utility.yul\":1010:1016   */\n      dup2\n        /* \"#utility.yul\":988:1017   */\n      tag_141\n      jump\t// in\n    tag_194:\n        /* \"#utility.yul\":983:986   */\n      dup5\n        /* \"#utility.yul\":979:1018   */\n      add\n        /* \"#utility.yul\":972:1018   */\n      swap2\n      pop\n        /* \"#utility.yul\":739:1024   */\n      pop\n        /* \"#utility.yul\":647:1024   */\n      swap3\n      swap2\n      pop\n      pop\n      jump\t// out\n        /* \"#utility.yul\":1030:1343   */\n    tag_24:\n        /* \"#utility.yul\":1143:1147   */\n      0x00\n        /* \"#utility.yul\":1181:1183   */\n      0x20\n        /* \"#utility.yul\":1170:1179   */\n      dup3\n        /* \"#utility.yul\":1166:1184   */\n      add\n        /* \"#utility.yul\":1158:1184   */\n      swap1\n      pop\n        /* \"#utility.yul\":1230:1239   */\n      dup2\n        /* \"#utility.yul\":1224:1228   */\n      dup2\n        /* \"#utility.yul\":1220:1240   */\n      sub\n        /* \"#utility.yul\":1216:1217   */\n      0x00\n        /* \"#utility.yul\":1205:1214   */\n      dup4\n        /* \"#utility.yul\":1201:1218   */\n      add\n        /* \"#utility.yul\":1194:1241   */\n      mstore\n        /* \"#utility.yul\":1258:1336   */\n      tag_196\n        /* \"#utility.yul\":1331:1335   */\n      dup2\n        /* \"#utility.yul\":1322:1328   */\n      dup5\n        /* \"#utility.yul\":1258:1336   */\n      tag_142\n      jump\t// in\n    tag_196:\n        /* \"#utility.yul\":1250:1336   */\n      swap1\n      pop\n        /* \"#utility.yul\":1030:1343   */\n      swap3\n      swap2\n      pop\n      pop\n      jump\t// out\n        /* \"#utility.yul\":1349:1424   */\n    tag_143:\n        /* \"#utility.yul\":1382:1388   */\n      0x00\n        /* \"#utility.yul\":1415:1417   */\n      0x40\n        /* \"#utility.yul\":1409:1418   */\n      mload\n        /* \"#utility.yul\":1399:1418   */\n      swap1\n      pop\n        /* \"#utility.yul\":1349:1424   */\n      swap1\n      jump\t// out\n        /* \"#utility.yul\":1430:1547   */\n    tag_144:\n        /* \"#utility.yul\":1539:1540   */\n      0x00\n        /* \"#utility.yul\":1536:1537   */\n      dup1\n        /* \"#utility.yul\":1529:1541   */\n      revert\n        /* \"#utility.yul\":1553:1670   */\n    tag_145:\n        /* \"#utility.yul\":1662:1663   */\n      0x00\n        /* \"#utility.yul\":1659:1660   */\n      dup1\n        /* \"#utility.yul\":1652:1664   */\n      revert\n        /* \"#utility.yul\":1676:1793   */\n    tag_146:\n        /* \"#utility.yul\":1785:1786   */\n      0x00\n        /* \"#utility.yul\":1782:1783   */\n      dup1\n        /* \"#utility.yul\":1775:1787   */\n      revert\n        /* \"#utility.yul\":1799:1916   */\n    tag_147:\n        /* \"#utility.yul\":1908:1909   */\n      0x00\n        /* \"#utility.yul\":1905:1906   */\n      dup1\n        /* \"#utility.yul\":1898:1910   */\n      revert\n        /* \"#utility.yul\":1922:2102   */\n    tag_148:\n        /* \"#utility.yul\":1970:2047   */\n      0x4e487b7100000000000000000000000000000000000000000000000000000000\n        /* \"#utility.yul\":1967:1968   */\n      0x00\n        /* \"#utility.yul\":1960:2048   */\n      mstore\n        /* \"#utility.yul\":2067:2071   */\n      0x41\n        /* \"#utility.yul\":2064:2065   */\n      0x04\n        /* \"#utility.yul\":2057:2072   */\n      mstore\n        /* \"#utility.yul\":2091:2095   */\n      0x24\n        /* \"#utility.yul\":2088:2089   */\n      0x00\n        /* \"#utility.yul\":2081:2096   */\n      revert\n        /* \"#utility.yul\":2108:2389   */\n    tag_149:\n        /* \"#utility.yul\":2191:2218   */\n      tag_204\n        /* \"#utility.yul\":2213:2217   */\n      dup3\n        /* \"#utility.yul\":2191:2218   */\n      tag_141\n      jump\t// in\n    tag_204:\n        /* \"#utility.yul\":2183:2189   */\n      dup2\n        /* \"#utility.yul\":2179:2219   */\n      add\n        /* \"#utility.yul\":2321:2327   */\n      dup2\n        /* \"#utility.yul\":2309:2319   */\n      dup2\n        /* \"#utility.yul\":2306:2328   */\n      lt\n        /* \"#utility.yul\":2285:2303   */\n      0xffffffffffffffff\n        /* \"#utility.yul\":2273:2283   */\n      dup3\n        /* \"#utility.yul\":2270:2304   */\n      gt\n        /* \"#utility.yul\":2267:2329   */\n      or\n        /* \"#utility.yul\":2264:2352   */\n      iszero\n      tag_205\n      jumpi\n        /* \"#utility.yul\":2332:2350   */\n      tag_206\n      tag_148\n      jump\t// in\n    tag_206:\n        /* \"#utility.yul\":2264:2352   */\n    tag_205:\n        /* \"#utility.yul\":2372:2382   */\n      dup1\n        /* \"#utility.yul\":2368:2370   */\n      0x40\n        /* \"#utility.yul\":2361:2383   */\n      mstore\n        /* \"#utility.yul\":2151:2389   */\n      pop\n        /* \"#utility.yul\":2108:2389   */\n      pop\n      pop\n      jump\t// out\n        /* \"#utility.yul\":2395:2524   */\n    tag_150:\n        /* \"#utility.yul\":2429:2435   */\n      0x00\n        /* \"#utility.yul\":2456:2476   */\n      tag_208\n      tag_143\n      jump\t// in\n    tag_208:\n        /* \"#utility.yul\":2446:2476   */\n      swap1\n      pop\n        /* \"#utility.yul\":2485:2518   */\n      tag_209\n        /* \"#utility.yul\":2513:2517   */\n      dup3\n        /* \"#utility.yul\":2505:2511   */\n      dup3\n        /* \"#utility.yul\":2485:2518   */\n      tag_149\n      jump\t// in\n    tag_209:\n        /* \"#utility.yul\":2395:2524   */\n      swap2\n      swap1\n      pop\n      jump\t// out\n        /* \"#utility.yul\":2530:2838   */\n    tag_151:\n        /* \"#utility.yul\":2592:2596   */\n      0x00\n        /* \"#utility.yul\":2682:2700   */\n      0xffffffffffffffff\n        /* \"#utility.yul\":2674:2680   */\n      dup3\n        /* \"#utility.yul\":2671:2701   */\n      gt\n        /* \"#utility.yul\":2668:2724   */\n      iszero\n      tag_211\n      jumpi\n        /* \"#utility.yul\":2704:2722   */\n      tag_212\n      tag_148\n      jump\t// in\n    tag_212:\n        /* \"#utility.yul\":2668:2724   */\n    tag_211:\n        /* \"#utility.yul\":2742:2771   */\n      tag_213\n        /* \"#utility.yul\":2764:2770   */\n      dup3\n        /* \"#utility.yul\":2742:2771   */\n      tag_141\n      jump\t// in\n    tag_213:\n        /* \"#utility.yul\":2734:2771   */\n      swap1\n      pop\n        /* \"#utility.yul\":2826:2830   */\n      0x20\n        /* \"#utility.yul\":2820:2824   */\n      dup2\n        /* \"#utility.yul\":2816:2831   */\n      add\n        /* \"#utility.yul\":2808:2831   */\n      swap1\n      pop\n        /* \"#utility.yul\":2530:2838   */\n      swap2\n      swap1\n      pop\n      jump\t// out\n        /* \"#utility.yul\":2844:2990   */\n    tag_152:\n        /* \"#utility.yul\":2941:2947   */\n      dup3\n        /* \"#utility.yul\":2936:2939   */\n      dup2\n        /* \"#utility.yul\":2931:2934   */\n      dup4\n        /* \"#utility.yul\":2918:2948   */\n      calldatacopy\n        /* \"#utility.yul\":2982:2983   */\n      0x00\n        /* \"#utility.yul\":2973:2979   */\n      dup4\n        /* \"#utility.yul\":2968:2971   */\n      dup4\n        /* \"#utility.yul\":2964:2980   */\n      add\n        /* \"#utility.yul\":2957:2984   */\n      mstore\n        /* \"#utility.yul\":2844:2990   */\n      pop\n      pop\n      pop\n      jump\t// out\n        /* \"#utility.yul\":2996:3421   */\n    tag_153:\n        /* \"#utility.yul\":3074:3079   */\n      0x00\n        /* \"#utility.yul\":3099:3165   */\n      tag_216\n        /* \"#utility.yul\":3115:3164   */\n      tag_217\n        /* \"#utility.yul\":3157:3163   */\n      dup5\n        /* \"#utility.yul\":3115:3164   */\n      tag_151\n      jump\t// in\n    tag_217:\n        /* \"#utility.yul\":3099:3165   */\n      tag_150\n      jump\t// in\n    tag_216:\n        /* \"#utility.yul\":3090:3165   */\n      swap1\n      pop\n        /* \"#utility.yul\":3188:3194   */\n      dup3\n        /* \"#utility.yul\":3181:3186   */\n      dup2\n        /* \"#utility.yul\":3174:3195   */\n      mstore\n        /* \"#utility.yul\":3226:3230   */\n      0x20\n        /* \"#utility.yul\":3219:3224   */\n      dup2\n        /* \"#utility.yul\":3215:3231   */\n      add\n        /* \"#utility.yul\":3264:3267   */\n      dup5\n        /* \"#utility.yul\":3255:3261   */\n      dup5\n        /* \"#utility.yul\":3250:3253   */\n      dup5\n        /* \"#utility.yul\":3246:3262   */\n      add\n        /* \"#utility.yul\":3243:3268   */\n      gt\n        /* \"#utility.yul\":3240:3352   */\n      iszero\n      tag_218\n      jumpi\n        /* \"#utility.yul\":3271:3350   */\n      tag_219\n      tag_147\n      jump\t// in\n    tag_219:\n        /* \"#utility.yul\":3240:3352   */\n    tag_218:\n        /* \"#utility.yul\":3361:3415   */\n      tag_220\n        /* \"#utility.yul\":3408:3414   */\n      dup5\n        /* \"#utility.yul\":3403:3406   */\n      dup3\n        /* \"#utility.yul\":3398:3401   */\n      dup6\n        /* \"#utility.yul\":3361:3415   */\n      tag_152\n      jump\t// in\n    tag_220:\n        /* \"#utility.yul\":3080:3421   */\n      pop\n        /* \"#utility.yul\":2996:3421   */\n      swap4\n      swap3\n      pop\n      pop\n      pop\n      jump\t// out\n        /* \"#utility.yul\":3441:3781   */\n    tag_154:\n        /* \"#utility.yul\":3497:3502   */\n      0x00\n        /* \"#utility.yul\":3546:3549   */\n      dup3\n        /* \"#utility.yul\":3539:3543   */\n      0x1f\n        /* \"#utility.yul\":3531:3537   */\n      dup4\n        /* \"#utility.yul\":3527:3544   */\n      add\n        /* \"#utility.yul\":3523:3550   */\n      slt\n        /* \"#utility.yul\":3513:3635   */\n      tag_222\n      jumpi\n        /* \"#utility.yul\":3554:3633   */\n      tag_223\n      tag_146\n      jump\t// in\n    tag_223:\n        /* \"#utility.yul\":3513:3635   */\n    tag_222:\n        /* \"#utility.yul\":3671:3677   */\n      dup2\n        /* \"#utility.yul\":3658:3678   */\n      calldataload\n        /* \"#utility.yul\":3696:3775   */\n      tag_224\n        /* \"#utility.yul\":3771:3774   */\n      dup5\n        /* \"#utility.yul\":3763:3769   */\n      dup3\n        /* \"#utility.yul\":3756:3760   */\n      0x20\n        /* \"#utility.yul\":3748:3754   */\n      dup7\n        /* \"#utility.yul\":3744:3761   */\n      add\n        /* \"#utility.yul\":3696:3775   */\n      tag_153\n      jump\t// in\n    tag_224:\n        /* \"#utility.yul\":3687:3775   */\n      swap2\n      pop\n        /* \"#utility.yul\":3503:3781   */\n      pop\n        /* \"#utility.yul\":3441:3781   */\n      swap3\n      swap2\n      pop\n      pop\n      jump\t// out\n        /* \"#utility.yul\":3787:4296   */\n    tag_39:\n        /* \"#utility.yul\":3856:3862   */\n      0x00\n        /* \"#utility.yul\":3905:3907   */\n      0x20\n        /* \"#utility.yul\":3893:3902   */\n      dup3\n        /* \"#utility.yul\":3884:3891   */\n      dup5\n        /* \"#utility.yul\":3880:3903   */\n      sub\n        /* \"#utility.yul\":3876:3908   */\n      slt\n        /* \"#utility.yul\":3873:3992   */\n      iszero\n      tag_226\n      jumpi\n        /* \"#utility.yul\":3911:3990   */\n      tag_227\n      tag_144\n      jump\t// in\n    tag_227:\n        /* \"#utility.yul\":3873:3992   */\n    tag_226:\n        /* \"#utility.yul\":4059:4060   */\n      0x00\n        /* \"#utility.yul\":4048:4057   */\n      dup3\n        /* \"#utility.yul\":4044:4061   */\n      add\n        /* \"#utility.yul\":4031:4062   */\n      calldataload\n        /* \"#utility.yul\":4089:4107   */\n      0xffffffffffffffff\n        /* \"#utility.yul\":4081:4087   */\n      dup2\n        /* \"#utility.yul\":4078:4108   */\n      gt\n        /* \"#utility.yul\":4075:4192   */\n      iszero\n      tag_228\n      jumpi\n        /* \"#utility.yul\":4111:4190   */\n      tag_229\n      tag_145\n      jump\t// in\n    tag_229:\n        /* \"#utility.yul\":4075:4192   */\n    tag_228:\n        /* \"#utility.yul\":4216:4279   */\n      tag_230\n        /* \"#utility.yul\":4271:4278   */\n      dup5\n        /* \"#utility.yul\":4262:4268   */\n      dup3\n        /* \"#utility.yul\":4251:4260   */\n      dup6\n        /* \"#utility.yul\":4247:4269   */\n      add\n        /* \"#utility.yul\":4216:4279   */\n      tag_154\n      jump\t// in\n    tag_230:\n        /* \"#utility.yul\":4206:4279   */\n      swap2\n      pop\n        /* \"#utility.yul\":4002:4289   */\n      pop\n        /* \"#utility.yul\":3787:4296   */\n      swap3\n      swap2\n      pop\n      pop\n      jump\t// out\n        /* \"#utility.yul\":4302:4379   */\n    tag_155:\n        /* \"#utility.yul\":4339:4346   */\n      0x00\n        /* \"#utility.yul\":4368:4373   */\n      dup2\n        /* \"#utility.yul\":4357:4373   */\n      swap1\n      pop\n        /* \"#utility.yul\":4302:4379   */\n      swap2\n      swap1\n      pop\n      jump\t// out\n        /* \"#utility.yul\":4385:4503   */\n    tag_156:\n        /* \"#utility.yul\":4472:4496   */\n      tag_233\n        /* \"#utility.yul\":4490:4495   */\n      dup2\n        /* \"#utility.yul\":4472:4496   */\n      tag_155\n      jump\t// in\n    tag_233:\n        /* \"#utility.yul\":4467:4470   */\n      dup3\n        /* \"#utility.yul\":4460:4497   */\n      mstore\n        /* \"#utility.yul\":4385:4503   */\n      pop\n      pop\n      jump\t// out\n        /* \"#utility.yul\":4509:4731   */\n    tag_56:\n        /* \"#utility.yul\":4602:4606   */\n      0x00\n        /* \"#utility.yul\":4640:4642   */\n      0x20\n        /* \"#utility.yul\":4629:4638   */\n      dup3\n        /* \"#utility.yul\":4625:4643   */\n      add\n        /* \"#utility.yul\":4617:4643   */\n      swap1\n      pop\n        /* \"#utility.yul\":4653:4724   */\n      tag_235\n        /* \"#utility.yul\":4721:4722   */\n      0x00\n        /* \"#utility.yul\":4710:4719   */\n      dup4\n        /* \"#utility.yul\":4706:4723   */\n      add\n        /* \"#utility.yul\":4697:4703   */\n      dup5\n        /* \"#utility.yul\":4653:4724   */\n      tag_156\n      jump\t// in\n    tag_235:\n        /* \"#utility.yul\":4509:4731   */\n      swap3\n      swap2\n      pop\n      pop\n      jump\t// out\n        /* \"#utility.yul\":4737:6548   */\n    tag_65:\n        /* \"#utility.yul\":4882:4888   */\n      0x00\n        /* \"#utility.yul\":4890:4896   */\n      dup1\n        /* \"#utility.yul\":4898:4904   */\n      0x00\n        /* \"#utility.yul\":4906:4912   */\n      dup1\n        /* \"#utility.yul\":4914:4920   */\n      0x00\n        /* \"#utility.yul\":4963:4966   */\n      0xa0\n        /* \"#utility.yul\":4951:4960   */\n      dup7\n        /* \"#utility.yul\":4942:4949   */\n      dup9\n        /* \"#utility.yul\":4938:4961   */\n      sub\n        /* \"#utility.yul\":4934:4967   */\n      slt\n        /* \"#utility.yul\":4931:5051   */\n      iszero\n      tag_237\n      jumpi\n        /* \"#utility.yul\":4970:5049   */\n      tag_238\n      tag_144\n      jump\t// in\n    tag_238:\n        /* \"#utility.yul\":4931:5051   */\n    tag_237:\n        /* \"#utility.yul\":5118:5119   */\n      0x00\n        /* \"#utility.yul\":5107:5116   */\n      dup7\n        /* \"#utility.yul\":5103:5120   */\n      add\n        /* \"#utility.yul\":5090:5121   */\n      calldataload\n        /* \"#utility.yul\":5148:5166   */\n      0xffffffffffffffff\n        /* \"#utility.yul\":5140:5146   */\n      dup2\n        /* \"#utility.yul\":5137:5167   */\n      gt\n        /* \"#utility.yul\":5134:5251   */\n      iszero\n      tag_239\n      jumpi\n        /* \"#utility.yul\":5170:5249   */\n      tag_240\n      tag_145\n      jump\t// in\n    tag_240:\n        /* \"#utility.yul\":5134:5251   */\n    tag_239:\n        /* \"#utility.yul\":5275:5338   */\n      tag_241\n        /* \"#utility.yul\":5330:5337   */\n      dup9\n        /* \"#utility.yul\":5321:5327   */\n      dup3\n        /* \"#utility.yul\":5310:5319   */\n      dup10\n        /* \"#utility.yul\":5306:5328   */\n      add\n        /* \"#utility.yul\":5275:5338   */\n      tag_154\n      jump\t// in\n    tag_241:\n        /* \"#utility.yul\":5265:5338   */\n      swap6\n      pop\n        /* \"#utility.yul\":5061:5348   */\n      pop\n        /* \"#utility.yul\":5415:5417   */\n      0x20\n        /* \"#utility.yul\":5404:5413   */\n      dup7\n        /* \"#utility.yul\":5400:5418   */\n      add\n        /* \"#utility.yul\":5387:5419   */\n      calldataload\n        /* \"#utility.yul\":5446:5464   */\n      0xffffffffffffffff\n        /* \"#utility.yul\":5438:5444   */\n      dup2\n        /* \"#utility.yul\":5435:5465   */\n      gt\n        /* \"#utility.yul\":5432:5549   */\n      iszero\n      tag_242\n      jumpi\n        /* \"#utility.yul\":5468:5547   */\n      tag_243\n      tag_145\n      jump\t// in\n    tag_243:\n        /* \"#utility.yul\":5432:5549   */\n    tag_242:\n        /* \"#utility.yul\":5573:5636   */\n      tag_244\n        /* \"#utility.yul\":5628:5635   */\n      dup9\n        /* \"#utility.yul\":5619:5625   */\n      dup3\n        /* \"#utility.yul\":5608:5617   */\n      dup10\n        /* \"#utility.yul\":5604:5626   */\n      add\n        /* \"#utility.yul\":5573:5636   */\n      tag_154\n      jump\t// in\n    tag_244:\n        /* \"#utility.yul\":5563:5636   */\n      swap5\n      pop\n        /* \"#utility.yul\":5358:5646   */\n      pop\n        /* \"#utility.yul\":5713:5715   */\n      0x40\n        /* \"#utility.yul\":5702:5711   */\n      dup7\n        /* \"#utility.yul\":5698:5716   */\n      add\n        /* \"#utility.yul\":5685:5717   */\n      calldataload\n        /* \"#utility.yul\":5744:5762   */\n      0xffffffffffffffff\n        /* \"#utility.yul\":5736:5742   */\n      dup2\n        /* \"#utility.yul\":5733:5763   */\n      gt\n        /* \"#utility.yul\":5730:5847   */\n      iszero\n      tag_245\n      jumpi\n        /* \"#utility.yul\":5766:5845   */\n      tag_246\n      tag_145\n      jump\t// in\n    tag_246:\n        /* \"#utility.yul\":5730:5847   */\n    tag_245:\n        /* \"#utility.yul\":5871:5934   */\n      tag_247\n        /* \"#utility.yul\":5926:5933   */\n      dup9\n        /* \"#utility.yul\":5917:5923   */\n      dup3\n        /* \"#utility.yul\":5906:5915   */\n      dup10\n        /* \"#utility.yul\":5902:5924   */\n      add\n        /* \"#utility.yul\":5871:5934   */\n      tag_154\n      jump\t// in\n    tag_247:\n        /* \"#utility.yul\":5861:5934   */\n      swap4\n      pop\n        /* \"#utility.yul\":5656:5944   */\n      pop\n        /* \"#utility.yul\":6011:6013   */\n      0x60\n        /* \"#utility.yul\":6000:6009   */\n      dup7\n        /* \"#utility.yul\":5996:6014   */\n      add\n        /* \"#utility.yul\":5983:6015   */\n      calldataload\n        /* \"#utility.yul\":6042:6060   */\n      0xffffffffffffffff\n        /* \"#utility.yul\":6034:6040   */\n      dup2\n        /* \"#utility.yul\":6031:6061   */\n      gt\n        /* \"#utility.yul\":6028:6145   */\n      iszero\n      tag_248\n      jumpi\n        /* \"#utility.yul\":6064:6143   */\n      tag_249\n      tag_145\n      jump\t// in\n    tag_249:\n        /* \"#utility.yul\":6028:6145   */\n    tag_248:\n        /* \"#utility.yul\":6169:6232   */\n      tag_250\n        /* \"#utility.yul\":6224:6231   */\n      dup9\n        /* \"#utility.yul\":6215:6221   */\n      dup3\n        /* \"#utility.yul\":6204:6213   */\n      dup10\n        /* \"#utility.yul\":6200:6222   */\n      add\n        /* \"#utility.yul\":6169:6232   */\n      tag_154\n      jump\t// in\n    tag_250:\n        /* \"#utility.yul\":6159:6232   */\n      swap3\n      pop\n        /* \"#utility.yul\":5954:6242   */\n      pop\n        /* \"#utility.yul\":6309:6312   */\n      0x80\n        /* \"#utility.yul\":6298:6307   */\n      dup7\n        /* \"#utility.yul\":6294:6313   */\n      add\n        /* \"#utility.yul\":6281:6314   */\n      calldataload\n        /* \"#utility.yul\":6341:6359   */\n      0xffffffffffffffff\n        /* \"#utility.yul\":6333:6339   */\n      dup2\n        /* \"#utility.yul\":6330:6360   */\n      gt\n        /* \"#utility.yul\":6327:6444   */\n      iszero\n      tag_251\n      jumpi\n        /* \"#utility.yul\":6363:6442   */\n      tag_252\n      tag_145\n      jump\t// in\n    tag_252:\n        /* \"#utility.yul\":6327:6444   */\n    tag_251:\n        /* \"#utility.yul\":6468:6531   */\n      tag_253\n        /* \"#utility.yul\":6523:6530   */\n      dup9\n        /* \"#utility.yul\":6514:6520   */\n      dup3\n        /* \"#utility.yul\":6503:6512   */\n      dup10\n        /* \"#utility.yul\":6499:6521   */\n      add\n        /* \"#utility.yul\":6468:6531   */\n      tag_154\n      jump\t// in\n    tag_253:\n        /* \"#utility.yul\":6458:6531   */\n      swap2\n      pop\n        /* \"#utility.yul\":6252:6541   */\n      pop\n        /* \"#utility.yul\":4737:6548   */\n      swap3\n      swap6\n      pop\n      swap3\n      swap6\n      swap1\n      swap4\n      pop\n      jump\t// out\n        /* \"#utility.yul\":6554:6631   */\n    tag_157:\n        /* \"#utility.yul\":6591:6598   */\n      0x00\n        /* \"#utility.yul\":6620:6625   */\n      dup2\n        /* \"#utility.yul\":6609:6625   */\n      swap1\n      pop\n        /* \"#utility.yul\":6554:6631   */\n      swap2\n      swap1\n      pop\n      jump\t// out\n        /* \"#utility.yul\":6637:6755   */\n    tag_158:\n        /* \"#utility.yul\":6724:6748   */\n      tag_256\n        /* \"#utility.yul\":6742:6747   */\n      dup2\n        /* \"#utility.yul\":6724:6748   */\n      tag_157\n      jump\t// in\n    tag_256:\n        /* \"#utility.yul\":6719:6722   */\n      dup3\n        /* \"#utility.yul\":6712:6749   */\n      mstore\n        /* \"#utility.yul\":6637:6755   */\n      pop\n      pop\n      jump\t// out\n        /* \"#utility.yul\":6761:6983   */\n    tag_68:\n        /* \"#utility.yul\":6854:6858   */\n      0x00\n        /* \"#utility.yul\":6892:6894   */\n      0x20\n        /* \"#utility.yul\":6881:6890   */\n      dup3\n        /* \"#utility.yul\":6877:6895   */\n      add\n        /* \"#utility.yul\":6869:6895   */\n      swap1\n      pop\n        /* \"#utility.yul\":6905:6976   */\n      tag_258\n        /* \"#utility.yul\":6973:6974   */\n      0x00\n        /* \"#utility.yul\":6962:6971   */\n      dup4\n        /* \"#utility.yul\":6958:6975   */\n      add\n        /* \"#utility.yul\":6949:6955   */\n      dup5\n        /* \"#utility.yul\":6905:6976   */\n      tag_158\n      jump\t// in\n    tag_258:\n        /* \"#utility.yul\":6761:6983   */\n      swap3\n      swap2\n      pop\n      pop\n      jump\t// out\n        /* \"#utility.yul\":6989:7111   */\n    tag_159:\n        /* \"#utility.yul\":7062:7086   */\n      tag_260\n        /* \"#utility.yul\":7080:7085   */\n      dup2\n        /* \"#utility.yul\":7062:7086   */\n      tag_157\n      jump\t// in\n    tag_260:\n        /* \"#utility.yul\":7055:7060   */\n      dup2\n        /* \"#utility.yul\":7052:7087   */\n      eq\n        /* \"#utility.yul\":7042:7105   */\n      tag_261\n      jumpi\n        /* \"#utility.yul\":7101:7102   */\n      0x00\n        /* \"#utility.yul\":7098:7099   */\n      dup1\n        /* \"#utility.yul\":7091:7103   */\n      revert\n        /* \"#utility.yul\":7042:7105   */\n    tag_261:\n        /* \"#utility.yul\":6989:7111   */\n      pop\n      jump\t// out\n        /* \"#utility.yul\":7117:7256   */\n    tag_160:\n        /* \"#utility.yul\":7163:7168   */\n      0x00\n        /* \"#utility.yul\":7201:7207   */\n      dup2\n        /* \"#utility.yul\":7188:7208   */\n      calldataload\n        /* \"#utility.yul\":7179:7208   */\n      swap1\n      pop\n        /* \"#utility.yul\":7217:7250   */\n      tag_263\n        /* \"#utility.yul\":7244:7249   */\n      dup2\n        /* \"#utility.yul\":7217:7250   */\n      tag_159\n      jump\t// in\n    tag_263:\n        /* \"#utility.yul\":7117:7256   */\n      swap3\n      swap2\n      pop\n      pop\n      jump\t// out\n        /* \"#utility.yul\":7262:7591   */\n    tag_71:\n        /* \"#utility.yul\":7321:7327   */\n      0x00\n        /* \"#utility.yul\":7370:7372   */\n      0x20\n        /* \"#utility.yul\":7358:7367   */\n      dup3\n        /* \"#utility.yul\":7349:7356   */\n      dup5\n        /* \"#utility.yul\":7345:7368   */\n      sub\n        /* \"#utility.yul\":7341:7373   */\n      slt\n        /* \"#utility.yul\":7338:7457   */\n      iszero\n      tag_265\n      jumpi\n        /* \"#utility.yul\":7376:7455   */\n      tag_266\n      tag_144\n      jump\t// in\n    tag_266:\n        /* \"#utility.yul\":7338:7457   */\n    tag_265:\n        /* \"#utility.yul\":7496:7497   */\n      0x00\n        /* \"#utility.yul\":7521:7574   */\n      tag_267\n        /* \"#utility.yul\":7566:7573   */\n      dup5\n        /* \"#utility.yul\":7557:7563   */\n      dup3\n        /* \"#utility.yul\":7546:7555   */\n      dup6\n        /* \"#utility.yul\":7542:7564   */\n      add\n        /* \"#utility.yul\":7521:7574   */\n      tag_160\n      jump\t// in\n    tag_267:\n        /* \"#utility.yul\":7511:7574   */\n      swap2\n      pop\n        /* \"#utility.yul\":7467:7584   */\n      pop\n        /* \"#utility.yul\":7262:7591   */\n      swap3\n      swap2\n      pop\n      pop\n      jump\t// out\n        /* \"#utility.yul\":7597:7777   */\n    tag_161:\n        /* \"#utility.yul\":7645:7722   */\n      0x4e487b7100000000000000000000000000000000000000000000000000000000\n        /* \"#utility.yul\":7642:7643   */\n      0x00\n        /* \"#utility.yul\":7635:7723   */\n      mstore\n        /* \"#utility.yul\":7742:7746   */\n      0x22\n        /* \"#utility.yul\":7739:7740   */\n      0x04\n        /* \"#utility.yul\":7732:7747   */\n      mstore\n        /* \"#utility.yul\":7766:7770   */\n      0x24\n        /* \"#utility.yul\":7763:7764   */\n      0x00\n        /* \"#utility.yul\":7756:7771   */\n      revert\n        /* \"#utility.yul\":7783:8103   */\n    tag_76:\n        /* \"#utility.yul\":7827:7833   */\n      0x00\n        /* \"#utility.yul\":7864:7865   */\n      0x02\n        /* \"#utility.yul\":7858:7862   */\n      dup3\n        /* \"#utility.yul\":7854:7866   */\n      div\n        /* \"#utility.yul\":7844:7866   */\n      swap1\n      pop\n        /* \"#utility.yul\":7911:7912   */\n      0x01\n        /* \"#utility.yul\":7905:7909   */\n      dup3\n        /* \"#utility.yul\":7901:7913   */\n      and\n        /* \"#utility.yul\":7932:7950   */\n      dup1\n        /* \"#utility.yul\":7922:8003   */\n      tag_270\n      jumpi\n        /* \"#utility.yul\":7988:7992   */\n      0x7f\n        /* \"#utility.yul\":7980:7986   */\n      dup3\n        /* \"#utility.yul\":7976:7993   */\n      and\n        /* \"#utility.yul\":7966:7993   */\n      swap2\n      pop\n        /* \"#utility.yul\":7922:8003   */\n    tag_270:\n        /* \"#utility.yul\":8050:8052   */\n      0x20\n        /* \"#utility.yul\":8042:8048   */\n      dup3\n        /* \"#utility.yul\":8039:8053   */\n      lt\n        /* \"#utility.yul\":8019:8037   */\n      dup2\n        /* \"#utility.yul\":8016:8054   */\n      sub\n        /* \"#utility.yul\":8013:8097   */\n      tag_271\n      jumpi\n        /* \"#utility.yul\":8069:8087   */\n      tag_272\n      tag_161\n      jump\t// in\n    tag_272:\n        /* \"#utility.yul\":8013:8097   */\n    tag_271:\n        /* \"#utility.yul\":7834:8103   */\n      pop\n        /* \"#utility.yul\":7783:8103   */\n      swap2\n      swap1\n      pop\n      jump\t// out\n        /* \"#utility.yul\":8109:8250   */\n    tag_162:\n        /* \"#utility.yul\":8158:8162   */\n      0x00\n        /* \"#utility.yul\":8181:8184   */\n      dup2\n        /* \"#utility.yul\":8173:8184   */\n      swap1\n      pop\n        /* \"#utility.yul\":8204:8207   */\n      dup2\n        /* \"#utility.yul\":8201:8202   */\n      0x00\n        /* \"#utility.yul\":8194:8208   */\n      mstore\n        /* \"#utility.yul\":8238:8242   */\n      0x20\n        /* \"#utility.yul\":8235:8236   */\n      0x00\n        /* \"#utility.yul\":8225:8243   */\n      keccak256\n        /* \"#utility.yul\":8217:8243   */\n      swap1\n      pop\n        /* \"#utility.yul\":8109:8250   */\n      swap2\n      swap1\n      pop\n      jump\t// out\n        /* \"#utility.yul\":8256:8349   */\n    tag_163:\n        /* \"#utility.yul\":8293:8299   */\n      0x00\n        /* \"#utility.yul\":8340:8342   */\n      0x20\n        /* \"#utility.yul\":8335:8337   */\n      0x1f\n        /* \"#utility.yul\":8328:8333   */\n      dup4\n        /* \"#utility.yul\":8324:8338   */\n      add\n        /* \"#utility.yul\":8320:8343   */\n      div\n        /* \"#utility.yul\":8310:8343   */\n      swap1\n      pop\n        /* \"#utility.yul\":8256:8349   */\n      swap2\n      swap1\n      pop\n      jump\t// out\n        /* \"#utility.yul\":8355:8462   */\n    tag_164:\n        /* \"#utility.yul\":8399:8407   */\n      0x00\n        /* \"#utility.yul\":8449:8454   */\n      dup3\n        /* \"#utility.yul\":8443:8447   */\n      dup3\n        /* \"#utility.yul\":8439:8455   */\n      shl\n        /* \"#utility.yul\":8418:8455   */\n      swap1\n      pop\n        /* \"#utility.yul\":8355:8462   */\n      swap3\n      swap2\n      pop\n      pop\n      jump\t// out\n        /* \"#utility.yul\":8468:8861   */\n    tag_165:\n        /* \"#utility.yul\":8537:8543   */\n      0x00\n        /* \"#utility.yul\":8587:8588   */\n      0x08\n        /* \"#utility.yul\":8575:8585   */\n      dup4\n        /* \"#utility.yul\":8571:8589   */\n      mul\n        /* \"#utility.yul\":8610:8707   */\n      tag_277\n        /* \"#utility.yul\":8640:8706   */\n      0xffffffffffffffffffffffffffffffffffffffffffffffffffffffffffffffff\n        /* \"#utility.yul\":8629:8638   */\n      dup3\n        /* \"#utility.yul\":8610:8707   */\n      tag_164\n      jump\t// in\n    tag_277:\n        /* \"#utility.yul\":8728:8767   */\n      tag_278\n        /* \"#utility.yul\":8758:8766   */\n      dup7\n        /* \"#utility.yul\":8747:8756   */\n      dup4\n        /* \"#utility.yul\":8728:8767   */\n      tag_164\n      jump\t// in\n    tag_278:\n        /* \"#utility.yul\":8716:8767   */\n      swap6\n      pop\n        /* \"#utility.yul\":8800:8804   */\n      dup1\n        /* \"#utility.yul\":8796:8805   */\n      not\n        /* \"#utility.yul\":8789:8794   */\n      dup5\n        /* \"#utility.yul\":8785:8806   */\n      and\n        /* \"#utility.yul\":8776:8806   */\n      swap4\n      pop\n        /* \"#utility.yul\":8849:8853   */\n      dup1\n        /* \"#utility.yul\":8839:8847   */\n      dup7\n        /* \"#utility.yul\":8835:8854   */\n      and\n        /* \"#utility.yul\":8828:8833   */\n      dup5\n        /* \"#utility.yul\":8825:8855   */\n      or\n        /* \"#utility.yul\":8815:8855   */\n      swap3\n      pop\n        /* \"#utility.yul\":8544:8861   */\n      pop\n      pop\n        /* \"#utility.yul\":8468:8861   */\n      swap4\n      swap3\n      pop\n      pop\n      pop\n      jump\t// out\n        /* \"#utility.yul\":8867:8927   */\n    tag_166:\n        /* \"#utility.yul\":8895:8898   */\n      0x00\n        /* \"#utility.yul\":8916:8921   */\n      dup2\n        /* \"#utility.yul\":8909:8921   */\n      swap1\n      pop\n        /* \"#utility.yul\":8867:8927   */\n      swap2\n      swap1\n      pop\n      jump\t// out\n        /* \"#utility.yul\":8933:9075   */\n    tag_167:\n        /* \"#utility.yul\":8983:8992   */\n      0x00\n        /* \"#utility.yul\":9016:9069   */\n      tag_281\n        /* \"#utility.yul\":9034:9068   */\n      tag_282\n        /* \"#utility.yul\":9043:9067   */\n      tag_283\n        /* \"#utility.yul\":9061:9066   */\n      dup5\n        /* \"#utility.yul\":9043:9067   */\n      tag_155\n      jump\t// in\n    tag_283:\n        /* \"#utility.yul\":9034:9068   */\n      tag_166\n      jump\t// in\n    tag_282:\n        /* \"#utility.yul\":9016:9069   */\n      tag_155\n      jump\t// in\n    tag_281:\n        /* \"#utility.yul\":9003:9069   */\n      swap1\n      pop\n        /* \"#utility.yul\":8933:9075   */\n      swap2\n      swap1\n      pop\n      jump\t// out\n        /* \"#utility.yul\":9081:9156   */\n    tag_168:\n        /* \"#utility.yul\":9124:9127   */\n      0x00\n        /* \"#utility.yul\":9145:9150   */\n      dup2\n        /* \"#utility.yul\":9138:9150   */\n      swap1\n      pop\n        /* \"#utility.yul\":9081:9156   */\n      swap2\n      swap1\n      pop\n      jump\t// out\n        /* \"#utility.yul\":9162:9431   */\n    tag_169:\n        /* \"#utility.yul\":9272:9311   */\n      tag_286\n        /* \"#utility.yul\":9303:9310   */\n      dup4\n        /* \"#utility.yul\":9272:9311   */\n      tag_167\n      jump\t// in\n    tag_286:\n        /* \"#utility.yul\":9333:9424   */\n      tag_287\n        /* \"#utility.yul\":9382:9423   */\n      tag_288\n        /* \"#utility.yul\":9406:9422   */\n      dup3\n        /* \"#utility.yul\":9382:9423   */\n      tag_168\n      jump\t// in\n    tag_288:\n        /* \"#utility.yul\":9374:9380   */\n      dup5\n        /* \"#utility.yul\":9367:9371   */\n      dup5\n        /* \"#utility.yul\":9361:9372   */\n      sload\n        /* \"#utility.yul\":9333:9424   */\n      tag_165\n      jump\t// in\n    tag_287:\n        /* \"#utility.yul\":9327:9331   */\n      dup3\n        /* \"#utility.yul\":9320:9425   */\n      sstore\n        /* \"#utility.yul\":9238:9431   */\n      pop\n        /* \"#utility.yul\":9162:9431   */\n      pop\n      pop\n      pop\n      jump\t// out\n        /* \"#utility.yul\":9437:9510   */\n    tag_170:\n        /* \"#utility.yul\":9482:9485   */\n      0x00\n        /* \"#utility.yul\":9437:9510   */\n      swap1\n      jump\t// out\n        /* \"#utility.yul\":9516:9705   */\n    tag_171:\n        /* \"#utility.yul\":9593:9625   */\n      tag_291\n      tag_170\n      jump\t// in\n    tag_291:\n        /* \"#utility.yul\":9634:9699   */\n      tag_292\n        /* \"#utility.yul\":9692:9698   */\n      dup2\n        /* \"#utility.yul\":9684:9690   */\n      dup5\n        /* \"#utility.yul\":9678:9682   */\n      dup5\n        /* \"#utility.yul\":9634:9699   */\n      tag_169\n      jump\t// in\n    tag_292:\n        /* \"#utility.yul\":9569:9705   */\n      pop\n        /* \"#utility.yul\":9516:9705   */\n      pop\n      pop\n      jump\t// out\n        /* \"#utility.yul\":9711:9897   */\n    tag_172:\n        /* \"#utility.yul\":9771:9891   */\n    tag_294:\n        /* \"#utility.yul\":9788:9791   */\n      dup2\n        /* \"#utility.yul\":9781:9786   */\n      dup2\n        /* \"#utility.yul\":9778:9792   */\n      lt\n        /* \"#utility.yul\":9771:9891   */\n      iszero\n      tag_296\n      jumpi\n        /* \"#utility.yul\":9842:9881   */\n      tag_297\n        /* \"#utility.yul\":9879:9880   */\n      0x00\n        /* \"#utility.yul\":9872:9877   */\n      dup3\n        /* \"#utility.yul\":9842:9881   */\n      tag_171\n      jump\t// in\n    tag_297:\n        /* \"#utility.yul\":9815:9816   */\n      0x01\n        /* \"#utility.yul\":9808:9813   */\n      dup2\n        /* \"#utility.yul\":9804:9817   */\n      add\n        /* \"#utility.yul\":9795:9817   */\n      swap1\n      pop\n        /* \"#utility.yul\":9771:9891   */\n      jump(tag_294)\n    tag_296:\n        /* \"#utility.yul\":9711:9897   */\n      pop\n      pop\n      jump\t// out\n        /* \"#utility.yul\":9903:10446   */\n    tag_173:\n        /* \"#utility.yul\":10004:10006   */\n      0x1f\n        /* \"#utility.yul\":9999:10002   */\n      dup3\n        /* \"#utility.yul\":9996:10007   */\n      gt\n        /* \"#utility.yul\":9993:10439   */\n      iszero\n      tag_299\n      jumpi\n        /* \"#utility.yul\":10038:10076   */\n      tag_300\n        /* \"#utility.yul\":10070:10075   */\n      dup2\n        /* \"#utility.yul\":10038:10076   */\n      tag_162\n      jump\t// in\n    tag_300:\n        /* \"#utility.yul\":10122:10151   */\n      tag_301\n        /* \"#utility.yul\":10140:10150   */\n      dup5\n        /* \"#utility.yul\":10122:10151   */\n      tag_163\n      jump\t// in\n    tag_301:\n        /* \"#utility.yul\":10112:10120   */\n      dup2\n        /* \"#utility.yul\":10108:10152   */\n      add\n        /* \"#utility.yul\":10305:10307   */\n      0x20\n        /* \"#utility.yul\":10293:10303   */\n      dup6\n        /* \"#utility.yul\":10290:10308   */\n      lt\n        /* \"#utility.yul\":10287:10336   */\n      iszero\n      tag_302\n      jumpi\n        /* \"#utility.yul\":10326:10334   */\n      dup2\n        /* \"#utility.yul\":10311:10334   */\n      swap1\n      pop\n        /* \"#utility.yul\":10287:10336   */\n    tag_302:\n        /* \"#utility.yul\":10349:10429   */\n      tag_303\n        /* \"#utility.yul\":10405:10427   */\n      tag_304\n        /* \"#utility.yul\":10423:10426   */\n      dup6\n        /* \"#utility.yul\":10405:10427   */\n      tag_163\n      jump\t// in\n    tag_304:\n        /* \"#utility.yul\":10395:10403   */\n      dup4\n        /* \"#utility.yul\":10391:10428   */\n      add\n        /* \"#utility.yul\":10378:10389   */\n      dup3\n        /* \"#utility.yul\":10349:10429   */\n      tag_172\n      jump\t// in\n    tag_303:\n        /* \"#utility.yul\":10008:10439   */\n      pop\n      pop\n        /* \"#utility.yul\":9993:10439   */\n    tag_299:\n        /* \"#utility.yul\":9903:10446   */\n      pop\n      pop\n      pop\n      jump\t// out\n        /* \"#utility.yul\":10452:10569   */\n    tag_174:\n        /* \"#utility.yul\":10506:10514   */\n      0x00\n        /* \"#utility.yul\":10556:10561   */\n      dup3\n        /* \"#utility.yul\":10550:10554   */\n      dup3\n        /* \"#utility.yul\":10546:10562   */\n      shr\n        /* \"#utility.yul\":10525:10562   */\n      swap1\n      pop\n        /* \"#utility.yul\":10452:10569   */\n      swap3\n      swap2\n      pop\n      pop\n      jump\t// out\n        /* \"#utility.yul\":10575:10744   */\n    tag_175:\n        /* \"#utility.yul\":10619:10625   */\n      0x00\n        /* \"#utility.yul\":10652:10703   */\n      tag_307\n        /* \"#utility.yul\":10700:10701   */\n      0x00\n        /* \"#utility.yul\":10696:10702   */\n      not\n        /* \"#utility.yul\":10688:10693   */\n      dup5\n        /* \"#utility.yul\":10685:10686   */\n      0x08\n        /* \"#utility.yul\":10681:10694   */\n      mul\n        /* \"#utility.yul\":10652:10703   */\n      tag_174\n      jump\t// in\n    tag_307:\n        /* \"#utility.yul\":10648:10704   */\n      not\n        /* \"#utility.yul\":10733:10737   */\n      dup1\n        /* \"#utility.yul\":10727:10731   */\n      dup4\n        /* \"#utility.yul\":10723:10738   */\n      and\n        /* \"#utility.yul\":10713:10738   */\n      swap2\n      pop\n        /* \"#utility.yul\":10626:10744   */\n      pop\n        /* \"#utility.yul\":10575:10744   */\n      swap3\n      swap2\n      pop\n      pop\n      jump\t// out\n        /* \"#utility.yul\":10749:11044   */\n    tag_176:\n        /* \"#utility.yul\":10825:10829   */\n      0x00\n        /* \"#utility.yul\":10971:11000   */\n      tag_309\n        /* \"#utility.yul\":10996:10999   */\n      dup4\n        /* \"#utility.yul\":10990:10994   */\n      dup4\n        /* \"#utility.yul\":10971:11000   */\n      tag_175\n      jump\t// in\n    tag_309:\n        /* \"#utility.yul\":10963:11000   */\n      swap2\n      pop\n        /* \"#utility.yul\":11033:11036   */\n      dup3\n        /* \"#utility.yul\":11030:11031   */\n      0x02\n        /* \"#utility.yul\":11026:11037   */\n      mul\n        /* \"#utility.yul\":11020:11024   */\n      dup3\n        /* \"#utility.yul\":11017:11038   */\n      or\n        /* \"#utility.yul\":11009:11038   */\n      swap1\n      pop\n        /* \"#utility.yul\":10749:11044   */\n      swap3\n      swap2\n      pop\n      pop\n      jump\t// out\n        /* \"#utility.yul\":11049:12444   */\n    tag_105:\n        /* \"#utility.yul\":11166:11203   */\n      tag_311\n        /* \"#utility.yul\":11199:11202   */\n      dup3\n        /* \"#utility.yul\":11166:11203   */\n      tag_138\n      jump\t// in\n    tag_311:\n        /* \"#utility.yul\":11268:11286   */\n      0xffffffffffffffff\n        /* \"#utility.yul\":11260:11266   */\n      dup2\n        /* \"#utility.yul\":11257:11287   */\n      gt\n        /* \"#utility.yul\":11254:11310   */\n      iszero\n      tag_312\n      jumpi\n        /* \"#utility.yul\":11290:11308   */\n      tag_313\n      tag_148\n      jump\t// in\n    tag_313:\n        /* \"#utility.yul\":11254:11310   */\n    tag_312:\n        /* \"#utility.yul\":11334:11372   */\n      tag_314\n        /* \"#utility.yul\":11366:11370   */\n      dup3\n        /* \"#utility.yul\":11360:11371   */\n      sload\n        /* \"#utility.yul\":11334:11372   */\n      tag_76\n      jump\t// in\n    tag_314:\n        /* \"#utility.yul\":11419:11486   */\n      tag_315\n        /* \"#utility.yul\":11479:11485   */\n      dup3\n        /* \"#utility.yul\":11471:11477   */\n      dup3\n        /* \"#utility.yul\":11465:11469   */\n      dup6\n        /* \"#utility.yul\":11419:11486   */\n      tag_173\n      jump\t// in\n    tag_315:\n        /* \"#utility.yul\":11513:11514   */\n      0x00\n        /* \"#utility.yul\":11537:11541   */\n      0x20\n        /* \"#utility.yul\":11524:11541   */\n      swap1\n      pop\n        /* \"#utility.yul\":11569:11571   */\n      0x1f\n        /* \"#utility.yul\":11561:11567   */\n      dup4\n        /* \"#utility.yul\":11558:11572   */\n      gt\n        /* \"#utility.yul\":11586:11587   */\n      0x01\n        /* \"#utility.yul\":11581:12199   */\n      dup2\n      eq\n      tag_317\n      jumpi\n        /* \"#utility.yul\":12243:12244   */\n      0x00\n        /* \"#utility.yul\":12260:12266   */\n      dup5\n        /* \"#utility.yul\":12257:12334   */\n      iszero\n      tag_318\n      jumpi\n        /* \"#utility.yul\":12309:12318   */\n      dup3\n        /* \"#utility.yul\":12304:12307   */\n      dup8\n        /* \"#utility.yul\":12300:12319   */\n      add\n        /* \"#utility.yul\":12294:12320   */\n      mload\n        /* \"#utility.yul\":12285:12320   */\n      swap1\n      pop\n        /* \"#utility.yul\":12257:12334   */\n    tag_318:\n        /* \"#utility.yul\":12360:12427   */\n      tag_319\n        /* \"#utility.yul\":12420:12426   */\n      dup6\n        /* \"#utility.yul\":12413:12418   */\n      dup3\n        /* \"#utility.yul\":12360:12427   */\n      tag_176\n      jump\t// in\n    tag_319:\n        /* \"#utility.yul\":12354:12358   */\n      dup7\n        /* \"#utility.yul\":12347:12428   */\n      sstore\n        /* \"#utility.yul\":12216:12438   */\n      pop\n        /* \"#utility.yul\":11551:12438   */\n      jump(tag_316)\n        /* \"#utility.yul\":11581:12199   */\n    tag_317:\n        /* \"#utility.yul\":11633:11637   */\n      0x1f\n        /* \"#utility.yul\":11629:11638   */\n      not\n        /* \"#utility.yul\":11621:11627   */\n      dup5\n        /* \"#utility.yul\":11617:11639   */\n      and\n        /* \"#utility.yul\":11667:11704   */\n      tag_320\n        /* \"#utility.yul\":11699:11703   */\n      dup7\n        /* \"#utility.yul\":11667:11704   */\n      tag_162\n      jump\t// in\n    tag_320:\n        /* \"#utility.yul\":11726:11727   */\n      0x00\n        /* \"#utility.yul\":11740:11948   */\n    tag_321:\n        /* \"#utility.yul\":11754:11761   */\n      dup3\n        /* \"#utility.yul\":11751:11752   */\n      dup2\n        /* \"#utility.yul\":11748:11762   */\n      lt\n        /* \"#utility.yul\":11740:11948   */\n      iszero\n      tag_323\n      jumpi\n        /* \"#utility.yul\":11833:11842   */\n      dup5\n        /* \"#utility.yul\":11828:11831   */\n      dup10\n        /* \"#utility.yul\":11824:11843   */\n      add\n        /* \"#utility.yul\":11818:11844   */\n      mload\n        /* \"#utility.yul\":11810:11816   */\n      dup3\n        /* \"#utility.yul\":11803:11845   */\n      sstore\n        /* \"#utility.yul\":11884:11885   */\n      0x01\n        /* \"#utility.yul\":11876:11882   */\n      dup3\n        /* \"#utility.yul\":11872:11886   */\n      add\n        /* \"#utility.yul\":11862:11886   */\n      swap2\n      pop\n        /* \"#utility.yul\":11931:11933   */\n      0x20\n        /* \"#utility.yul\":11920:11929   */\n      dup6\n        /* \"#utility.yul\":11916:11934   */\n      add\n        /* \"#utility.yul\":11903:11934   */\n      swap5\n      pop\n        /* \"#utility.yul\":11777:11781   */\n      0x20\n        /* \"#utility.yul\":11774:11775   */\n      dup2\n        /* \"#utility.yul\":11770:11782   */\n      add\n        /* \"#utility.yul\":11765:11782   */\n      swap1\n      pop\n        /* \"#utility.yul\":11740:11948   */\n      jump(tag_321)\n    tag_323:\n        /* \"#utility.yul\":11976:11982   */\n      dup7\n        /* \"#utility.yul\":11967:11974   */\n      dup4\n        /* \"#utility.yul\":11964:11983   */\n      lt\n        /* \"#utility.yul\":11961:12140   */\n      iszero\n      tag_324\n      jumpi\n        /* \"#utility.yul\":12034:12043   */\n      dup5\n        /* \"#utility.yul\":12029:12032   */\n      dup10\n        /* \"#utility.yul\":12025:12044   */\n      add\n        /* \"#utility.yul\":12019:12045   */\n      mload\n        /* \"#utility.yul\":12077:12125   */\n      tag_325\n        /* \"#utility.yul\":12119:12123   */\n      0x1f\n        /* \"#utility.yul\":12111:12117   */\n      dup10\n        /* \"#utility.yul\":12107:12124   */\n      and\n        /* \"#utility.yul\":12096:12105   */\n      dup3\n        /* \"#utility.yul\":12077:12125   */\n      tag_175\n      jump\t// in\n    tag_325:\n        /* \"#utility.yul\":12069:12075   */\n      dup4\n        /* \"#utility.yul\":12062:12126   */\n      sstore\n        /* \"#utility.yul\":11984:12140   */\n      pop\n        /* \"#utility.yul\":11961:12140   */\n    tag_324:\n        /* \"#utility.yul\":12186:12187   */\n      0x01\n        /* \"#utility.yul\":12182:12183   */\n      0x02\n        /* \"#utility.yul\":12174:12180   */\n      dup9\n        /* \"#utility.yul\":12170:12184   */\n      mul\n        /* \"#utility.yul\":12166:12188   */\n      add\n        /* \"#utility.yul\":12160:12164   */\n      dup9\n        /* \"#utility.yul\":12153:12189   */\n      sstore\n        /* \"#utility.yul\":11588:12199   */\n      pop\n      pop\n      pop\n        /* \"#utility.yul\":11551:12438   */\n    tag_316:\n      pop\n        /* \"#utility.yul\":11141:12444   */\n      pop\n      pop\n      pop\n        /* \"#utility.yul\":11049:12444   */\n      pop\n      pop\n      jump\t// out\n        /* \"#utility.yul\":12450:13569   */\n    tag_133:\n        /* \"#utility.yul\":12755:12759   */\n      0x00\n        /* \"#utility.yul\":12793:12796   */\n      0xa0\n        /* \"#utility.yul\":12782:12791   */\n      dup3\n        /* \"#utility.yul\":12778:12797   */\n      add\n        /* \"#utility.yul\":12770:12797   */\n      swap1\n      pop\n        /* \"#utility.yul\":12843:12852   */\n      dup2\n        /* \"#utility.yul\":12837:12841   */\n      dup2\n        /* \"#utility.yul\":12833:12853   */\n      sub\n        /* \"#utility.yul\":12829:12830   */\n      0x00\n        /* \"#utility.yul\":12818:12827   */\n      dup4\n        /* \"#utility.yul\":12814:12831   */\n      add\n        /* \"#utility.yul\":12807:12854   */\n      mstore\n        /* \"#utility.yul\":12871:12949   */\n      tag_327\n        /* \"#utility.yul\":12944:12948   */\n      dup2\n        /* \"#utility.yul\":12935:12941   */\n      dup9\n        /* \"#utility.yul\":12871:12949   */\n      tag_142\n      jump\t// in\n    tag_327:\n        /* \"#utility.yul\":12863:12949   */\n      swap1\n      pop\n        /* \"#utility.yul\":12996:13005   */\n      dup2\n        /* \"#utility.yul\":12990:12994   */\n      dup2\n        /* \"#utility.yul\":12986:13006   */\n      sub\n        /* \"#utility.yul\":12981:12983   */\n      0x20\n        /* \"#utility.yul\":12970:12979   */\n      dup4\n        /* \"#utility.yul\":12966:12984   */\n      add\n        /* \"#utility.yul\":12959:13007   */\n      mstore\n        /* \"#utility.yul\":13024:13102   */\n      tag_328\n        /* \"#utility.yul\":13097:13101   */\n      dup2\n        /* \"#utility.yul\":13088:13094   */\n      dup8\n        /* \"#utility.yul\":13024:13102   */\n      tag_142\n      jump\t// in\n    tag_328:\n        /* \"#utility.yul\":13016:13102   */\n      swap1\n      pop\n        /* \"#utility.yul\":13149:13158   */\n      dup2\n        /* \"#utility.yul\":13143:13147   */\n      dup2\n        /* \"#utility.yul\":13139:13159   */\n      sub\n        /* \"#utility.yul\":13134:13136   */\n      0x40\n        /* \"#utility.yul\":13123:13132   */\n      dup4\n        /* \"#utility.yul\":13119:13137   */\n      add\n        /* \"#utility.yul\":13112:13160   */\n      mstore\n        /* \"#utility.yul\":13177:13255   */\n      tag_329\n        /* \"#utility.yul\":13250:13254   */\n      dup2\n        /* \"#utility.yul\":13241:13247   */\n      dup7\n        /* \"#utility.yul\":13177:13255   */\n      tag_142\n      jump\t// in\n    tag_329:\n        /* \"#utility.yul\":13169:13255   */\n      swap1\n      pop\n        /* \"#utility.yul\":13302:13311   */\n      dup2\n        /* \"#utility.yul\":13296:13300   */\n      dup2\n        /* \"#utility.yul\":13292:13312   */\n      sub\n        /* \"#utility.yul\":13287:13289   */\n      0x60\n        /* \"#utility.yul\":13276:13285   */\n      dup4\n        /* \"#utility.yul\":13272:13290   */\n      add\n        /* \"#utility.yul\":13265:13313   */\n      mstore\n        /* \"#utility.yul\":13330:13408   */\n      tag_330\n        /* \"#utility.yul\":13403:13407   */\n      dup2\n        /* \"#utility.yul\":13394:13400   */\n      dup6\n        /* \"#utility.yul\":13330:13408   */\n      tag_142\n      jump\t// in\n    tag_330:\n        /* \"#utility.yul\":13322:13408   */\n      swap1\n      pop\n        /* \"#utility.yul\":13456:13465   */\n      dup2\n        /* \"#utility.yul\":13450:13454   */\n      dup2\n        /* \"#utility.yul\":13446:13466   */\n      sub\n        /* \"#utility.yul\":13440:13443   */\n      0x80\n        /* \"#utility.yul\":13429:13438   */\n      dup4\n        /* \"#utility.yul\":13425:13444   */\n      add\n        /* \"#utility.yul\":13418:13467   */\n      mstore\n        /* \"#utility.yul\":13484:13562   */\n      tag_331\n        /* \"#utility.yul\":13557:13561   */\n      dup2\n        /* \"#utility.yul\":13548:13554   */\n      dup5\n        /* \"#utility.yul\":13484:13562   */\n      tag_142\n      jump\t// in\n    tag_331:\n        /* \"#utility.yul\":13476:13562   */\n      swap1\n      pop\n        /* \"#utility.yul\":12450:13569   */\n      swap7\n      swap6\n      pop\n      pop\n      pop\n      pop\n      pop\n      pop\n      jump\t// out\n        /* \"#utility.yul\":13575:13723   */\n    tag_177:\n        /* \"#utility.yul\":13677:13688   */\n      0x00\n        /* \"#utility.yul\":13714:13717   */\n      dup2\n        /* \"#utility.yul\":13699:13717   */\n      swap1\n      pop\n        /* \"#utility.yul\":13575:13723   */\n      swap3\n      swap2\n      pop\n      pop\n      jump\t// out\n        /* \"#utility.yul\":13729:13943   */\n    tag_178:\n        /* \"#utility.yul\":13869:13935   */\n      0x19457468657265756d205369676e6564204d6573736167653a0a333200000000\n        /* \"#utility.yul\":13865:13866   */\n      0x00\n        /* \"#utility.yul\":13857:13863   */\n      dup3\n        /* \"#utility.yul\":13853:13867   */\n      add\n        /* \"#utility.yul\":13846:13936   */\n      mstore\n        /* \"#utility.yul\":13729:13943   */\n      pop\n      jump\t// out\n        /* \"#utility.yul\":13949:14351   */\n    tag_179:\n        /* \"#utility.yul\":14109:14112   */\n      0x00\n        /* \"#utility.yul\":14130:14215   */\n      tag_335\n        /* \"#utility.yul\":14212:14214   */\n      0x1c\n        /* \"#utility.yul\":14207:14210   */\n      dup4\n        /* \"#utility.yul\":14130:14215   */\n      tag_177\n      jump\t// in\n    tag_335:\n        /* \"#utility.yul\":14123:14215   */\n      swap2\n      pop\n        /* \"#utility.yul\":14224:14317   */\n      tag_336\n        /* \"#utility.yul\":14313:14316   */\n      dup3\n        /* \"#utility.yul\":14224:14317   */\n      tag_178\n      jump\t// in\n    tag_336:\n        /* \"#utility.yul\":14342:14344   */\n      0x1c\n        /* \"#utility.yul\":14337:14340   */\n      dup3\n        /* \"#utility.yul\":14333:14345   */\n      add\n        /* \"#utility.yul\":14326:14345   */\n      swap1\n      pop\n        /* \"#utility.yul\":13949:14351   */\n      swap2\n      swap1\n      pop\n      jump\t// out\n        /* \"#utility.yul\":14357:14436   */\n    tag_180:\n        /* \"#utility.yul\":14396:14403   */\n      0x00\n        /* \"#utility.yul\":14425:14430   */\n      dup2\n        /* \"#utility.yul\":14414:14430   */\n      swap1\n      pop\n        /* \"#utility.yul\":14357:14436   */\n      swap2\n      swap1\n      pop\n      jump\t// out\n        /* \"#utility.yul\":14442:14599   */\n    tag_181:\n        /* \"#utility.yul\":14547:14592   */\n      tag_339\n        /* \"#utility.yul\":14567:14591   */\n      tag_340\n        /* \"#utility.yul\":14585:14590   */\n      dup3\n        /* \"#utility.yul\":14567:14591   */\n      tag_157\n      jump\t// in\n    tag_340:\n        /* \"#utility.yul\":14547:14592   */\n      tag_180\n      jump\t// in\n    tag_339:\n        /* \"#utility.yul\":14542:14545   */\n      dup3\n        /* \"#utility.yul\":14535:14593   */\n      mstore\n        /* \"#utility.yul\":14442:14599   */\n      pop\n      pop\n      jump\t// out\n        /* \"#utility.yul\":14605:15127   */\n    tag_137:\n        /* \"#utility.yul\":14818:14821   */\n      0x00\n        /* \"#utility.yul\":14840:14988   */\n      tag_342\n        /* \"#utility.yul\":14984:14987   */\n      dup3\n        /* \"#utility.yul\":14840:14988   */\n      tag_179\n      jump\t// in\n    tag_342:\n        /* \"#utility.yul\":14833:14988   */\n      swap2\n      pop\n        /* \"#utility.yul\":14998:15073   */\n      tag_343\n        /* \"#utility.yul\":15069:15072   */\n      dup3\n        /* \"#utility.yul\":15060:15066   */\n      dup5\n        /* \"#utility.yul\":14998:15073   */\n      tag_181\n      jump\t// in\n    tag_343:\n        /* \"#utility.yul\":15098:15100   */\n      0x20\n        /* \"#utility.yul\":15093:15096   */\n      dup3\n        /* \"#utility.yul\":15089:15101   */\n      add\n        /* \"#utility.yul\":15082:15101   */\n      swap2\n      pop\n        /* \"#utility.yul\":15118:15121   */\n      dup2\n        /* \"#utility.yul\":15111:15121   */\n      swap1\n      pop\n        /* \"#utility.yul\":14605:15127   */\n      swap3\n      swap2\n      pop\n      pop\n      jump\t// out\n\n    auxdata: 0xa264697066735822122092a48c7734b4595261af9717771a5dfbafaa82fe5c7fc4c4483255664f0f266764736f6c63430008110033\n}\n",
				"bytecode": {
					"linkReferences": {},
					"object": "60806040523480156200001157600080fd5b50604051620017b5380380620017b5833981810160405281019062000037919062000272565b8460009081620000489190620005ea565b5085600190816200005a9190620005ea565b5083600290816200006c9190620005ea565b5082600390816200007e9190620005ea565b508160049081620000909190620005ea565b5080600581905550505050505050620006d1565b6000604051905090565b600080fd5b600080fd5b600080fd5b600080fd5b6000601f19601f8301169050919050565b7f4e487b7100000000000000000000000000000000000000000000000000000000600052604160045260246000fd5b6200010d82620000c2565b810181811067ffffffffffffffff821117156200012f576200012e620000d3565b5b80604052505050565b600062000144620000a4565b905062000152828262000102565b919050565b600067ffffffffffffffff821115620001755762000174620000d3565b5b6200018082620000c2565b9050602081019050919050565b60005b83811015620001ad57808201518184015260208101905062000190565b60008484015250505050565b6000620001d0620001ca8462000157565b62000138565b905082815260208101848484011115620001ef57620001ee620000bd565b5b620001fc8482856200018d565b509392505050565b600082601f8301126200021c576200021b620000b8565b5b81516200022e848260208601620001b9565b91505092915050565b6000819050919050565b6200024c8162000237565b81146200025857600080fd5b50565b6000815190506200026c8162000241565b92915050565b60008060008060008060c08789031215620002925762000291620000ae565b5b600087015167ffffffffffffffff811115620002b357620002b2620000b3565b5b620002c189828a0162000204565b965050602087015167ffffffffffffffff811115620002e557620002e4620000b3565b5b620002f389828a0162000204565b955050604087015167ffffffffffffffff811115620003175762000316620000b3565b5b6200032589828a0162000204565b945050606087015167ffffffffffffffff811115620003495762000348620000b3565b5b6200035789828a0162000204565b935050608087015167ffffffffffffffff8111156200037b576200037a620000b3565b5b6200038989828a0162000204565b92505060a06200039c89828a016200025b565b9150509295509295509295565b600081519050919050565b7f4e487b7100000000000000000000000000000000000000000000000000000000600052602260045260246000fd5b60006002820490506001821680620003fc57607f821691505b602082108103620004125762000411620003b4565b5b50919050565b60008190508160005260206000209050919050565b60006020601f8301049050919050565b600082821b905092915050565b6000600883026200047c7fffffffffffffffffffffffffffffffffffffffffffffffffffffffffffffffff826200043d565b6200048886836200043d565b95508019841693508086168417925050509392505050565b6000819050919050565b6000620004cb620004c5620004bf8462000237565b620004a0565b62000237565b9050919050565b6000819050919050565b620004e783620004aa565b620004ff620004f682620004d2565b8484546200044a565b825550505050565b600090565b6200051662000507565b62000523818484620004dc565b505050565b5b818110156200054b576200053f6000826200050c565b60018101905062000529565b5050565b601f8211156200059a57620005648162000418565b6200056f846200042d565b810160208510156200057f578190505b620005976200058e856200042d565b83018262000528565b50505b505050565b600082821c905092915050565b6000620005bf600019846008026200059f565b1980831691505092915050565b6000620005da8383620005ac565b9150826002028217905092915050565b620005f582620003a9565b67ffffffffffffffff811115620006115762000610620000d3565b5b6200061d8254620003e3565b6200062a8282856200054f565b600060209050601f8311600181146200066257600084156200064d578287015190505b620006598582620005cc565b865550620006c9565b601f198416620006728662000418565b60005b828110156200069c5784890151825560018201915060208501945060208101905062000675565b86831015620006bc5784890151620006b8601f891682620005ac565b8355505b6001600288020188555050505b505050505050565b6110d480620006e16000396000f3fe608060405234801561001057600080fd5b50600436106100f55760003560e01c80639e650a4911610097578063da235b2211610066578063da235b2214610240578063ddd578721461025e578063e480d4d71461027a578063fa540801146102aa576100f5565b80639e650a49146101ca578063a85a940b146101e6578063b80777ea14610204578063c470151614610222576100f5565b806340401fea116100d357806340401fea14610154578063516dde43146101725780636c6526aa1461019057806398727a0e146101ac576100f5565b806311a08d01146100fa57806317d7de7c146101185780632d8ed84a14610136575b600080fd5b6101026102da565b60405161010f9190610930565b60405180910390f35b61012061036c565b60405161012d9190610930565b60405180910390f35b61013e6103fe565b60405161014b9190610930565b60405180910390f35b61015c610490565b6040516101699190610930565b60405180910390f35b61017a61051e565b6040516101879190610930565b60405180910390f35b6101aa60048036038101906101a59190610a9b565b6105ac565b005b6101b46105bf565b6040516101c19190610930565b60405180910390f35b6101e460048036038101906101df9190610a9b565b61064d565b005b6101ee610660565b6040516101fb9190610930565b60405180910390f35b61020c6106ee565b6040516102199190610930565b60405180910390f35b61022a61077c565b6040516102379190610afd565b60405180910390f35b610248610782565b6040516102559190610930565b60405180910390f35b61027860048036038101906102739190610a9b565b610814565b005b610294600480360381019061028f9190610b18565b610827565b6040516102a19190610c38565b60405180910390f35b6102c460048036038101906102bf9190610c7f565b610870565b6040516102d19190610c38565b60405180910390f35b6060600280546102e990610cdb565b80601f016020809104026020016040519081016040528092919081815260200182805461031590610cdb565b80156103625780601f1061033757610100808354040283529160200191610362565b820191906000526020600020905b81548152906001019060200180831161034557829003601f168201915b5050505050905090565b60606001805461037b90610cdb565b80601f01602080910402602001604051908101604052809291908181526020018280546103a790610cdb565b80156103f45780601f106103c9576101008083540402835291602001916103f4565b820191906000526020600020905b8154815290600101906020018083116103d757829003601f168201915b5050505050905090565b60606003805461040d90610cdb565b80601f016020809104026020016040519081016040528092919081815260200182805461043990610cdb565b80156104865780601f1061045b57610100808354040283529160200191610486565b820191906000526020600020905b81548152906001019060200180831161046957829003601f168201915b5050505050905090565b6001805461049d90610cdb565b80601f01602080910402602001604051908101604052809291908181526020018280546104c990610cdb565b80156105165780601f106104eb57610100808354040283529160200191610516565b820191906000526020600020905b8154815290600101906020018083116104f957829003601f168201915b505050505081565b6003805461052b90610cdb565b80601f016020809104026020016040519081016040528092919081815260200182805461055790610cdb565b80156105a45780601f10610579576101008083540402835291602001916105a4565b820191906000526020600020905b81548152906001019060200180831161058757829003601f168201915b505050505081565b80600290816105bb9190610eb8565b5050565b600280546105cc90610cdb565b80601f01602080910402602001604051908101604052809291908181526020018280546105f890610cdb565b80156106455780601f1061061a57610100808354040283529160200191610645565b820191906000526020600020905b81548152906001019060200180831161062857829003601f168201915b505050505081565b806003908161065c9190610eb8565b5050565b6004805461066d90610cdb565b80601f016020809104026020016040519081016040528092919081815260200182805461069990610cdb565b80156106e65780601f106106bb576101008083540402835291602001916106e6565b820191906000526020600020905b8154815290600101906020018083116106c957829003601f168201915b505050505081565b600080546106fb90610cdb565b80601f016020809104026020016040519081016040528092919081815260200182805461072790610cdb565b80156107745780601f1061074957610100808354040283529160200191610774565b820191906000526020600020905b81548152906001019060200180831161075757829003601f168201915b505050505081565b60055481565b60606000805461079190610cdb565b80601f01602080910402602001604051908101604052809291908181526020018280546107bd90610cdb565b801561080a5780601f106107df5761010080835404028352916020019161080a565b820191906000526020600020905b8154815290600101906020018083116107ed57829003601f168201915b5050505050905090565b80600090816108239190610eb8565b5050565b6000808686868686604051602001610843959493929190610f8a565b60405160208183030381529060405280519060200120905061086481610870565b91505095945050505050565b6000816040516020016108839190611078565b604051602081830303815290604052805190602001209050919050565b600081519050919050565b600082825260208201905092915050565b60005b838110156108da5780820151818401526020810190506108bf565b60008484015250505050565b6000601f19601f8301169050919050565b6000610902826108a0565b61090c81856108ab565b935061091c8185602086016108bc565b610925816108e6565b840191505092915050565b6000602082019050818103600083015261094a81846108f7565b905092915050565b6000604051905090565b600080fd5b600080fd5b600080fd5b600080fd5b7f4e487b7100000000000000000000000000000000000000000000000000000000600052604160045260246000fd5b6109a8826108e6565b810181811067ffffffffffffffff821117156109c7576109c6610970565b5b80604052505050565b60006109da610952565b90506109e6828261099f565b919050565b600067ffffffffffffffff821115610a0657610a05610970565b5b610a0f826108e6565b9050602081019050919050565b82818337600083830152505050565b6000610a3e610a39846109eb565b6109d0565b905082815260208101848484011115610a5a57610a5961096b565b5b610a65848285610a1c565b509392505050565b600082601f830112610a8257610a81610966565b5b8135610a92848260208601610a2b565b91505092915050565b600060208284031215610ab157610ab061095c565b5b600082013567ffffffffffffffff811115610acf57610ace610961565b5b610adb84828501610a6d565b91505092915050565b6000819050919050565b610af781610ae4565b82525050565b6000602082019050610b126000830184610aee565b92915050565b600080600080600060a08688031215610b3457610b3361095c565b5b600086013567ffffffffffffffff811115610b5257610b51610961565b5b610b5e88828901610a6d565b955050602086013567ffffffffffffffff811115610b7f57610b7e610961565b5b610b8b88828901610a6d565b945050604086013567ffffffffffffffff811115610bac57610bab610961565b5b610bb888828901610a6d565b935050606086013567ffffffffffffffff811115610bd957610bd8610961565b5b610be588828901610a6d565b925050608086013567ffffffffffffffff811115610c0657610c05610961565b5b610c1288828901610a6d565b9150509295509295909350565b6000819050919050565b610c3281610c1f565b82525050565b6000602082019050610c4d6000830184610c29565b92915050565b610c5c81610c1f565b8114610c6757600080fd5b50565b600081359050610c7981610c53565b92915050565b600060208284031215610c9557610c9461095c565b5b6000610ca384828501610c6a565b91505092915050565b7f4e487b7100000000000000000000000000000000000000000000000000000000600052602260045260246000fd5b60006002820490506001821680610cf357607f821691505b602082108103610d0657610d05610cac565b5b50919050565b60008190508160005260206000209050919050565b60006020601f8301049050919050565b600082821b905092915050565b600060088302610d6e7fffffffffffffffffffffffffffffffffffffffffffffffffffffffffffffffff82610d31565b610d788683610d31565b95508019841693508086168417925050509392505050565b6000819050919050565b6000610db5610db0610dab84610ae4565b610d90565b610ae4565b9050919050565b6000819050919050565b610dcf83610d9a565b610de3610ddb82610dbc565b848454610d3e565b825550505050565b600090565b610df8610deb565b610e03818484610dc6565b505050565b5b81811015610e2757610e1c600082610df0565b600181019050610e09565b5050565b601f821115610e6c57610e3d81610d0c565b610e4684610d21565b81016020851015610e55578190505b610e69610e6185610d21565b830182610e08565b50505b505050565b600082821c905092915050565b6000610e8f60001984600802610e71565b1980831691505092915050565b6000610ea88383610e7e565b9150826002028217905092915050565b610ec1826108a0565b67ffffffffffffffff811115610eda57610ed9610970565b5b610ee48254610cdb565b610eef828285610e2b565b600060209050601f831160018114610f225760008415610f10578287015190505b610f1a8582610e9c565b865550610f82565b601f198416610f3086610d0c565b60005b82811015610f5857848901518255600182019150602085019450602081019050610f33565b86831015610f755784890151610f71601f891682610e7e565b8355505b6001600288020188555050505b505050505050565b600060a0820190508181036000830152610fa481886108f7565b90508181036020830152610fb881876108f7565b90508181036040830152610fcc81866108f7565b90508181036060830152610fe081856108f7565b90508181036080830152610ff481846108f7565b90509695505050505050565b600081905092915050565b7f19457468657265756d205369676e6564204d6573736167653a0a333200000000600082015250565b6000611041601c83611000565b915061104c8261100b565b601c82019050919050565b6000819050919050565b61107261106d82610c1f565b611057565b82525050565b600061108382611034565b915061108f8284611061565b6020820191508190509291505056fea264697066735822122092a48c7734b4595261af9717771a5dfbafaa82fe5c7fc4c4483255664f0f266764736f6c63430008110033",
					"opcodes": "PUSH1 0x80 PUSH1 0x40 MSTORE CALLVALUE DUP1 ISZERO PUSH3 0x11 JUMPI PUSH1 0x0 DUP1 REVERT JUMPDEST POP PUSH1 0x40 MLOAD PUSH3 0x17B5 CODESIZE SUB DUP1 PUSH3 0x17B5 DUP4 CODECOPY DUP2 DUP2 ADD PUSH1 0x40 MSTORE DUP2 ADD SWAP1 PUSH3 0x37 SWAP2 SWAP1 PUSH3 0x272 JUMP JUMPDEST DUP5 PUSH1 0x0 SWAP1 DUP2 PUSH3 0x48 SWAP2 SWAP1 PUSH3 0x5EA JUMP JUMPDEST POP DUP6 PUSH1 0x1 SWAP1 DUP2 PUSH3 0x5A SWAP2 SWAP1 PUSH3 0x5EA JUMP JUMPDEST POP DUP4 PUSH1 0x2 SWAP1 DUP2 PUSH3 0x6C SWAP2 SWAP1 PUSH3 0x5EA JUMP JUMPDEST POP DUP3 PUSH1 0x3 SWAP1 DUP2 PUSH3 0x7E SWAP2 SWAP1 PUSH3 0x5EA JUMP JUMPDEST POP DUP2 PUSH1 0x4 SWAP1 DUP2 PUSH3 0x90 SWAP2 SWAP1 PUSH3 0x5EA JUMP JUMPDEST POP DUP1 PUSH1 0x5 DUP2 SWAP1 SSTORE POP POP POP POP POP POP POP PUSH3 0x6D1 JUMP JUMPDEST PUSH1 0x0 PUSH1 0x40 MLOAD SWAP1 POP SWAP1 JUMP JUMPDEST PUSH1 0x0 DUP1 REVERT JUMPDEST PUSH1 0x0 DUP1 REVERT JUMPDEST PUSH1 0x0 DUP1 REVERT JUMPDEST PUSH1 0x0 DUP1 REVERT JUMPDEST PUSH1 0x0 PUSH1 0x1F NOT PUSH1 0x1F DUP4 ADD AND SWAP1 POP SWAP2 SWAP1 POP JUMP JUMPDEST PUSH32 0x4E487B7100000000000000000000000000000000000000000000000000000000 PUSH1 0x0 MSTORE PUSH1 0x41 PUSH1 0x4 MSTORE PUSH1 0x24 PUSH1 0x0 REVERT JUMPDEST PUSH3 0x10D DUP3 PUSH3 0xC2 JUMP JUMPDEST DUP2 ADD DUP2 DUP2 LT PUSH8 0xFFFFFFFFFFFFFFFF DUP3 GT OR ISZERO PUSH3 0x12F JUMPI PUSH3 0x12E PUSH3 0xD3 JUMP JUMPDEST JUMPDEST DUP1 PUSH1 0x40 MSTORE POP POP POP JUMP JUMPDEST PUSH1 0x0 PUSH3 0x144 PUSH3 0xA4 JUMP JUMPDEST SWAP1 POP PUSH3 0x152 DUP3 DUP3 PUSH3 0x102 JUMP JUMPDEST SWAP2 SWAP1 POP JUMP JUMPDEST PUSH1 0x0 PUSH8 0xFFFFFFFFFFFFFFFF DUP3 GT ISZERO PUSH3 0x175 JUMPI PUSH3 0x174 PUSH3 0xD3 JUMP JUMPDEST JUMPDEST PUSH3 0x180 DUP3 PUSH3 0xC2 JUMP JUMPDEST SWAP1 POP PUSH1 0x20 DUP2 ADD SWAP1 POP SWAP2 SWAP1 POP JUMP JUMPDEST PUSH1 0x0 JUMPDEST DUP4 DUP2 LT ISZERO PUSH3 0x1AD JUMPI DUP1 DUP3 ADD MLOAD DUP2 DUP5 ADD MSTORE PUSH1 0x20 DUP2 ADD SWAP1 POP PUSH3 0x190 JUMP JUMPDEST PUSH1 0x0 DUP5 DUP5 ADD MSTORE POP POP POP POP JUMP JUMPDEST PUSH1 0x0 PUSH3 0x1D0 PUSH3 0x1CA DUP5 PUSH3 0x157 JUMP JUMPDEST PUSH3 0x138 JUMP JUMPDEST SWAP1 POP DUP3 DUP2 MSTORE PUSH1 0x20 DUP2 ADD DUP5 DUP5 DUP5 ADD GT ISZERO PUSH3 0x1EF JUMPI PUSH3 0x1EE PUSH3 0xBD JUMP JUMPDEST JUMPDEST PUSH3 0x1FC DUP5 DUP3 DUP6 PUSH3 0x18D JUMP JUMPDEST POP SWAP4 SWAP3 POP POP POP JUMP JUMPDEST PUSH1 0x0 DUP3 PUSH1 0x1F DUP4 ADD SLT PUSH3 0x21C JUMPI PUSH3 0x21B PUSH3 0xB8 JUMP JUMPDEST JUMPDEST DUP2 MLOAD PUSH3 0x22E DUP5 DUP3 PUSH1 0x20 DUP7 ADD PUSH3 0x1B9 JUMP JUMPDEST SWAP2 POP POP SWAP3 SWAP2 POP POP JUMP JUMPDEST PUSH1 0x0 DUP2 SWAP1 POP SWAP2 SWAP1 POP JUMP JUMPDEST PUSH3 0x24C DUP2 PUSH3 0x237 JUMP JUMPDEST DUP2 EQ PUSH3 0x258 JUMPI PUSH1 0x0 DUP1 REVERT JUMPDEST POP JUMP JUMPDEST PUSH1 0x0 DUP2 MLOAD SWAP1 POP PUSH3 0x26C DUP2 PUSH3 0x241 JUMP JUMPDEST SWAP3 SWAP2 POP POP JUMP JUMPDEST PUSH1 0x0 DUP1 PUSH1 0x0 DUP1 PUSH1 0x0 DUP1 PUSH1 0xC0 DUP8 DUP10 SUB SLT ISZERO PUSH3 0x292 JUMPI PUSH3 0x291 PUSH3 0xAE JUMP JUMPDEST JUMPDEST PUSH1 0x0 DUP8 ADD MLOAD PUSH8 0xFFFFFFFFFFFFFFFF DUP2 GT ISZERO PUSH3 0x2B3 JUMPI PUSH3 0x2B2 PUSH3 0xB3 JUMP JUMPDEST JUMPDEST PUSH3 0x2C1 DUP10 DUP3 DUP11 ADD PUSH3 0x204 JUMP JUMPDEST SWAP7 POP POP PUSH1 0x20 DUP8 ADD MLOAD PUSH8 0xFFFFFFFFFFFFFFFF DUP2 GT ISZERO PUSH3 0x2E5 JUMPI PUSH3 0x2E4 PUSH3 0xB3 JUMP JUMPDEST JUMPDEST PUSH3 0x2F3 DUP10 DUP3 DUP11 ADD PUSH3 0x204 JUMP JUMPDEST SWAP6 POP POP PUSH1 0x40 DUP8 ADD MLOAD PUSH8 0xFFFFFFFFFFFFFFFF DUP2 GT ISZERO PUSH3 0x317 JUMPI PUSH3 0x316 PUSH3 0xB3 JUMP JUMPDEST JUMPDEST PUSH3 0x325 DUP10 DUP3 DUP11 ADD PUSH3 0x204 JUMP JUMPDEST SWAP5 POP POP PUSH1 0x60 DUP8 ADD MLOAD PUSH8 0xFFFFFFFFFFFFFFFF DUP2 GT ISZERO PUSH3 0x349 JUMPI PUSH3 0x348 PUSH3 0xB3 JUMP JUMPDEST JUMPDEST PUSH3 0x357 DUP10 DUP3 DUP11 ADD PUSH3 0x204 JUMP JUMPDEST SWAP4 POP POP PUSH1 0x80 DUP8 ADD MLOAD PUSH8 0xFFFFFFFFFFFFFFFF DUP2 GT ISZERO PUSH3 0x37B JUMPI PUSH3 0x37A PUSH3 0xB3 JUMP JUMPDEST JUMPDEST PUSH3 0x389 DUP10 DUP3 DUP11 ADD PUSH3 0x204 JUMP JUMPDEST SWAP3 POP POP PUSH1 0xA0 PUSH3 0x39C DUP10 DUP3 DUP11 ADD PUSH3 0x25B JUMP JUMPDEST SWAP2 POP POP SWAP3 SWAP6 POP SWAP3 SWAP6 POP SWAP3 SWAP6 JUMP JUMPDEST PUSH1 0x0 DUP2 MLOAD SWAP1 POP SWAP2 SWAP1 POP JUMP JUMPDEST PUSH32 0x4E487B7100000000000000000000000000000000000000000000000000000000 PUSH1 0x0 MSTORE PUSH1 0x22 PUSH1 0x4 MSTORE PUSH1 0x24 PUSH1 0x0 REVERT JUMPDEST PUSH1 0x0 PUSH1 0x2 DUP3 DIV SWAP1 POP PUSH1 0x1 DUP3 AND DUP1 PUSH3 0x3FC JUMPI PUSH1 0x7F DUP3 AND SWAP2 POP JUMPDEST PUSH1 0x20 DUP3 LT DUP2 SUB PUSH3 0x412 JUMPI PUSH3 0x411 PUSH3 0x3B4 JUMP JUMPDEST JUMPDEST POP SWAP2 SWAP1 POP JUMP JUMPDEST PUSH1 0x0 DUP2 SWAP1 POP DUP2 PUSH1 0x0 MSTORE PUSH1 0x20 PUSH1 0x0 KECCAK256 SWAP1 POP SWAP2 SWAP1 POP JUMP JUMPDEST PUSH1 0x0 PUSH1 0x20 PUSH1 0x1F DUP4 ADD DIV SWAP1 POP SWAP2 SWAP1 POP JUMP JUMPDEST PUSH1 0x0 DUP3 DUP3 SHL SWAP1 POP SWAP3 SWAP2 POP POP JUMP JUMPDEST PUSH1 0x0 PUSH1 0x8 DUP4 MUL PUSH3 0x47C PUSH32 0xFFFFFFFFFFFFFFFFFFFFFFFFFFFFFFFFFFFFFFFFFFFFFFFFFFFFFFFFFFFFFFFF DUP3 PUSH3 0x43D JUMP JUMPDEST PUSH3 0x488 DUP7 DUP4 PUSH3 0x43D JUMP JUMPDEST SWAP6 POP DUP1 NOT DUP5 AND SWAP4 POP DUP1 DUP7 AND DUP5 OR SWAP3 POP POP POP SWAP4 SWAP3 POP POP POP JUMP JUMPDEST PUSH1 0x0 DUP2 SWAP1 POP SWAP2 SWAP1 POP JUMP JUMPDEST PUSH1 0x0 PUSH3 0x4CB PUSH3 0x4C5 PUSH3 0x4BF DUP5 PUSH3 0x237 JUMP JUMPDEST PUSH3 0x4A0 JUMP JUMPDEST PUSH3 0x237 JUMP JUMPDEST SWAP1 POP SWAP2 SWAP1 POP JUMP JUMPDEST PUSH1 0x0 DUP2 SWAP1 POP SWAP2 SWAP1 POP JUMP JUMPDEST PUSH3 0x4E7 DUP4 PUSH3 0x4AA JUMP JUMPDEST PUSH3 0x4FF PUSH3 0x4F6 DUP3 PUSH3 0x4D2 JUMP JUMPDEST DUP5 DUP5 SLOAD PUSH3 0x44A JUMP JUMPDEST DUP3 SSTORE POP POP POP POP JUMP JUMPDEST PUSH1 0x0 SWAP1 JUMP JUMPDEST PUSH3 0x516 PUSH3 0x507 JUMP JUMPDEST PUSH3 0x523 DUP2 DUP5 DUP5 PUSH3 0x4DC JUMP JUMPDEST POP POP POP JUMP JUMPDEST JUMPDEST DUP2 DUP2 LT ISZERO PUSH3 0x54B JUMPI PUSH3 0x53F PUSH1 0x0 DUP3 PUSH3 0x50C JUMP JUMPDEST PUSH1 0x1 DUP2 ADD SWAP1 POP PUSH3 0x529 JUMP JUMPDEST POP POP JUMP JUMPDEST PUSH1 0x1F DUP3 GT ISZERO PUSH3 0x59A JUMPI PUSH3 0x564 DUP2 PUSH3 0x418 JUMP JUMPDEST PUSH3 0x56F DUP5 PUSH3 0x42D JUMP JUMPDEST DUP2 ADD PUSH1 0x20 DUP6 LT ISZERO PUSH3 0x57F JUMPI DUP2 SWAP1 POP JUMPDEST PUSH3 0x597 PUSH3 0x58E DUP6 PUSH3 0x42D JUMP JUMPDEST DUP4 ADD DUP3 PUSH3 0x528 JUMP JUMPDEST POP POP JUMPDEST POP POP POP JUMP JUMPDEST PUSH1 0x0 DUP3 DUP3 SHR SWAP1 POP SWAP3 SWAP2 POP POP JUMP JUMPDEST PUSH1 0x0 PUSH3 0x5BF PUSH1 0x0 NOT DUP5 PUSH1 0x8 MUL PUSH3 0x59F JUMP JUMPDEST NOT DUP1 DUP4 AND SWAP2 POP POP SWAP3 SWAP2 POP POP JUMP JUMPDEST PUSH1 0x0 PUSH3 0x5DA DUP4 DUP4 PUSH3 0x5AC JUMP JUMPDEST SWAP2 POP DUP3 PUSH1 0x2 MUL DUP3 OR SWAP1 POP SWAP3 SWAP2 POP POP JUMP JUMPDEST PUSH3 0x5F5 DUP3 PUSH3 0x3A9 JUMP JUMPDEST PUSH8 0xFFFFFFFFFFFFFFFF DUP2 GT ISZERO PUSH3 0x611 JUMPI PUSH3 0x610 PUSH3 0xD3 JUMP JUMPDEST JUMPDEST PUSH3 0x61D DUP3 SLOAD PUSH3 0x3E3 JUMP JUMPDEST PUSH3 0x62A DUP3 DUP3 DUP6 PUSH3 0x54F JUMP JUMPDEST PUSH1 0x0 PUSH1 0x20 SWAP1 POP PUSH1 0x1F DUP4 GT PUSH1 0x1 DUP2 EQ PUSH3 0x662 JUMPI PUSH1 0x0 DUP5 ISZERO PUSH3 0x64D JUMPI DUP3 DUP8 ADD MLOAD SWAP1 POP JUMPDEST PUSH3 0x659 DUP6 DUP3 PUSH3 0x5CC JUMP JUMPDEST DUP7 SSTORE POP PUSH3 0x6C9 JUMP JUMPDEST PUSH1 0x1F NOT DUP5 AND PUSH3 0x672 DUP7 PUSH3 0x418 JUMP JUMPDEST PUSH1 0x0 JUMPDEST DUP3 DUP2 LT ISZERO PUSH3 0x69C JUMPI DUP5 DUP10 ADD MLOAD DUP3 SSTORE PUSH1 0x1 DUP3 ADD SWAP2 POP PUSH1 0x20 DUP6 ADD SWAP5 POP PUSH1 0x20 DUP2 ADD SWAP1 POP PUSH3 0x675 JUMP JUMPDEST DUP7 DUP4 LT ISZERO PUSH3 0x6BC JUMPI DUP5 DUP10 ADD MLOAD PUSH3 0x6B8 PUSH1 0x1F DUP10 AND DUP3 PUSH3 0x5AC JUMP JUMPDEST DUP4 SSTORE POP JUMPDEST PUSH1 0x1 PUSH1 0x2 DUP9 MUL ADD DUP9 SSTORE POP POP POP JUMPDEST POP POP POP POP POP POP JUMP JUMPDEST PUSH2 0x10D4 DUP1 PUSH3 0x6E1 PUSH1 0x0 CODECOPY PUSH1 0x0 RETURN INVALID PUSH1 0x80 PUSH1 0x40 MSTORE CALLVALUE DUP1 ISZERO PUSH2 0x10 JUMPI PUSH1 0x0 DUP1 REVERT JUMPDEST POP PUSH1 0x4 CALLDATASIZE LT PUSH2 0xF5 JUMPI PUSH1 0x0 CALLDATALOAD PUSH1 0xE0 SHR DUP1 PUSH4 0x9E650A49 GT PUSH2 0x97 JUMPI DUP1 PUSH4 0xDA235B22 GT PUSH2 0x66 JUMPI DUP1 PUSH4 0xDA235B22 EQ PUSH2 0x240 JUMPI DUP1 PUSH4 0xDDD57872 EQ PUSH2 0x25E JUMPI DUP1 PUSH4 0xE480D4D7 EQ PUSH2 0x27A JUMPI DUP1 PUSH4 0xFA540801 EQ PUSH2 0x2AA JUMPI PUSH2 0xF5 JUMP JUMPDEST DUP1 PUSH4 0x9E650A49 EQ PUSH2 0x1CA JUMPI DUP1 PUSH4 0xA85A940B EQ PUSH2 0x1E6 JUMPI DUP1 PUSH4 0xB80777EA EQ PUSH2 0x204 JUMPI DUP1 PUSH4 0xC4701516 EQ PUSH2 0x222 JUMPI PUSH2 0xF5 JUMP JUMPDEST DUP1 PUSH4 0x40401FEA GT PUSH2 0xD3 JUMPI DUP1 PUSH4 0x40401FEA EQ PUSH2 0x154 JUMPI DUP1 PUSH4 0x516DDE43 EQ PUSH2 0x172 JUMPI DUP1 PUSH4 0x6C6526AA EQ PUSH2 0x190 JUMPI DUP1 PUSH4 0x98727A0E EQ PUSH2 0x1AC JUMPI PUSH2 0xF5 JUMP JUMPDEST DUP1 PUSH4 0x11A08D01 EQ PUSH2 0xFA JUMPI DUP1 PUSH4 0x17D7DE7C EQ PUSH2 0x118 JUMPI DUP1 PUSH4 0x2D8ED84A EQ PUSH2 0x136 JUMPI JUMPDEST PUSH1 0x0 DUP1 REVERT JUMPDEST PUSH2 0x102 PUSH2 0x2DA JUMP JUMPDEST PUSH1 0x40 MLOAD PUSH2 0x10F SWAP2 SWAP1 PUSH2 0x930 JUMP JUMPDEST PUSH1 0x40 MLOAD DUP1 SWAP2 SUB SWAP1 RETURN JUMPDEST PUSH2 0x120 PUSH2 0x36C JUMP JUMPDEST PUSH1 0x40 MLOAD PUSH2 0x12D SWAP2 SWAP1 PUSH2 0x930 JUMP JUMPDEST PUSH1 0x40 MLOAD DUP1 SWAP2 SUB SWAP1 RETURN JUMPDEST PUSH2 0x13E PUSH2 0x3FE JUMP JUMPDEST PUSH1 0x40 MLOAD PUSH2 0x14B SWAP2 SWAP1 PUSH2 0x930 JUMP JUMPDEST PUSH1 0x40 MLOAD DUP1 SWAP2 SUB SWAP1 RETURN JUMPDEST PUSH2 0x15C PUSH2 0x490 JUMP JUMPDEST PUSH1 0x40 MLOAD PUSH2 0x169 SWAP2 SWAP1 PUSH2 0x930 JUMP JUMPDEST PUSH1 0x40 MLOAD DUP1 SWAP2 SUB SWAP1 RETURN JUMPDEST PUSH2 0x17A PUSH2 0x51E JUMP JUMPDEST PUSH1 0x40 MLOAD PUSH2 0x187 SWAP2 SWAP1 PUSH2 0x930 JUMP JUMPDEST PUSH1 0x40 MLOAD DUP1 SWAP2 SUB SWAP1 RETURN JUMPDEST PUSH2 0x1AA PUSH1 0x4 DUP1 CALLDATASIZE SUB DUP2 ADD SWAP1 PUSH2 0x1A5 SWAP2 SWAP1 PUSH2 0xA9B JUMP JUMPDEST PUSH2 0x5AC JUMP JUMPDEST STOP JUMPDEST PUSH2 0x1B4 PUSH2 0x5BF JUMP JUMPDEST PUSH1 0x40 MLOAD PUSH2 0x1C1 SWAP2 SWAP1 PUSH2 0x930 JUMP JUMPDEST PUSH1 0x40 MLOAD DUP1 SWAP2 SUB SWAP1 RETURN JUMPDEST PUSH2 0x1E4 PUSH1 0x4 DUP1 CALLDATASIZE SUB DUP2 ADD SWAP1 PUSH2 0x1DF SWAP2 SWAP1 PUSH2 0xA9B JUMP JUMPDEST PUSH2 0x64D JUMP JUMPDEST STOP JUMPDEST PUSH2 0x1EE PUSH2 0x660 JUMP JUMPDEST PUSH1 0x40 MLOAD PUSH2 0x1FB SWAP2 SWAP1 PUSH2 0x930 JUMP JUMPDEST PUSH1 0x40 MLOAD DUP1 SWAP2 SUB SWAP1 RETURN JUMPDEST PUSH2 0x20C PUSH2 0x6EE JUMP JUMPDEST PUSH1 0x40 MLOAD PUSH2 0x219 SWAP2 SWAP1 PUSH2 0x930 JUMP JUMPDEST PUSH1 0x40 MLOAD DUP1 SWAP2 SUB SWAP1 RETURN JUMPDEST PUSH2 0x22A PUSH2 0x77C JUMP JUMPDEST PUSH1 0x40 MLOAD PUSH2 0x237 SWAP2 SWAP1 PUSH2 0xAFD JUMP JUMPDEST PUSH1 0x40 MLOAD DUP1 SWAP2 SUB SWAP1 RETURN JUMPDEST PUSH2 0x248 PUSH2 0x782 JUMP JUMPDEST PUSH1 0x40 MLOAD PUSH2 0x255 SWAP2 SWAP1 PUSH2 0x930 JUMP JUMPDEST PUSH1 0x40 MLOAD DUP1 SWAP2 SUB SWAP1 RETURN JUMPDEST PUSH2 0x278 PUSH1 0x4 DUP1 CALLDATASIZE SUB DUP2 ADD SWAP1 PUSH2 0x273 SWAP2 SWAP1 PUSH2 0xA9B JUMP JUMPDEST PUSH2 0x814 JUMP JUMPDEST STOP JUMPDEST PUSH2 0x294 PUSH1 0x4 DUP1 CALLDATASIZE SUB DUP2 ADD SWAP1 PUSH2 0x28F SWAP2 SWAP1 PUSH2 0xB18 JUMP JUMPDEST PUSH2 0x827 JUMP JUMPDEST PUSH1 0x40 MLOAD PUSH2 0x2A1 SWAP2 SWAP1 PUSH2 0xC38 JUMP JUMPDEST PUSH1 0x40 MLOAD DUP1 SWAP2 SUB SWAP1 RETURN JUMPDEST PUSH2 0x2C4 PUSH1 0x4 DUP1 CALLDATASIZE SUB DUP2 ADD SWAP1 PUSH2 0x2BF SWAP2 SWAP1 PUSH2 0xC7F JUMP JUMPDEST PUSH2 0x870 JUMP JUMPDEST PUSH1 0x40 MLOAD PUSH2 0x2D1 SWAP2 SWAP1 PUSH2 0xC38 JUMP JUMPDEST PUSH1 0x40 MLOAD DUP1 SWAP2 SUB SWAP1 RETURN JUMPDEST PUSH1 0x60 PUSH1 0x2 DUP1 SLOAD PUSH2 0x2E9 SWAP1 PUSH2 0xCDB JUMP JUMPDEST DUP1 PUSH1 0x1F ADD PUSH1 0x20 DUP1 SWAP2 DIV MUL PUSH1 0x20 ADD PUSH1 0x40 MLOAD SWAP1 DUP2 ADD PUSH1 0x40 MSTORE DUP1 SWAP3 SWAP2 SWAP1 DUP2 DUP2 MSTORE PUSH1 0x20 ADD DUP3 DUP1 SLOAD PUSH2 0x315 SWAP1 PUSH2 0xCDB JUMP JUMPDEST DUP1 ISZERO PUSH2 0x362 JUMPI DUP1 PUSH1 0x1F LT PUSH2 0x337 JUMPI PUSH2 0x100 DUP1 DUP4 SLOAD DIV MUL DUP4 MSTORE SWAP2 PUSH1 0x20 ADD SWAP2 PUSH2 0x362 JUMP JUMPDEST DUP3 ADD SWAP2 SWAP1 PUSH1 0x0 MSTORE PUSH1 0x20 PUSH1 0x0 KECCAK256 SWAP1 JUMPDEST DUP2 SLOAD DUP2 MSTORE SWAP1 PUSH1 0x1 ADD SWAP1 PUSH1 0x20 ADD DUP1 DUP4 GT PUSH2 0x345 JUMPI DUP3 SWAP1 SUB PUSH1 0x1F AND DUP3 ADD SWAP2 JUMPDEST POP POP POP POP POP SWAP1 POP SWAP1 JUMP JUMPDEST PUSH1 0x60 PUSH1 0x1 DUP1 SLOAD PUSH2 0x37B SWAP1 PUSH2 0xCDB JUMP JUMPDEST DUP1 PUSH1 0x1F ADD PUSH1 0x20 DUP1 SWAP2 DIV MUL PUSH1 0x20 ADD PUSH1 0x40 MLOAD SWAP1 DUP2 ADD PUSH1 0x40 MSTORE DUP1 SWAP3 SWAP2 SWAP1 DUP2 DUP2 MSTORE PUSH1 0x20 ADD DUP3 DUP1 SLOAD PUSH2 0x3A7 SWAP1 PUSH2 0xCDB JUMP JUMPDEST DUP1 ISZERO PUSH2 0x3F4 JUMPI DUP1 PUSH1 0x1F LT PUSH2 0x3C9 JUMPI PUSH2 0x100 DUP1 DUP4 SLOAD DIV MUL DUP4 MSTORE SWAP2 PUSH1 0x20 ADD SWAP2 PUSH2 0x3F4 JUMP JUMPDEST DUP3 ADD SWAP2 SWAP1 PUSH1 0x0 MSTORE PUSH1 0x20 PUSH1 0x0 KECCAK256 SWAP1 JUMPDEST DUP2 SLOAD DUP2 MSTORE SWAP1 PUSH1 0x1 ADD SWAP1 PUSH1 0x20 ADD DUP1 DUP4 GT PUSH2 0x3D7 JUMPI DUP3 SWAP1 SUB PUSH1 0x1F AND DUP3 ADD SWAP2 JUMPDEST POP POP POP POP POP SWAP1 POP SWAP1 JUMP JUMPDEST PUSH1 0x60 PUSH1 0x3 DUP1 SLOAD PUSH2 0x40D SWAP1 PUSH2 0xCDB JUMP JUMPDEST DUP1 PUSH1 0x1F ADD PUSH1 0x20 DUP1 SWAP2 DIV MUL PUSH1 0x20 ADD PUSH1 0x40 MLOAD SWAP1 DUP2 ADD PUSH1 0x40 MSTORE DUP1 SWAP3 SWAP2 SWAP1 DUP2 DUP2 MSTORE PUSH1 0x20 ADD DUP3 DUP1 SLOAD PUSH2 0x439 SWAP1 PUSH2 0xCDB JUMP JUMPDEST DUP1 ISZERO PUSH2 0x486 JUMPI DUP1 PUSH1 0x1F LT PUSH2 0x45B JUMPI PUSH2 0x100 DUP1 DUP4 SLOAD DIV MUL DUP4 MSTORE SWAP2 PUSH1 0x20 ADD SWAP2 PUSH2 0x486 JUMP JUMPDEST DUP3 ADD SWAP2 SWAP1 PUSH1 0x0 MSTORE PUSH1 0x20 PUSH1 0x0 KECCAK256 SWAP1 JUMPDEST DUP2 SLOAD DUP2 MSTORE SWAP1 PUSH1 0x1 ADD SWAP1 PUSH1 0x20 ADD DUP1 DUP4 GT PUSH2 0x469 JUMPI DUP3 SWAP1 SUB PUSH1 0x1F AND DUP3 ADD SWAP2 JUMPDEST POP POP POP POP POP SWAP1 POP SWAP1 JUMP JUMPDEST PUSH1 0x1 DUP1 SLOAD PUSH2 0x49D SWAP1 PUSH2 0xCDB JUMP JUMPDEST DUP1 PUSH1 0x1F ADD PUSH1 0x20 DUP1 SWAP2 DIV MUL PUSH1 0x20 ADD PUSH1 0x40 MLOAD SWAP1 DUP2 ADD PUSH1 0x40 MSTORE DUP1 SWAP3 SWAP2 SWAP1 DUP2 DUP2 MSTORE PUSH1 0x20 ADD DUP3 DUP1 SLOAD PUSH2 0x4C9 SWAP1 PUSH2 0xCDB JUMP JUMPDEST DUP1 ISZERO PUSH2 0x516 JUMPI DUP1 PUSH1 0x1F LT PUSH2 0x4EB JUMPI PUSH2 0x100 DUP1 DUP4 SLOAD DIV MUL DUP4 MSTORE SWAP2 PUSH1 0x20 ADD SWAP2 PUSH2 0x516 JUMP JUMPDEST DUP3 ADD SWAP2 SWAP1 PUSH1 0x0 MSTORE PUSH1 0x20 PUSH1 0x0 KECCAK256 SWAP1 JUMPDEST DUP2 SLOAD DUP2 MSTORE SWAP1 PUSH1 0x1 ADD SWAP1 PUSH1 0x20 ADD DUP1 DUP4 GT PUSH2 0x4F9 JUMPI DUP3 SWAP1 SUB PUSH1 0x1F AND DUP3 ADD SWAP2 JUMPDEST POP POP POP POP POP DUP2 JUMP JUMPDEST PUSH1 0x3 DUP1 SLOAD PUSH2 0x52B SWAP1 PUSH2 0xCDB JUMP JUMPDEST DUP1 PUSH1 0x1F ADD PUSH1 0x20 DUP1 SWAP2 DIV MUL PUSH1 0x20 ADD PUSH1 0x40 MLOAD SWAP1 DUP2 ADD PUSH1 0x40 MSTORE DUP1 SWAP3 SWAP2 SWAP1 DUP2 DUP2 MSTORE PUSH1 0x20 ADD DUP3 DUP1 SLOAD PUSH2 0x557 SWAP1 PUSH2 0xCDB JUMP JUMPDEST DUP1 ISZERO PUSH2 0x5A4 JUMPI DUP1 PUSH1 0x1F LT PUSH2 0x579 JUMPI PUSH2 0x100 DUP1 DUP4 SLOAD DIV MUL DUP4 MSTORE SWAP2 PUSH1 0x20 ADD SWAP2 PUSH2 0x5A4 JUMP JUMPDEST DUP3 ADD SWAP2 SWAP1 PUSH1 0x0 MSTORE PUSH1 0x20 PUSH1 0x0 KECCAK256 SWAP1 JUMPDEST DUP2 SLOAD DUP2 MSTORE SWAP1 PUSH1 0x1 ADD SWAP1 PUSH1 0x20 ADD DUP1 DUP4 GT PUSH2 0x587 JUMPI DUP3 SWAP1 SUB PUSH1 0x1F AND DUP3 ADD SWAP2 JUMPDEST POP POP POP POP POP DUP2 JUMP JUMPDEST DUP1 PUSH1 0x2 SWAP1 DUP2 PUSH2 0x5BB SWAP2 SWAP1 PUSH2 0xEB8 JUMP JUMPDEST POP POP JUMP JUMPDEST PUSH1 0x2 DUP1 SLOAD PUSH2 0x5CC SWAP1 PUSH2 0xCDB JUMP JUMPDEST DUP1 PUSH1 0x1F ADD PUSH1 0x20 DUP1 SWAP2 DIV MUL PUSH1 0x20 ADD PUSH1 0x40 MLOAD SWAP1 DUP2 ADD PUSH1 0x40 MSTORE DUP1 SWAP3 SWAP2 SWAP1 DUP2 DUP2 MSTORE PUSH1 0x20 ADD DUP3 DUP1 SLOAD PUSH2 0x5F8 SWAP1 PUSH2 0xCDB JUMP JUMPDEST DUP1 ISZERO PUSH2 0x645 JUMPI DUP1 PUSH1 0x1F LT PUSH2 0x61A JUMPI PUSH2 0x100 DUP1 DUP4 SLOAD DIV MUL DUP4 MSTORE SWAP2 PUSH1 0x20 ADD SWAP2 PUSH2 0x645 JUMP JUMPDEST DUP3 ADD SWAP2 SWAP1 PUSH1 0x0 MSTORE PUSH1 0x20 PUSH1 0x0 KECCAK256 SWAP1 JUMPDEST DUP2 SLOAD DUP2 MSTORE SWAP1 PUSH1 0x1 ADD SWAP1 PUSH1 0x20 ADD DUP1 DUP4 GT PUSH2 0x628 JUMPI DUP3 SWAP1 SUB PUSH1 0x1F AND DUP3 ADD SWAP2 JUMPDEST POP POP POP POP POP DUP2 JUMP JUMPDEST DUP1 PUSH1 0x3 SWAP1 DUP2 PUSH2 0x65C SWAP2 SWAP1 PUSH2 0xEB8 JUMP JUMPDEST POP POP JUMP JUMPDEST PUSH1 0x4 DUP1 SLOAD PUSH2 0x66D SWAP1 PUSH2 0xCDB JUMP JUMPDEST DUP1 PUSH1 0x1F ADD PUSH1 0x20 DUP1 SWAP2 DIV MUL PUSH1 0x20 ADD PUSH1 0x40 MLOAD SWAP1 DUP2 ADD PUSH1 0x40 MSTORE DUP1 SWAP3 SWAP2 SWAP1 DUP2 DUP2 MSTORE PUSH1 0x20 ADD DUP3 DUP1 SLOAD PUSH2 0x699 SWAP1 PUSH2 0xCDB JUMP JUMPDEST DUP1 ISZERO PUSH2 0x6E6 JUMPI DUP1 PUSH1 0x1F LT PUSH2 0x6BB JUMPI PUSH2 0x100 DUP1 DUP4 SLOAD DIV MUL DUP4 MSTORE SWAP2 PUSH1 0x20 ADD SWAP2 PUSH2 0x6E6 JUMP JUMPDEST DUP3 ADD SWAP2 SWAP1 PUSH1 0x0 MSTORE PUSH1 0x20 PUSH1 0x0 KECCAK256 SWAP1 JUMPDEST DUP2 SLOAD DUP2 MSTORE SWAP1 PUSH1 0x1 ADD SWAP1 PUSH1 0x20 ADD DUP1 DUP4 GT PUSH2 0x6C9 JUMPI DUP3 SWAP1 SUB PUSH1 0x1F AND DUP3 ADD SWAP2 JUMPDEST POP POP POP POP POP DUP2 JUMP JUMPDEST PUSH1 0x0 DUP1 SLOAD PUSH2 0x6FB SWAP1 PUSH2 0xCDB JUMP JUMPDEST DUP1 PUSH1 0x1F ADD PUSH1 0x20 DUP1 SWAP2 DIV MUL PUSH1 0x20 ADD PUSH1 0x40 MLOAD SWAP1 DUP2 ADD PUSH1 0x40 MSTORE DUP1 SWAP3 SWAP2 SWAP1 DUP2 DUP2 MSTORE PUSH1 0x20 ADD DUP3 DUP1 SLOAD PUSH2 0x727 SWAP1 PUSH2 0xCDB JUMP JUMPDEST DUP1 ISZERO PUSH2 0x774 JUMPI DUP1 PUSH1 0x1F LT PUSH2 0x749 JUMPI PUSH2 0x100 DUP1 DUP4 SLOAD DIV MUL DUP4 MSTORE SWAP2 PUSH1 0x20 ADD SWAP2 PUSH2 0x774 JUMP JUMPDEST DUP3 ADD SWAP2 SWAP1 PUSH1 0x0 MSTORE PUSH1 0x20 PUSH1 0x0 KECCAK256 SWAP1 JUMPDEST DUP2 SLOAD DUP2 MSTORE SWAP1 PUSH1 0x1 ADD SWAP1 PUSH1 0x20 ADD DUP1 DUP4 GT PUSH2 0x757 JUMPI DUP3 SWAP1 SUB PUSH1 0x1F AND DUP3 ADD SWAP2 JUMPDEST POP POP POP POP POP DUP2 JUMP JUMPDEST PUSH1 0x5 SLOAD DUP2 JUMP JUMPDEST PUSH1 0x60 PUSH1 0x0 DUP1 SLOAD PUSH2 0x791 SWAP1 PUSH2 0xCDB JUMP JUMPDEST DUP1 PUSH1 0x1F ADD PUSH1 0x20 DUP1 SWAP2 DIV MUL PUSH1 0x20 ADD PUSH1 0x40 MLOAD SWAP1 DUP2 ADD PUSH1 0x40 MSTORE DUP1 SWAP3 SWAP2 SWAP1 DUP2 DUP2 MSTORE PUSH1 0x20 ADD DUP3 DUP1 SLOAD PUSH2 0x7BD SWAP1 PUSH2 0xCDB JUMP JUMPDEST DUP1 ISZERO PUSH2 0x80A JUMPI DUP1 PUSH1 0x1F LT PUSH2 0x7DF JUMPI PUSH2 0x100 DUP1 DUP4 SLOAD DIV MUL DUP4 MSTORE SWAP2 PUSH1 0x20 ADD SWAP2 PUSH2 0x80A JUMP JUMPDEST DUP3 ADD SWAP2 SWAP1 PUSH1 0x0 MSTORE PUSH1 0x20 PUSH1 0x0 KECCAK256 SWAP1 JUMPDEST DUP2 SLOAD DUP2 MSTORE SWAP1 PUSH1 0x1 ADD SWAP1 PUSH1 0x20 ADD DUP1 DUP4 GT PUSH2 0x7ED JUMPI DUP3 SWAP1 SUB PUSH1 0x1F AND DUP3 ADD SWAP2 JUMPDEST POP POP POP POP POP SWAP1 POP SWAP1 JUMP JUMPDEST DUP1 PUSH1 0x0 SWAP1 DUP2 PUSH2 0x823 SWAP2 SWAP1 PUSH2 0xEB8 JUMP JUMPDEST POP POP JUMP JUMPDEST PUSH1 0x0 DUP1 DUP7 DUP7 DUP7 DUP7 DUP7 PUSH1 0x40 MLOAD PUSH1 0x20 ADD PUSH2 0x843 SWAP6 SWAP5 SWAP4 SWAP3 SWAP2 SWAP1 PUSH2 0xF8A JUMP JUMPDEST PUSH1 0x40 MLOAD PUSH1 0x20 DUP2 DUP4 SUB SUB DUP2 MSTORE SWAP1 PUSH1 0x40 MSTORE DUP1 MLOAD SWAP1 PUSH1 0x20 ADD KECCAK256 SWAP1 POP PUSH2 0x864 DUP2 PUSH2 0x870 JUMP JUMPDEST SWAP2 POP POP SWAP6 SWAP5 POP POP POP POP POP JUMP JUMPDEST PUSH1 0x0 DUP2 PUSH1 0x40 MLOAD PUSH1 0x20 ADD PUSH2 0x883 SWAP2 SWAP1 PUSH2 0x1078 JUMP JUMPDEST PUSH1 0x40 MLOAD PUSH1 0x20 DUP2 DUP4 SUB SUB DUP2 MSTORE SWAP1 PUSH1 0x40 MSTORE DUP1 MLOAD SWAP1 PUSH1 0x20 ADD KECCAK256 SWAP1 POP SWAP2 SWAP1 POP JUMP JUMPDEST PUSH1 0x0 DUP2 MLOAD SWAP1 POP SWAP2 SWAP1 POP JUMP JUMPDEST PUSH1 0x0 DUP3 DUP3 MSTORE PUSH1 0x20 DUP3 ADD SWAP1 POP SWAP3 SWAP2 POP POP JUMP JUMPDEST PUSH1 0x0 JUMPDEST DUP4 DUP2 LT ISZERO PUSH2 0x8DA JUMPI DUP1 DUP3 ADD MLOAD DUP2 DUP5 ADD MSTORE PUSH1 0x20 DUP2 ADD SWAP1 POP PUSH2 0x8BF JUMP JUMPDEST PUSH1 0x0 DUP5 DUP5 ADD MSTORE POP POP POP POP JUMP JUMPDEST PUSH1 0x0 PUSH1 0x1F NOT PUSH1 0x1F DUP4 ADD AND SWAP1 POP SWAP2 SWAP1 POP JUMP JUMPDEST PUSH1 0x0 PUSH2 0x902 DUP3 PUSH2 0x8A0 JUMP JUMPDEST PUSH2 0x90C DUP2 DUP6 PUSH2 0x8AB JUMP JUMPDEST SWAP4 POP PUSH2 0x91C DUP2 DUP6 PUSH1 0x20 DUP7 ADD PUSH2 0x8BC JUMP JUMPDEST PUSH2 0x925 DUP2 PUSH2 0x8E6 JUMP JUMPDEST DUP5 ADD SWAP2 POP POP SWAP3 SWAP2 POP POP JUMP JUMPDEST PUSH1 0x0 PUSH1 0x20 DUP3 ADD SWAP1 POP DUP2 DUP2 SUB PUSH1 0x0 DUP4 ADD MSTORE PUSH2 0x94A DUP2 DUP5 PUSH2 0x8F7 JUMP JUMPDEST SWAP1 POP SWAP3 SWAP2 POP POP JUMP JUMPDEST PUSH1 0x0 PUSH1 0x40 MLOAD SWAP1 POP SWAP1 JUMP JUMPDEST PUSH1 0x0 DUP1 REVERT JUMPDEST PUSH1 0x0 DUP1 REVERT JUMPDEST PUSH1 0x0 DUP1 REVERT JUMPDEST PUSH1 0x0 DUP1 REVERT JUMPDEST PUSH32 0x4E487B7100000000000000000000000000000000000000000000000000000000 PUSH1 0x0 MSTORE PUSH1 0x41 PUSH1 0x4 MSTORE PUSH1 0x24 PUSH1 0x0 REVERT JUMPDEST PUSH2 0x9A8 DUP3 PUSH2 0x8E6 JUMP JUMPDEST DUP2 ADD DUP2 DUP2 LT PUSH8 0xFFFFFFFFFFFFFFFF DUP3 GT OR ISZERO PUSH2 0x9C7 JUMPI PUSH2 0x9C6 PUSH2 0x970 JUMP JUMPDEST JUMPDEST DUP1 PUSH1 0x40 MSTORE POP POP POP JUMP JUMPDEST PUSH1 0x0 PUSH2 0x9DA PUSH2 0x952 JUMP JUMPDEST SWAP1 POP PUSH2 0x9E6 DUP3 DUP3 PUSH2 0x99F JUMP JUMPDEST SWAP2 SWAP1 POP JUMP JUMPDEST PUSH1 0x0 PUSH8 0xFFFFFFFFFFFFFFFF DUP3 GT ISZERO PUSH2 0xA06 JUMPI PUSH2 0xA05 PUSH2 0x970 JUMP JUMPDEST JUMPDEST PUSH2 0xA0F DUP3 PUSH2 0x8E6 JUMP JUMPDEST SWAP1 POP PUSH1 0x20 DUP2 ADD SWAP1 POP SWAP2 SWAP1 POP JUMP JUMPDEST DUP3 DUP2 DUP4 CALLDATACOPY PUSH1 0x0 DUP4 DUP4 ADD MSTORE POP POP POP JUMP JUMPDEST PUSH1 0x0 PUSH2 0xA3E PUSH2 0xA39 DUP5 PUSH2 0x9EB JUMP JUMPDEST PUSH2 0x9D0 JUMP JUMPDEST SWAP1 POP DUP3 DUP2 MSTORE PUSH1 0x20 DUP2 ADD DUP5 DUP5 DUP5 ADD GT ISZERO PUSH2 0xA5A JUMPI PUSH2 0xA59 PUSH2 0x96B JUMP JUMPDEST JUMPDEST PUSH2 0xA65 DUP5 DUP3 DUP6 PUSH2 0xA1C JUMP JUMPDEST POP SWAP4 SWAP3 POP POP POP JUMP JUMPDEST PUSH1 0x0 DUP3 PUSH1 0x1F DUP4 ADD SLT PUSH2 0xA82 JUMPI PUSH2 0xA81 PUSH2 0x966 JUMP JUMPDEST JUMPDEST DUP2 CALLDATALOAD PUSH2 0xA92 DUP5 DUP3 PUSH1 0x20 DUP7 ADD PUSH2 0xA2B JUMP JUMPDEST SWAP2 POP POP SWAP3 SWAP2 POP POP JUMP JUMPDEST PUSH1 0x0 PUSH1 0x20 DUP3 DUP5 SUB SLT ISZERO PUSH2 0xAB1 JUMPI PUSH2 0xAB0 PUSH2 0x95C JUMP JUMPDEST JUMPDEST PUSH1 0x0 DUP3 ADD CALLDATALOAD PUSH8 0xFFFFFFFFFFFFFFFF DUP2 GT ISZERO PUSH2 0xACF JUMPI PUSH2 0xACE PUSH2 0x961 JUMP JUMPDEST JUMPDEST PUSH2 0xADB DUP5 DUP3 DUP6 ADD PUSH2 0xA6D JUMP JUMPDEST SWAP2 POP POP SWAP3 SWAP2 POP POP JUMP JUMPDEST PUSH1 0x0 DUP2 SWAP1 POP SWAP2 SWAP1 POP JUMP JUMPDEST PUSH2 0xAF7 DUP2 PUSH2 0xAE4 JUMP JUMPDEST DUP3 MSTORE POP POP JUMP JUMPDEST PUSH1 0x0 PUSH1 0x20 DUP3 ADD SWAP1 POP PUSH2 0xB12 PUSH1 0x0 DUP4 ADD DUP5 PUSH2 0xAEE JUMP JUMPDEST SWAP3 SWAP2 POP POP JUMP JUMPDEST PUSH1 0x0 DUP1 PUSH1 0x0 DUP1 PUSH1 0x0 PUSH1 0xA0 DUP7 DUP9 SUB SLT ISZERO PUSH2 0xB34 JUMPI PUSH2 0xB33 PUSH2 0x95C JUMP JUMPDEST JUMPDEST PUSH1 0x0 DUP7 ADD CALLDATALOAD PUSH8 0xFFFFFFFFFFFFFFFF DUP2 GT ISZERO PUSH2 0xB52 JUMPI PUSH2 0xB51 PUSH2 0x961 JUMP JUMPDEST JUMPDEST PUSH2 0xB5E DUP9 DUP3 DUP10 ADD PUSH2 0xA6D JUMP JUMPDEST SWAP6 POP POP PUSH1 0x20 DUP7 ADD CALLDATALOAD PUSH8 0xFFFFFFFFFFFFFFFF DUP2 GT ISZERO PUSH2 0xB7F JUMPI PUSH2 0xB7E PUSH2 0x961 JUMP JUMPDEST JUMPDEST PUSH2 0xB8B DUP9 DUP3 DUP10 ADD PUSH2 0xA6D JUMP JUMPDEST SWAP5 POP POP PUSH1 0x40 DUP7 ADD CALLDATALOAD PUSH8 0xFFFFFFFFFFFFFFFF DUP2 GT ISZERO PUSH2 0xBAC JUMPI PUSH2 0xBAB PUSH2 0x961 JUMP JUMPDEST JUMPDEST PUSH2 0xBB8 DUP9 DUP3 DUP10 ADD PUSH2 0xA6D JUMP JUMPDEST SWAP4 POP POP PUSH1 0x60 DUP7 ADD CALLDATALOAD PUSH8 0xFFFFFFFFFFFFFFFF DUP2 GT ISZERO PUSH2 0xBD9 JUMPI PUSH2 0xBD8 PUSH2 0x961 JUMP JUMPDEST JUMPDEST PUSH2 0xBE5 DUP9 DUP3 DUP10 ADD PUSH2 0xA6D JUMP JUMPDEST SWAP3 POP POP PUSH1 0x80 DUP7 ADD CALLDATALOAD PUSH8 0xFFFFFFFFFFFFFFFF DUP2 GT ISZERO PUSH2 0xC06 JUMPI PUSH2 0xC05 PUSH2 0x961 JUMP JUMPDEST JUMPDEST PUSH2 0xC12 DUP9 DUP3 DUP10 ADD PUSH2 0xA6D JUMP JUMPDEST SWAP2 POP POP SWAP3 SWAP6 POP SWAP3 SWAP6 SWAP1 SWAP4 POP JUMP JUMPDEST PUSH1 0x0 DUP2 SWAP1 POP SWAP2 SWAP1 POP JUMP JUMPDEST PUSH2 0xC32 DUP2 PUSH2 0xC1F JUMP JUMPDEST DUP3 MSTORE POP POP JUMP JUMPDEST PUSH1 0x0 PUSH1 0x20 DUP3 ADD SWAP1 POP PUSH2 0xC4D PUSH1 0x0 DUP4 ADD DUP5 PUSH2 0xC29 JUMP JUMPDEST SWAP3 SWAP2 POP POP JUMP JUMPDEST PUSH2 0xC5C DUP2 PUSH2 0xC1F JUMP JUMPDEST DUP2 EQ PUSH2 0xC67 JUMPI PUSH1 0x0 DUP1 REVERT JUMPDEST POP JUMP JUMPDEST PUSH1 0x0 DUP2 CALLDATALOAD SWAP1 POP PUSH2 0xC79 DUP2 PUSH2 0xC53 JUMP JUMPDEST SWAP3 SWAP2 POP POP JUMP JUMPDEST PUSH1 0x0 PUSH1 0x20 DUP3 DUP5 SUB SLT ISZERO PUSH2 0xC95 JUMPI PUSH2 0xC94 PUSH2 0x95C JUMP JUMPDEST JUMPDEST PUSH1 0x0 PUSH2 0xCA3 DUP5 DUP3 DUP6 ADD PUSH2 0xC6A JUMP JUMPDEST SWAP2 POP POP SWAP3 SWAP2 POP POP JUMP JUMPDEST PUSH32 0x4E487B7100000000000000000000000000000000000000000000000000000000 PUSH1 0x0 MSTORE PUSH1 0x22 PUSH1 0x4 MSTORE PUSH1 0x24 PUSH1 0x0 REVERT JUMPDEST PUSH1 0x0 PUSH1 0x2 DUP3 DIV SWAP1 POP PUSH1 0x1 DUP3 AND DUP1 PUSH2 0xCF3 JUMPI PUSH1 0x7F DUP3 AND SWAP2 POP JUMPDEST PUSH1 0x20 DUP3 LT DUP2 SUB PUSH2 0xD06 JUMPI PUSH2 0xD05 PUSH2 0xCAC JUMP JUMPDEST JUMPDEST POP SWAP2 SWAP1 POP JUMP JUMPDEST PUSH1 0x0 DUP2 SWAP1 POP DUP2 PUSH1 0x0 MSTORE PUSH1 0x20 PUSH1 0x0 KECCAK256 SWAP1 POP SWAP2 SWAP1 POP JUMP JUMPDEST PUSH1 0x0 PUSH1 0x20 PUSH1 0x1F DUP4 ADD DIV SWAP1 POP SWAP2 SWAP1 POP JUMP JUMPDEST PUSH1 0x0 DUP3 DUP3 SHL SWAP1 POP SWAP3 SWAP2 POP POP JUMP JUMPDEST PUSH1 0x0 PUSH1 0x8 DUP4 MUL PUSH2 0xD6E PUSH32 0xFFFFFFFFFFFFFFFFFFFFFFFFFFFFFFFFFFFFFFFFFFFFFFFFFFFFFFFFFFFFFFFF DUP3 PUSH2 0xD31 JUMP JUMPDEST PUSH2 0xD78 DUP7 DUP4 PUSH2 0xD31 JUMP JUMPDEST SWAP6 POP DUP1 NOT DUP5 AND SWAP4 POP DUP1 DUP7 AND DUP5 OR SWAP3 POP POP POP SWAP4 SWAP3 POP POP POP JUMP JUMPDEST PUSH1 0x0 DUP2 SWAP1 POP SWAP2 SWAP1 POP JUMP JUMPDEST PUSH1 0x0 PUSH2 0xDB5 PUSH2 0xDB0 PUSH2 0xDAB DUP5 PUSH2 0xAE4 JUMP JUMPDEST PUSH2 0xD90 JUMP JUMPDEST PUSH2 0xAE4 JUMP JUMPDEST SWAP1 POP SWAP2 SWAP1 POP JUMP JUMPDEST PUSH1 0x0 DUP2 SWAP1 POP SWAP2 SWAP1 POP JUMP JUMPDEST PUSH2 0xDCF DUP4 PUSH2 0xD9A JUMP JUMPDEST PUSH2 0xDE3 PUSH2 0xDDB DUP3 PUSH2 0xDBC JUMP JUMPDEST DUP5 DUP5 SLOAD PUSH2 0xD3E JUMP JUMPDEST DUP3 SSTORE POP POP POP POP JUMP JUMPDEST PUSH1 0x0 SWAP1 JUMP JUMPDEST PUSH2 0xDF8 PUSH2 0xDEB JUMP JUMPDEST PUSH2 0xE03 DUP2 DUP5 DUP5 PUSH2 0xDC6 JUMP JUMPDEST POP POP POP JUMP JUMPDEST JUMPDEST DUP2 DUP2 LT ISZERO PUSH2 0xE27 JUMPI PUSH2 0xE1C PUSH1 0x0 DUP3 PUSH2 0xDF0 JUMP JUMPDEST PUSH1 0x1 DUP2 ADD SWAP1 POP PUSH2 0xE09 JUMP JUMPDEST POP POP JUMP JUMPDEST PUSH1 0x1F DUP3 GT ISZERO PUSH2 0xE6C JUMPI PUSH2 0xE3D DUP2 PUSH2 0xD0C JUMP JUMPDEST PUSH2 0xE46 DUP5 PUSH2 0xD21 JUMP JUMPDEST DUP2 ADD PUSH1 0x20 DUP6 LT ISZERO PUSH2 0xE55 JUMPI DUP2 SWAP1 POP JUMPDEST PUSH2 0xE69 PUSH2 0xE61 DUP6 PUSH2 0xD21 JUMP JUMPDEST DUP4 ADD DUP3 PUSH2 0xE08 JUMP JUMPDEST POP POP JUMPDEST POP POP POP JUMP JUMPDEST PUSH1 0x0 DUP3 DUP3 SHR SWAP1 POP SWAP3 SWAP2 POP POP JUMP JUMPDEST PUSH1 0x0 PUSH2 0xE8F PUSH1 0x0 NOT DUP5 PUSH1 0x8 MUL PUSH2 0xE71 JUMP JUMPDEST NOT DUP1 DUP4 AND SWAP2 POP POP SWAP3 SWAP2 POP POP JUMP JUMPDEST PUSH1 0x0 PUSH2 0xEA8 DUP4 DUP4 PUSH2 0xE7E JUMP JUMPDEST SWAP2 POP DUP3 PUSH1 0x2 MUL DUP3 OR SWAP1 POP SWAP3 SWAP2 POP POP JUMP JUMPDEST PUSH2 0xEC1 DUP3 PUSH2 0x8A0 JUMP JUMPDEST PUSH8 0xFFFFFFFFFFFFFFFF DUP2 GT ISZERO PUSH2 0xEDA JUMPI PUSH2 0xED9 PUSH2 0x970 JUMP JUMPDEST JUMPDEST PUSH2 0xEE4 DUP3 SLOAD PUSH2 0xCDB JUMP JUMPDEST PUSH2 0xEEF DUP3 DUP3 DUP6 PUSH2 0xE2B JUMP JUMPDEST PUSH1 0x0 PUSH1 0x20 SWAP1 POP PUSH1 0x1F DUP4 GT PUSH1 0x1 DUP2 EQ PUSH2 0xF22 JUMPI PUSH1 0x0 DUP5 ISZERO PUSH2 0xF10 JUMPI DUP3 DUP8 ADD MLOAD SWAP1 POP JUMPDEST PUSH2 0xF1A DUP6 DUP3 PUSH2 0xE9C JUMP JUMPDEST DUP7 SSTORE POP PUSH2 0xF82 JUMP JUMPDEST PUSH1 0x1F NOT DUP5 AND PUSH2 0xF30 DUP7 PUSH2 0xD0C JUMP JUMPDEST PUSH1 0x0 JUMPDEST DUP3 DUP2 LT ISZERO PUSH2 0xF58 JUMPI DUP5 DUP10 ADD MLOAD DUP3 SSTORE PUSH1 0x1 DUP3 ADD SWAP2 POP PUSH1 0x20 DUP6 ADD SWAP5 POP PUSH1 0x20 DUP2 ADD SWAP1 POP PUSH2 0xF33 JUMP JUMPDEST DUP7 DUP4 LT ISZERO PUSH2 0xF75 JUMPI DUP5 DUP10 ADD MLOAD PUSH2 0xF71 PUSH1 0x1F DUP10 AND DUP3 PUSH2 0xE7E JUMP JUMPDEST DUP4 SSTORE POP JUMPDEST PUSH1 0x1 PUSH1 0x2 DUP9 MUL ADD DUP9 SSTORE POP POP POP JUMPDEST POP POP POP POP POP POP JUMP JUMPDEST PUSH1 0x0 PUSH1 0xA0 DUP3 ADD SWAP1 POP DUP2 DUP2 SUB PUSH1 0x0 DUP4 ADD MSTORE PUSH2 0xFA4 DUP2 DUP9 PUSH2 0x8F7 JUMP JUMPDEST SWAP1 POP DUP2 DUP2 SUB PUSH1 0x20 DUP4 ADD MSTORE PUSH2 0xFB8 DUP2 DUP8 PUSH2 0x8F7 JUMP JUMPDEST SWAP1 POP DUP2 DUP2 SUB PUSH1 0x40 DUP4 ADD MSTORE PUSH2 0xFCC DUP2 DUP7 PUSH2 0x8F7 JUMP JUMPDEST SWAP1 POP DUP2 DUP2 SUB PUSH1 0x60 DUP4 ADD MSTORE PUSH2 0xFE0 DUP2 DUP6 PUSH2 0x8F7 JUMP JUMPDEST SWAP1 POP DUP2 DUP2 SUB PUSH1 0x80 DUP4 ADD MSTORE PUSH2 0xFF4 DUP2 DUP5 PUSH2 0x8F7 JUMP JUMPDEST SWAP1 POP SWAP7 SWAP6 POP POP POP POP POP POP JUMP JUMPDEST PUSH1 0x0 DUP2 SWAP1 POP SWAP3 SWAP2 POP POP JUMP JUMPDEST PUSH32 0x19457468657265756D205369676E6564204D6573736167653A0A333200000000 PUSH1 0x0 DUP3 ADD MSTORE POP JUMP JUMPDEST PUSH1 0x0 PUSH2 0x1041 PUSH1 0x1C DUP4 PUSH2 0x1000 JUMP JUMPDEST SWAP2 POP PUSH2 0x104C DUP3 PUSH2 0x100B JUMP JUMPDEST PUSH1 0x1C DUP3 ADD SWAP1 POP SWAP2 SWAP1 POP JUMP JUMPDEST PUSH1 0x0 DUP2 SWAP1 POP SWAP2 SWAP1 POP JUMP JUMPDEST PUSH2 0x1072 PUSH2 0x106D DUP3 PUSH2 0xC1F JUMP JUMPDEST PUSH2 0x1057 JUMP JUMPDEST DUP3 MSTORE POP POP JUMP JUMPDEST PUSH1 0x0 PUSH2 0x1083 DUP3 PUSH2 0x1034 JUMP JUMPDEST SWAP2 POP PUSH2 0x108F DUP3 DUP5 PUSH2 0x1061 JUMP JUMPDEST PUSH1 0x20 DUP3 ADD SWAP2 POP DUP2 SWAP1 POP SWAP3 SWAP2 POP POP JUMP INVALID LOG2 PUSH5 0x6970667358 0x22 SLT KECCAK256 SWAP3 LOG4 DUP13 PUSH24 0x34B4595261AF9717771A5DFBAFAA82FE5C7FC4C448325566 0x4F 0xF 0x26 PUSH8 0x64736F6C63430008 GT STOP CALLER "
				},
				"gasEstimates": {
					"creation": {
						"codeDepositCost": "861600",
						"executionCost": "infinite",
						"totalCost": "infinite"
					},
					"external": {
						"batchNo()": "infinite",
						"createHash(string,string,string,string,string)": "infinite",
						"expiryDate()": "infinite",
						"getEthSignedMessageHash(bytes32)": "infinite",
						"getExpiryDate()": "infinite",
						"getMfgDate()": "infinite",
						"getName()": "infinite",
						"getTimeStamp()": "infinite",
						"itemName()": "infinite",
						"mfgDate()": "infinite",
						"numberOfItem()": "2518",
						"setExpiryDate(string)": "infinite",
						"setMfgDate(string)": "infinite",
						"setTimeStamp(string)": "infinite",
						"timestamp()": "infinite"
					}
				},
				"methodIdentifiers": {
					"batchNo()": "a85a940b",
					"createHash(string,string,string,string,string)": "e480d4d7",
					"expiryDate()": "516dde43",
					"getEthSignedMessageHash(bytes32)": "fa540801",
					"getExpiryDate()": "2d8ed84a",
					"getMfgDate()": "11a08d01",
					"getName()": "17d7de7c",
					"getTimeStamp()": "da235b22",
					"itemName()": "40401fea",
					"mfgDate()": "98727a0e",
					"numberOfItem()": "c4701516",
					"setExpiryDate(string)": "9e650a49",
					"setMfgDate(string)": "6c6526aa",
					"setTimeStamp(string)": "ddd57872",
					"timestamp()": "b80777ea"
				}
			},
			"storageLayout": {
				"storage": [
					{
						"astId": 3,
						"contract": "contracts/supply_chain.sol:Item",
						"label": "timestamp",
						"offset": 0,
						"slot": "0",
						"type": "t_string_storage"
					},
					{
						"astId": 5,
						"contract": "contracts/supply_chain.sol:Item",
						"label": "itemName",
						"offset": 0,
						"slot": "1",
						"type": "t_string_storage"
					},
					{
						"astId": 7,
						"contract": "contracts/supply_chain.sol:Item",
						"label": "mfgDate",
						"offset": 0,
						"slot": "2",
						"type": "t_string_storage"
					},
					{
						"astId": 9,
						"contract": "contracts/supply_chain.sol:Item",
						"label": "expiryDate",
						"offset": 0,
						"slot": "3",
						"type": "t_string_storage"
					},
					{
						"astId": 11,
						"contract": "contracts/supply_chain.sol:Item",
						"label": "batchNo",
						"offset": 0,
						"slot": "4",
						"type": "t_string_storage"
					},
					{
						"astId": 13,
						"contract": "contracts/supply_chain.sol:Item",
						"label": "numberOfItem",
						"offset": 0,
						"slot": "5",
						"type": "t_uint256"
					}
				],
				"types": {
					"t_string_storage": {
						"encoding": "bytes",
						"label": "string",
						"numberOfBytes": "32"
					},
					"t_uint256": {
						"encoding": "inplace",
						"label": "uint256",
						"numberOfBytes": "32"
					}
				}
			},
			"userdoc": {
				"kind": "user",
				"methods": {},
				"version": 1
			}
		}
	}
}