{
	"contracts/lab5contracts.sol": {
		"Calculator": {
			"abi": [
				{
					"inputs": [
						{
							"internalType": "uint256",
							"name": "_a",
							"type": "uint256"
						},
						{
							"internalType": "uint256",
							"name": "_b",
							"type": "uint256"
						}
					],
					"name": "div",
					"outputs": [
						{
							"internalType": "uint256",
							"name": "",
							"type": "uint256"
						}
					],
					"stateMutability": "pure",
					"type": "function"
				},
				{
					"inputs": [
						{
							"internalType": "uint256",
							"name": "_a",
							"type": "uint256"
						},
						{
							"internalType": "uint256",
							"name": "_b",
							"type": "uint256"
						}
					],
					"name": "mod",
					"outputs": [
						{
							"internalType": "uint256",
							"name": "",
							"type": "uint256"
						}
					],
					"stateMutability": "pure",
					"type": "function"
				},
				{
					"inputs": [
						{
							"internalType": "uint256",
							"name": "_a",
							"type": "uint256"
						},
						{
							"internalType": "uint256",
							"name": "_b",
							"type": "uint256"
						}
					],
					"name": "mul",
					"outputs": [
						{
							"internalType": "uint256",
							"name": "",
							"type": "uint256"
						}
					],
					"stateMutability": "pure",
					"type": "function"
				},
				{
					"inputs": [
						{
							"internalType": "uint256",
							"name": "_a",
							"type": "uint256"
						},
						{
							"internalType": "uint256",
							"name": "_b",
							"type": "uint256"
						}
					],
					"name": "sub",
					"outputs": [
						{
							"internalType": "uint256",
							"name": "",
							"type": "uint256"
						}
					],
					"stateMutability": "pure",
					"type": "function"
				},
				{
					"inputs": [
						{
							"internalType": "uint256",
							"name": "_a",
							"type": "uint256"
						},
						{
							"internalType": "uint256",
							"name": "_b",
							"type": "uint256"
						}
					],
					"name": "sum",
					"outputs": [
						{
							"internalType": "uint256",
							"name": "",
							"type": "uint256"
						}
					],
					"stateMutability": "pure",
					"type": "function"
				}
			],
			"devdoc": {
				"kind": "dev",
				"methods": {},
				"version": 1
			},
			"evm": {
				"assembly": "    /* \"contracts/lab5contracts.sol\":1368:2113  contract Calculator {\r... */\n  mstore(0x40, 0x80)\n  callvalue\n  dup1\n  iszero\n  tag_1\n  jumpi\n  0x00\n  dup1\n  revert\ntag_1:\n  pop\n  dataSize(sub_0)\n  dup1\n  dataOffset(sub_0)\n  0x00\n  codecopy\n  0x00\n  return\nstop\n\nsub_0: assembly {\n        /* \"contracts/lab5contracts.sol\":1368:2113  contract Calculator {\r... */\n      mstore(0x40, 0x80)\n      callvalue\n      dup1\n      iszero\n      tag_1\n      jumpi\n      0x00\n      dup1\n      revert\n    tag_1:\n      pop\n      jumpi(tag_2, lt(calldatasize, 0x04))\n      shr(0xe0, calldataload(0x00))\n      dup1\n      0xa391c15b\n      eq\n      tag_3\n      jumpi\n      dup1\n      0xb67d77c5\n      eq\n      tag_4\n      jumpi\n      dup1\n      0xc8a4ac9c\n      eq\n      tag_5\n      jumpi\n      dup1\n      0xcad0899b\n      eq\n      tag_6\n      jumpi\n      dup1\n      0xf43f523a\n      eq\n      tag_7\n      jumpi\n    tag_2:\n      0x00\n      dup1\n      revert\n        /* \"contracts/lab5contracts.sol\":1854:1978  function div (uint _a, uint _b) public pure returns(uint) {\r... */\n    tag_3:\n      tag_8\n      0x04\n      dup1\n      calldatasize\n      sub\n      0x40\n      dup2\n      lt\n      iszero\n      tag_9\n      jumpi\n      0x00\n      dup1\n      revert\n    tag_9:\n      dup2\n      add\n      swap1\n      dup1\n      dup1\n      calldataload\n      swap1\n      0x20\n      add\n      swap1\n      swap3\n      swap2\n      swap1\n      dup1\n      calldataload\n      swap1\n      0x20\n      add\n      swap1\n      swap3\n      swap2\n      swap1\n      pop\n      pop\n      pop\n      tag_10\n      jump\t// in\n    tag_8:\n      mload(0x40)\n      dup1\n      dup3\n      dup2\n      mstore\n      0x20\n      add\n      swap2\n      pop\n      pop\n      mload(0x40)\n      dup1\n      swap2\n      sub\n      swap1\n      return\n        /* \"contracts/lab5contracts.sol\":1590:1714  function sub (uint _a, uint _b) public pure returns(uint) {\r... */\n    tag_4:\n      tag_11\n      0x04\n      dup1\n      calldatasize\n      sub\n      0x40\n      dup2\n      lt\n      iszero\n      tag_12\n      jumpi\n      0x00\n      dup1\n      revert\n    tag_12:\n      dup2\n      add\n      swap1\n      dup1\n      dup1\n      calldataload\n      swap1\n      0x20\n      add\n      swap1\n      swap3\n      swap2\n      swap1\n      dup1\n      calldataload\n      swap1\n      0x20\n      add\n      swap1\n      swap3\n      swap2\n      swap1\n      pop\n      pop\n      pop\n      tag_13\n      jump\t// in\n    tag_11:\n      mload(0x40)\n      dup1\n      dup3\n      dup2\n      mstore\n      0x20\n      add\n      swap2\n      pop\n      pop\n      mload(0x40)\n      dup1\n      swap2\n      sub\n      swap1\n      return\n        /* \"contracts/lab5contracts.sol\":1722:1846  function mul (uint _a, uint _b) public pure returns(uint) {\r... */\n    tag_5:\n      tag_14\n      0x04\n      dup1\n      calldatasize\n      sub\n      0x40\n      dup2\n      lt\n      iszero\n      tag_15\n      jumpi\n      0x00\n      dup1\n      revert\n    tag_15:\n      dup2\n      add\n      swap1\n      dup1\n      dup1\n      calldataload\n      swap1\n      0x20\n      add\n      swap1\n      swap3\n      swap2\n      swap1\n      dup1\n      calldataload\n      swap1\n      0x20\n      add\n      swap1\n      swap3\n      swap2\n      swap1\n      pop\n      pop\n      pop\n      tag_16\n      jump\t// in\n    tag_14:\n      mload(0x40)\n      dup1\n      dup3\n      dup2\n      mstore\n      0x20\n      add\n      swap2\n      pop\n      pop\n      mload(0x40)\n      dup1\n      swap2\n      sub\n      swap1\n      return\n        /* \"contracts/lab5contracts.sol\":1458:1582  function sum (uint _a, uint _b) public pure returns(uint) {\r... */\n    tag_6:\n      tag_17\n      0x04\n      dup1\n      calldatasize\n      sub\n      0x40\n      dup2\n      lt\n      iszero\n      tag_18\n      jumpi\n      0x00\n      dup1\n      revert\n    tag_18:\n      dup2\n      add\n      swap1\n      dup1\n      dup1\n      calldataload\n      swap1\n      0x20\n      add\n      swap1\n      swap3\n      swap2\n      swap1\n      dup1\n      calldataload\n      swap1\n      0x20\n      add\n      swap1\n      swap3\n      swap2\n      swap1\n      pop\n      pop\n      pop\n      tag_19\n      jump\t// in\n    tag_17:\n      mload(0x40)\n      dup1\n      dup3\n      dup2\n      mstore\n      0x20\n      add\n      swap2\n      pop\n      pop\n      mload(0x40)\n      dup1\n      swap2\n      sub\n      swap1\n      return\n        /* \"contracts/lab5contracts.sol\":1986:2110  function mod (uint _a, uint _b) public pure returns(uint) {\r... */\n    tag_7:\n      tag_20\n      0x04\n      dup1\n      calldatasize\n      sub\n      0x40\n      dup2\n      lt\n      iszero\n      tag_21\n      jumpi\n      0x00\n      dup1\n      revert\n    tag_21:\n      dup2\n      add\n      swap1\n      dup1\n      dup1\n      calldataload\n      swap1\n      0x20\n      add\n      swap1\n      swap3\n      swap2\n      swap1\n      dup1\n      calldataload\n      swap1\n      0x20\n      add\n      swap1\n      swap3\n      swap2\n      swap1\n      pop\n      pop\n      pop\n      tag_22\n      jump\t// in\n    tag_20:\n      mload(0x40)\n      dup1\n      dup3\n      dup2\n      mstore\n      0x20\n      add\n      swap2\n      pop\n      pop\n      mload(0x40)\n      dup1\n      swap2\n      sub\n      swap1\n      return\n        /* \"contracts/lab5contracts.sol\":1854:1978  function div (uint _a, uint _b) public pure returns(uint) {\r... */\n    tag_10:\n        /* \"contracts/lab5contracts.sol\":1906:1910  uint */\n      0x00\n        /* \"contracts/lab5contracts.sol\":1923:1929  uint c */\n      dup1\n        /* \"contracts/lab5contracts.sol\":1949:1951  _b */\n      dup3\n        /* \"contracts/lab5contracts.sol\":1944:1946  _a */\n      dup5\n        /* \"contracts/lab5contracts.sol\":1944:1951  _a / _b */\n      dup2\n      tag_24\n      jumpi\n      invalid\n    tag_24:\n      div\n        /* \"contracts/lab5contracts.sol\":1940:1951  c = _a / _b */\n      swap1\n      pop\n        /* \"contracts/lab5contracts.sol\":1969:1970  c */\n      dup1\n        /* \"contracts/lab5contracts.sol\":1962:1970  return c */\n      swap2\n      pop\n      pop\n        /* \"contracts/lab5contracts.sol\":1854:1978  function div (uint _a, uint _b) public pure returns(uint) {\r... */\n      swap3\n      swap2\n      pop\n      pop\n      jump\t// out\n        /* \"contracts/lab5contracts.sol\":1590:1714  function sub (uint _a, uint _b) public pure returns(uint) {\r... */\n    tag_13:\n        /* \"contracts/lab5contracts.sol\":1642:1646  uint */\n      0x00\n        /* \"contracts/lab5contracts.sol\":1659:1665  uint c */\n      dup1\n        /* \"contracts/lab5contracts.sol\":1685:1687  _b */\n      dup3\n        /* \"contracts/lab5contracts.sol\":1680:1682  _a */\n      dup5\n        /* \"contracts/lab5contracts.sol\":1680:1687  _a - _b */\n      sub\n        /* \"contracts/lab5contracts.sol\":1676:1687  c = _a - _b */\n      swap1\n      pop\n        /* \"contracts/lab5contracts.sol\":1705:1706  c */\n      dup1\n        /* \"contracts/lab5contracts.sol\":1698:1706  return c */\n      swap2\n      pop\n      pop\n        /* \"contracts/lab5contracts.sol\":1590:1714  function sub (uint _a, uint _b) public pure returns(uint) {\r... */\n      swap3\n      swap2\n      pop\n      pop\n      jump\t// out\n        /* \"contracts/lab5contracts.sol\":1722:1846  function mul (uint _a, uint _b) public pure returns(uint) {\r... */\n    tag_16:\n        /* \"contracts/lab5contracts.sol\":1774:1778  uint */\n      0x00\n        /* \"contracts/lab5contracts.sol\":1791:1797  uint c */\n      dup1\n        /* \"contracts/lab5contracts.sol\":1817:1819  _b */\n      dup3\n        /* \"contracts/lab5contracts.sol\":1812:1814  _a */\n      dup5\n        /* \"contracts/lab5contracts.sol\":1812:1819  _a * _b */\n      mul\n        /* \"contracts/lab5contracts.sol\":1808:1819  c = _a * _b */\n      swap1\n      pop\n        /* \"contracts/lab5contracts.sol\":1837:1838  c */\n      dup1\n        /* \"contracts/lab5contracts.sol\":1830:1838  return c */\n      swap2\n      pop\n      pop\n        /* \"contracts/lab5contracts.sol\":1722:1846  function mul (uint _a, uint _b) public pure returns(uint) {\r... */\n      swap3\n      swap2\n      pop\n      pop\n      jump\t// out\n        /* \"contracts/lab5contracts.sol\":1458:1582  function sum (uint _a, uint _b) public pure returns(uint) {\r... */\n    tag_19:\n        /* \"contracts/lab5contracts.sol\":1510:1514  uint */\n      0x00\n        /* \"contracts/lab5contracts.sol\":1527:1533  uint c */\n      dup1\n        /* \"contracts/lab5contracts.sol\":1553:1555  _b */\n      dup3\n        /* \"contracts/lab5contracts.sol\":1548:1550  _a */\n      dup5\n        /* \"contracts/lab5contracts.sol\":1548:1555  _a + _b */\n      add\n        /* \"contracts/lab5contracts.sol\":1544:1555  c = _a + _b */\n      swap1\n      pop\n        /* \"contracts/lab5contracts.sol\":1573:1574  c */\n      dup1\n        /* \"contracts/lab5contracts.sol\":1566:1574  return c */\n      swap2\n      pop\n      pop\n        /* \"contracts/lab5contracts.sol\":1458:1582  function sum (uint _a, uint _b) public pure returns(uint) {\r... */\n      swap3\n      swap2\n      pop\n      pop\n      jump\t// out\n        /* \"contracts/lab5contracts.sol\":1986:2110  function mod (uint _a, uint _b) public pure returns(uint) {\r... */\n    tag_22:\n        /* \"contracts/lab5contracts.sol\":2038:2042  uint */\n      0x00\n        /* \"contracts/lab5contracts.sol\":2055:2061  uint c */\n      dup1\n        /* \"contracts/lab5contracts.sol\":2081:2083  _b */\n      dup3\n        /* \"contracts/lab5contracts.sol\":2076:2078  _a */\n      dup5\n        /* \"contracts/lab5contracts.sol\":2076:2083  _a % _b */\n      dup2\n      tag_29\n      jumpi\n      invalid\n    tag_29:\n      mod\n        /* \"contracts/lab5contracts.sol\":2072:2083  c = _a % _b */\n      swap1\n      pop\n        /* \"contracts/lab5contracts.sol\":2101:2102  c */\n      dup1\n        /* \"contracts/lab5contracts.sol\":2094:2102  return c */\n      swap2\n      pop\n      pop\n        /* \"contracts/lab5contracts.sol\":1986:2110  function mod (uint _a, uint _b) public pure returns(uint) {\r... */\n      swap3\n      swap2\n      pop\n      pop\n      jump\t// out\n\n    auxdata: 0xa26469706673582212206a2f9d1fb7cf720e9849842253a1885cc1425108f8b92292c16f19dde87a2de064736f6c634300060c0033\n}\n",
				"bytecode": {
					"linkReferences": {},
					"object": "608060405234801561001057600080fd5b50610276806100206000396000f3fe608060405234801561001057600080fd5b50600436106100575760003560e01c8063a391c15b1461005c578063b67d77c5146100a8578063c8a4ac9c146100f4578063cad0899b14610140578063f43f523a1461018c575b600080fd5b6100926004803603604081101561007257600080fd5b8101908080359060200190929190803590602001909291905050506101d8565b6040518082815260200191505060405180910390f35b6100de600480360360408110156100be57600080fd5b8101908080359060200190929190803590602001909291905050506101f1565b6040518082815260200191505060405180910390f35b61012a6004803603604081101561010a57600080fd5b810190808035906020019092919080359060200190929190505050610203565b6040518082815260200191505060405180910390f35b6101766004803603604081101561015657600080fd5b810190808035906020019092919080359060200190929190505050610215565b6040518082815260200191505060405180910390f35b6101c2600480360360408110156101a257600080fd5b810190808035906020019092919080359060200190929190505050610227565b6040518082815260200191505060405180910390f35b6000808284816101e457fe5b0490508091505092915050565b60008082840390508091505092915050565b60008082840290508091505092915050565b60008082840190508091505092915050565b60008082848161023357fe5b069050809150509291505056fea26469706673582212206a2f9d1fb7cf720e9849842253a1885cc1425108f8b92292c16f19dde87a2de064736f6c634300060c0033",
					"opcodes": "PUSH1 0x80 PUSH1 0x40 MSTORE CALLVALUE DUP1 ISZERO PUSH2 0x10 JUMPI PUSH1 0x0 DUP1 REVERT JUMPDEST POP PUSH2 0x276 DUP1 PUSH2 0x20 PUSH1 0x0 CODECOPY PUSH1 0x0 RETURN INVALID PUSH1 0x80 PUSH1 0x40 MSTORE CALLVALUE DUP1 ISZERO PUSH2 0x10 JUMPI PUSH1 0x0 DUP1 REVERT JUMPDEST POP PUSH1 0x4 CALLDATASIZE LT PUSH2 0x57 JUMPI PUSH1 0x0 CALLDATALOAD PUSH1 0xE0 SHR DUP1 PUSH4 0xA391C15B EQ PUSH2 0x5C JUMPI DUP1 PUSH4 0xB67D77C5 EQ PUSH2 0xA8 JUMPI DUP1 PUSH4 0xC8A4AC9C EQ PUSH2 0xF4 JUMPI DUP1 PUSH4 0xCAD0899B EQ PUSH2 0x140 JUMPI DUP1 PUSH4 0xF43F523A EQ PUSH2 0x18C JUMPI JUMPDEST PUSH1 0x0 DUP1 REVERT JUMPDEST PUSH2 0x92 PUSH1 0x4 DUP1 CALLDATASIZE SUB PUSH1 0x40 DUP2 LT ISZERO PUSH2 0x72 JUMPI PUSH1 0x0 DUP1 REVERT JUMPDEST DUP2 ADD SWAP1 DUP1 DUP1 CALLDATALOAD SWAP1 PUSH1 0x20 ADD SWAP1 SWAP3 SWAP2 SWAP1 DUP1 CALLDATALOAD SWAP1 PUSH1 0x20 ADD SWAP1 SWAP3 SWAP2 SWAP1 POP POP POP PUSH2 0x1D8 JUMP JUMPDEST PUSH1 0x40 MLOAD DUP1 DUP3 DUP2 MSTORE PUSH1 0x20 ADD SWAP2 POP POP PUSH1 0x40 MLOAD DUP1 SWAP2 SUB SWAP1 RETURN JUMPDEST PUSH2 0xDE PUSH1 0x4 DUP1 CALLDATASIZE SUB PUSH1 0x40 DUP2 LT ISZERO PUSH2 0xBE JUMPI PUSH1 0x0 DUP1 REVERT JUMPDEST DUP2 ADD SWAP1 DUP1 DUP1 CALLDATALOAD SWAP1 PUSH1 0x20 ADD SWAP1 SWAP3 SWAP2 SWAP1 DUP1 CALLDATALOAD SWAP1 PUSH1 0x20 ADD SWAP1 SWAP3 SWAP2 SWAP1 POP POP POP PUSH2 0x1F1 JUMP JUMPDEST PUSH1 0x40 MLOAD DUP1 DUP3 DUP2 MSTORE PUSH1 0x20 ADD SWAP2 POP POP PUSH1 0x40 MLOAD DUP1 SWAP2 SUB SWAP1 RETURN JUMPDEST PUSH2 0x12A PUSH1 0x4 DUP1 CALLDATASIZE SUB PUSH1 0x40 DUP2 LT ISZERO PUSH2 0x10A JUMPI PUSH1 0x0 DUP1 REVERT JUMPDEST DUP2 ADD SWAP1 DUP1 DUP1 CALLDATALOAD SWAP1 PUSH1 0x20 ADD SWAP1 SWAP3 SWAP2 SWAP1 DUP1 CALLDATALOAD SWAP1 PUSH1 0x20 ADD SWAP1 SWAP3 SWAP2 SWAP1 POP POP POP PUSH2 0x203 JUMP JUMPDEST PUSH1 0x40 MLOAD DUP1 DUP3 DUP2 MSTORE PUSH1 0x20 ADD SWAP2 POP POP PUSH1 0x40 MLOAD DUP1 SWAP2 SUB SWAP1 RETURN JUMPDEST PUSH2 0x176 PUSH1 0x4 DUP1 CALLDATASIZE SUB PUSH1 0x40 DUP2 LT ISZERO PUSH2 0x156 JUMPI PUSH1 0x0 DUP1 REVERT JUMPDEST DUP2 ADD SWAP1 DUP1 DUP1 CALLDATALOAD SWAP1 PUSH1 0x20 ADD SWAP1 SWAP3 SWAP2 SWAP1 DUP1 CALLDATALOAD SWAP1 PUSH1 0x20 ADD SWAP1 SWAP3 SWAP2 SWAP1 POP POP POP PUSH2 0x215 JUMP JUMPDEST PUSH1 0x40 MLOAD DUP1 DUP3 DUP2 MSTORE PUSH1 0x20 ADD SWAP2 POP POP PUSH1 0x40 MLOAD DUP1 SWAP2 SUB SWAP1 RETURN JUMPDEST PUSH2 0x1C2 PUSH1 0x4 DUP1 CALLDATASIZE SUB PUSH1 0x40 DUP2 LT ISZERO PUSH2 0x1A2 JUMPI PUSH1 0x0 DUP1 REVERT JUMPDEST DUP2 ADD SWAP1 DUP1 DUP1 CALLDATALOAD SWAP1 PUSH1 0x20 ADD SWAP1 SWAP3 SWAP2 SWAP1 DUP1 CALLDATALOAD SWAP1 PUSH1 0x20 ADD SWAP1 SWAP3 SWAP2 SWAP1 POP POP POP PUSH2 0x227 JUMP JUMPDEST PUSH1 0x40 MLOAD DUP1 DUP3 DUP2 MSTORE PUSH1 0x20 ADD SWAP2 POP POP PUSH1 0x40 MLOAD DUP1 SWAP2 SUB SWAP1 RETURN JUMPDEST PUSH1 0x0 DUP1 DUP3 DUP5 DUP2 PUSH2 0x1E4 JUMPI INVALID JUMPDEST DIV SWAP1 POP DUP1 SWAP2 POP POP SWAP3 SWAP2 POP POP JUMP JUMPDEST PUSH1 0x0 DUP1 DUP3 DUP5 SUB SWAP1 POP DUP1 SWAP2 POP POP SWAP3 SWAP2 POP POP JUMP JUMPDEST PUSH1 0x0 DUP1 DUP3 DUP5 MUL SWAP1 POP DUP1 SWAP2 POP POP SWAP3 SWAP2 POP POP JUMP JUMPDEST PUSH1 0x0 DUP1 DUP3 DUP5 ADD SWAP1 POP DUP1 SWAP2 POP POP SWAP3 SWAP2 POP POP JUMP JUMPDEST PUSH1 0x0 DUP1 DUP3 DUP5 DUP2 PUSH2 0x233 JUMPI INVALID JUMPDEST MOD SWAP1 POP DUP1 SWAP2 POP POP SWAP3 SWAP2 POP POP JUMP INVALID LOG2 PUSH5 0x6970667358 0x22 SLT KECCAK256 PUSH11 0x2F9D1FB7CF720E98498422 MSTORE8 LOG1 DUP9 0x5C 0xC1 TIMESTAMP MLOAD ADDMOD 0xF8 0xB9 0x22 SWAP3 0xC1 PUSH16 0x19DDE87A2DE064736F6C634300060C00 CALLER "
				},
				"gasEstimates": {
					"creation": {
						"codeDepositCost": "126000",
						"executionCost": "171",
						"totalCost": "126171"
					},
					"external": {
						"div(uint256,uint256)": "345",
						"mod(uint256,uint256)": "433",
						"mul(uint256,uint256)": "372",
						"sub(uint256,uint256)": "348",
						"sum(uint256,uint256)": "392"
					}
				},
				"methodIdentifiers": {
					"div(uint256,uint256)": "a391c15b",
					"mod(uint256,uint256)": "f43f523a",
					"mul(uint256,uint256)": "c8a4ac9c",
					"sub(uint256,uint256)": "b67d77c5",
					"sum(uint256,uint256)": "cad0899b"
				}
			},
			"storageLayout": {
				"storage": [],
				"types": null
			},
			"userdoc": {
				"kind": "user",
				"methods": {},
				"version": 1
			}
		}
	}
}