{
	"contracts/learning.sol": {
		"dusra": {
			"abi": [
				{
					"inputs": [
						{
							"internalType": "contract Parcel",
							"name": "par",
							"type": "address"
						}
					],
					"name": "printName",
					"outputs": [],
					"stateMutability": "nonpayable",
					"type": "function"
				}
			],
			"devdoc": {
				"kind": "dev",
				"methods": {},
				"version": 1
			},
			"evm": {
				"assembly": "    /* \"contracts/learning.sol\":467:689  contract dusra \r... */\n  mstore(0x40, 0x80)\n    /* \"contracts/learning.sol\":519:520  1 */\n  0x01\n    /* \"contracts/learning.sol\":508:531  new Parcel(1,\"parcel1\") */\n  mload(0x40)\n  tag_1\n  swap1\n  tag_2\n  jump\t// in\ntag_1:\n  tag_3\n  swap2\n  swap1\n  tag_4\n  jump\t// in\ntag_3:\n  mload(0x40)\n  dup1\n  swap2\n  sub\n  swap1\n  0x00\n  create\n  dup1\n  iszero\n  dup1\n  iszero\n  tag_5\n  jumpi\n  returndatasize\n  0x00\n  dup1\n  returndatacopy\n  revert(0x00, returndatasize)\ntag_5:\n  pop\n    /* \"contracts/learning.sol\":495:531  Parcel par = new Parcel(1,\"parcel1\") */\n  0x00\n  dup1\n  0x0100\n  exp\n  dup2\n  sload\n  dup2\n  0xffffffffffffffffffffffffffffffffffffffff\n  mul\n  not\n  and\n  swap1\n  dup4\n  0xffffffffffffffffffffffffffffffffffffffff\n  and\n  mul\n  or\n  swap1\n  sstore\n  pop\n    /* \"contracts/learning.sol\":467:689  contract dusra \r... */\n  callvalue\n  dup1\n  iszero\n  tag_6\n  jumpi\n  0x00\n  dup1\n  revert\ntag_6:\n  pop\n  jump(tag_7)\ntag_2:\n  dataSize(sub_1)\n  dup1\n  dataOffset(sub_1)\n  dup4\n  codecopy\n  add\n  swap1\n  jump\t// out\n    /* \"--CODEGEN--\":5:145   */\ntag_9:\n    /* \"--CODEGEN--\":95:139   */\n  tag_11\n    /* \"--CODEGEN--\":133:138   */\n  dup2\n    /* \"--CODEGEN--\":95:139   */\n  tag_12\n  jump\t// in\ntag_11:\n    /* \"--CODEGEN--\":90:93   */\n  dup3\n    /* \"--CODEGEN--\":83:140   */\n  mstore\n    /* \"--CODEGEN--\":77:145   */\n  pop\n  pop\n  jump\t// out\n    /* \"--CODEGEN--\":153:459   */\ntag_13:\n  0x00\n    /* \"--CODEGEN--\":313:379   */\n  tag_15\n    /* \"--CODEGEN--\":377:378   */\n  0x07\n    /* \"--CODEGEN--\":372:375   */\n  dup4\n    /* \"--CODEGEN--\":313:379   */\n  tag_16\n  jump\t// in\ntag_15:\n    /* \"--CODEGEN--\":306:379   */\n  swap2\n  pop\n    /* \"--CODEGEN--\":412:421   */\n  0x70617263656c3100000000000000000000000000000000000000000000000000\n    /* \"--CODEGEN--\":408:409   */\n  0x00\n    /* \"--CODEGEN--\":403:406   */\n  dup4\n    /* \"--CODEGEN--\":399:410   */\n  add\n    /* \"--CODEGEN--\":392:422   */\n  mstore\n    /* \"--CODEGEN--\":450:452   */\n  0x20\n    /* \"--CODEGEN--\":445:448   */\n  dup3\n    /* \"--CODEGEN--\":441:453   */\n  add\n    /* \"--CODEGEN--\":434:453   */\n  swap1\n  pop\n    /* \"--CODEGEN--\":299:459   */\n  swap2\n  swap1\n  pop\n  jump\t// out\n    /* \"--CODEGEN--\":467:1008   */\ntag_4:\n  0x00\n    /* \"--CODEGEN--\":702:704   */\n  0x40\n    /* \"--CODEGEN--\":691:700   */\n  dup3\n    /* \"--CODEGEN--\":687:705   */\n  add\n    /* \"--CODEGEN--\":679:705   */\n  swap1\n  pop\n    /* \"--CODEGEN--\":716:794   */\n  tag_18\n    /* \"--CODEGEN--\":791:792   */\n  0x00\n    /* \"--CODEGEN--\":780:789   */\n  dup4\n    /* \"--CODEGEN--\":776:793   */\n  add\n    /* \"--CODEGEN--\":767:773   */\n  dup5\n    /* \"--CODEGEN--\":716:794   */\n  tag_9\n  jump\t// in\ntag_18:\n    /* \"--CODEGEN--\":842:851   */\n  dup2\n    /* \"--CODEGEN--\":836:840   */\n  dup2\n    /* \"--CODEGEN--\":832:852   */\n  sub\n    /* \"--CODEGEN--\":827:829   */\n  0x20\n    /* \"--CODEGEN--\":816:825   */\n  dup4\n    /* \"--CODEGEN--\":812:830   */\n  add\n    /* \"--CODEGEN--\":805:853   */\n  mstore\n    /* \"--CODEGEN--\":867:998   */\n  tag_19\n    /* \"--CODEGEN--\":993:997   */\n  dup2\n    /* \"--CODEGEN--\":867:998   */\n  tag_13\n  jump\t// in\ntag_19:\n    /* \"--CODEGEN--\":859:998   */\n  swap1\n  pop\n    /* \"--CODEGEN--\":673:1008   */\n  swap3\n  swap2\n  pop\n  pop\n  jump\t// out\n    /* \"--CODEGEN--\":1016:1179   */\ntag_16:\n  0x00\n    /* \"--CODEGEN--\":1131:1137   */\n  dup3\n    /* \"--CODEGEN--\":1126:1129   */\n  dup3\n    /* \"--CODEGEN--\":1119:1138   */\n  mstore\n    /* \"--CODEGEN--\":1168:1172   */\n  0x20\n    /* \"--CODEGEN--\":1163:1166   */\n  dup3\n    /* \"--CODEGEN--\":1159:1173   */\n  add\n    /* \"--CODEGEN--\":1144:1173   */\n  swap1\n  pop\n    /* \"--CODEGEN--\":1112:1179   */\n  swap3\n  swap2\n  pop\n  pop\n  jump\t// out\n    /* \"--CODEGEN--\":1187:1271   */\ntag_21:\n  0x00\n    /* \"--CODEGEN--\":1259:1265   */\n  0xffff\n    /* \"--CODEGEN--\":1252:1257   */\n  dup3\n    /* \"--CODEGEN--\":1248:1266   */\n  and\n    /* \"--CODEGEN--\":1237:1266   */\n  swap1\n  pop\n    /* \"--CODEGEN--\":1231:1271   */\n  swap2\n  swap1\n  pop\n  jump\t// out\n    /* \"--CODEGEN--\":1278:1392   */\ntag_12:\n  0x00\n    /* \"--CODEGEN--\":1364:1387   */\n  tag_24\n    /* \"--CODEGEN--\":1381:1386   */\n  dup3\n    /* \"--CODEGEN--\":1364:1387   */\n  tag_21\n  jump\t// in\ntag_24:\n    /* \"--CODEGEN--\":1351:1387   */\n  swap1\n  pop\n    /* \"--CODEGEN--\":1345:1392   */\n  swap2\n  swap1\n  pop\n  jump\t// out\n    /* \"contracts/learning.sol\":467:689  contract dusra \r... */\ntag_7:\n  dataSize(sub_0)\n  dup1\n  dataOffset(sub_0)\n  0x00\n  codecopy\n  0x00\n  return\nstop\n\nsub_0: assembly {\n        /* \"contracts/learning.sol\":467:689  contract dusra \r... */\n      mstore(0x40, 0x80)\n      callvalue\n      dup1\n      iszero\n      tag_1\n      jumpi\n      0x00\n      dup1\n      revert\n    tag_1:\n      pop\n      jumpi(tag_2, lt(calldatasize, 0x04))\n      shr(0xe0, calldataload(0x00))\n      dup1\n      0x6ac38b44\n      eq\n      tag_3\n      jumpi\n    tag_2:\n      0x00\n      dup1\n      revert\n        /* \"contracts/learning.sol\":544:664  function printName(Parcel par) public \r... */\n    tag_3:\n      tag_4\n      0x04\n      dup1\n      calldatasize\n      sub\n      dup2\n      add\n      swap1\n      tag_5\n      swap2\n      swap1\n      tag_6\n      jump\t// in\n    tag_5:\n      tag_7\n      jump\t// in\n    tag_4:\n      stop\n    tag_7:\n      pop\n      jump\t// out\n        /* \"--CODEGEN--\":5:161   */\n    tag_10:\n      0x00\n        /* \"--CODEGEN--\":98:104   */\n      dup2\n        /* \"--CODEGEN--\":85:105   */\n      calldataload\n        /* \"--CODEGEN--\":76:105   */\n      swap1\n      pop\n        /* \"--CODEGEN--\":110:156   */\n      tag_12\n        /* \"--CODEGEN--\":150:155   */\n      dup2\n        /* \"--CODEGEN--\":110:156   */\n      tag_13\n      jump\t// in\n    tag_12:\n        /* \"--CODEGEN--\":70:161   */\n      swap3\n      swap2\n      pop\n      pop\n      jump\t// out\n        /* \"--CODEGEN--\":168:435   */\n    tag_6:\n      0x00\n        /* \"--CODEGEN--\":285:287   */\n      0x20\n        /* \"--CODEGEN--\":273:282   */\n      dup3\n        /* \"--CODEGEN--\":264:271   */\n      dup5\n        /* \"--CODEGEN--\":260:283   */\n      sub\n        /* \"--CODEGEN--\":256:288   */\n      slt\n        /* \"--CODEGEN--\":253:255   */\n      iszero\n      tag_15\n      jumpi\n        /* \"--CODEGEN--\":301:302   */\n      0x00\n        /* \"--CODEGEN--\":298:299   */\n      dup1\n        /* \"--CODEGEN--\":291:303   */\n      revert\n        /* \"--CODEGEN--\":253:255   */\n    tag_15:\n        /* \"--CODEGEN--\":336:337   */\n      0x00\n        /* \"--CODEGEN--\":353:419   */\n      tag_16\n        /* \"--CODEGEN--\":411:418   */\n      dup5\n        /* \"--CODEGEN--\":402:408   */\n      dup3\n        /* \"--CODEGEN--\":391:400   */\n      dup6\n        /* \"--CODEGEN--\":387:409   */\n      add\n        /* \"--CODEGEN--\":353:419   */\n      tag_10\n      jump\t// in\n    tag_16:\n        /* \"--CODEGEN--\":343:419   */\n      swap2\n      pop\n        /* \"--CODEGEN--\":315:425   */\n      pop\n        /* \"--CODEGEN--\":247:435   */\n      swap3\n      swap2\n      pop\n      pop\n      jump\t// out\n        /* \"--CODEGEN--\":442:533   */\n    tag_17:\n      0x00\n        /* \"--CODEGEN--\":504:528   */\n      tag_19\n        /* \"--CODEGEN--\":522:527   */\n      dup3\n        /* \"--CODEGEN--\":504:528   */\n      tag_20\n      jump\t// in\n    tag_19:\n        /* \"--CODEGEN--\":493:528   */\n      swap1\n      pop\n        /* \"--CODEGEN--\":487:533   */\n      swap2\n      swap1\n      pop\n      jump\t// out\n        /* \"--CODEGEN--\":540:644   */\n    tag_21:\n      0x00\n        /* \"--CODEGEN--\":615:639   */\n      tag_23\n        /* \"--CODEGEN--\":633:638   */\n      dup3\n        /* \"--CODEGEN--\":615:639   */\n      tag_17\n      jump\t// in\n    tag_23:\n        /* \"--CODEGEN--\":604:639   */\n      swap1\n      pop\n        /* \"--CODEGEN--\":598:644   */\n      swap2\n      swap1\n      pop\n      jump\t// out\n        /* \"--CODEGEN--\":651:772   */\n    tag_20:\n      0x00\n        /* \"--CODEGEN--\":724:766   */\n      0xffffffffffffffffffffffffffffffffffffffff\n        /* \"--CODEGEN--\":717:722   */\n      dup3\n        /* \"--CODEGEN--\":713:767   */\n      and\n        /* \"--CODEGEN--\":702:767   */\n      swap1\n      pop\n        /* \"--CODEGEN--\":696:772   */\n      swap2\n      swap1\n      pop\n      jump\t// out\n        /* \"--CODEGEN--\":779:922   */\n    tag_13:\n        /* \"--CODEGEN--\":861:898   */\n      tag_26\n        /* \"--CODEGEN--\":892:897   */\n      dup2\n        /* \"--CODEGEN--\":861:898   */\n      tag_21\n      jump\t// in\n    tag_26:\n        /* \"--CODEGEN--\":854:859   */\n      dup2\n        /* \"--CODEGEN--\":851:899   */\n      eq\n        /* \"--CODEGEN--\":841:843   */\n      tag_27\n      jumpi\n        /* \"--CODEGEN--\":913:914   */\n      0x00\n        /* \"--CODEGEN--\":910:911   */\n      dup1\n        /* \"--CODEGEN--\":903:915   */\n      revert\n        /* \"--CODEGEN--\":841:843   */\n    tag_27:\n        /* \"--CODEGEN--\":835:922   */\n      pop\n      jump\t// out\n\n    auxdata: 0xa26469706673582212204e70b0404f58a9c936dbe05a7e28eced5c06cdad391093c9690d6c2381351a3c64736f6c634300060c0033\n}\n\nsub_1: assembly {\n        /* \"contracts/learning.sol\":71:461  contract Parcel\r... */\n      mstore(0x40, 0x80)\n        /* \"contracts/learning.sol\":149:257  constructor(uint16 _id, string memory _name) public \r... */\n      callvalue\n      dup1\n      iszero\n      tag_1\n      jumpi\n      0x00\n      dup1\n      revert\n    tag_1:\n      pop\n      mload(0x40)\n      sub(codesize, bytecodeSize)\n      dup1\n      bytecodeSize\n      dup4\n      codecopy\n      dup2\n      dup2\n      add\n      0x40\n      mstore\n      dup2\n      add\n      swap1\n      tag_2\n      swap2\n      swap1\n      tag_3\n      jump\t// in\n    tag_2:\n        /* \"contracts/learning.sol\":223:226  _id */\n      dup2\n        /* \"contracts/learning.sol\":220:222  id */\n      0x00\n      dup1\n        /* \"contracts/learning.sol\":220:226  id=_id */\n      0x0100\n      exp\n      dup2\n      sload\n      dup2\n      0xffff\n      mul\n      not\n      and\n      swap1\n      dup4\n      0xffff\n      and\n      mul\n      or\n      swap1\n      sstore\n      pop\n        /* \"contracts/learning.sol\":244:249  _name */\n      dup1\n        /* \"contracts/learning.sol\":237:241  name */\n      0x01\n        /* \"contracts/learning.sol\":237:249  name = _name */\n      swap1\n      dup1\n      mload\n      swap1\n      0x20\n      add\n      swap1\n      tag_6\n      swap3\n      swap2\n      swap1\n      tag_7\n      jump\t// in\n    tag_6:\n      pop\n        /* \"contracts/learning.sol\":149:257  constructor(uint16 _id, string memory _name) public \r... */\n      pop\n      pop\n        /* \"contracts/learning.sol\":71:461  contract Parcel\r... */\n      jump(tag_8)\n    tag_7:\n      dup3\n      dup1\n      sload\n      0x01\n      dup2\n      0x01\n      and\n      iszero\n      0x0100\n      mul\n      sub\n      and\n      0x02\n      swap1\n      div\n      swap1\n      0x00\n      mstore\n      keccak256(0x00, 0x20)\n      swap1\n      0x1f\n      add\n      0x20\n      swap1\n      div\n      dup2\n      add\n      swap3\n      dup3\n      0x1f\n      lt\n      tag_10\n      jumpi\n      dup1\n      mload\n      not(0xff)\n      and\n      dup4\n      dup1\n      add\n      or\n      dup6\n      sstore\n      jump(tag_9)\n    tag_10:\n      dup3\n      dup1\n      add\n      0x01\n      add\n      dup6\n      sstore\n      dup3\n      iszero\n      tag_9\n      jumpi\n      swap2\n      dup3\n      add\n    tag_11:\n      dup3\n      dup2\n      gt\n      iszero\n      tag_12\n      jumpi\n      dup3\n      mload\n      dup3\n      sstore\n      swap2\n      0x20\n      add\n      swap2\n      swap1\n      0x01\n      add\n      swap1\n      jump(tag_11)\n    tag_12:\n    tag_9:\n      pop\n      swap1\n      pop\n      tag_13\n      swap2\n      swap1\n      tag_14\n      jump\t// in\n    tag_13:\n      pop\n      swap1\n      jump\t// out\n    tag_14:\n    tag_15:\n      dup1\n      dup3\n      gt\n      iszero\n      tag_16\n      jumpi\n      0x00\n      dup2\n      0x00\n      swap1\n      sstore\n      pop\n      0x01\n      add\n      jump(tag_15)\n    tag_16:\n      pop\n      swap1\n      jump\t// out\n        /* \"--CODEGEN--\":6:450   */\n    tag_18:\n      0x00\n        /* \"--CODEGEN--\":119:122   */\n      dup3\n        /* \"--CODEGEN--\":112:116   */\n      0x1f\n        /* \"--CODEGEN--\":104:110   */\n      dup4\n        /* \"--CODEGEN--\":100:117   */\n      add\n        /* \"--CODEGEN--\":96:123   */\n      slt\n        /* \"--CODEGEN--\":86:88   */\n      tag_20\n      jumpi\n        /* \"--CODEGEN--\":137:138   */\n      0x00\n        /* \"--CODEGEN--\":134:135   */\n      dup1\n        /* \"--CODEGEN--\":127:139   */\n      revert\n        /* \"--CODEGEN--\":86:88   */\n    tag_20:\n        /* \"--CODEGEN--\":167:173   */\n      dup2\n        /* \"--CODEGEN--\":161:174   */\n      mload\n        /* \"--CODEGEN--\":189:254   */\n      tag_21\n        /* \"--CODEGEN--\":204:253   */\n      tag_22\n        /* \"--CODEGEN--\":246:252   */\n      dup3\n        /* \"--CODEGEN--\":204:253   */\n      tag_23\n      jump\t// in\n    tag_22:\n        /* \"--CODEGEN--\":189:254   */\n      tag_24\n      jump\t// in\n    tag_21:\n        /* \"--CODEGEN--\":180:254   */\n      swap2\n      pop\n        /* \"--CODEGEN--\":274:280   */\n      dup1\n        /* \"--CODEGEN--\":267:272   */\n      dup3\n        /* \"--CODEGEN--\":260:281   */\n      mstore\n        /* \"--CODEGEN--\":310:314   */\n      0x20\n        /* \"--CODEGEN--\":302:308   */\n      dup4\n        /* \"--CODEGEN--\":298:315   */\n      add\n        /* \"--CODEGEN--\":343:347   */\n      0x20\n        /* \"--CODEGEN--\":336:341   */\n      dup4\n        /* \"--CODEGEN--\":332:348   */\n      add\n        /* \"--CODEGEN--\":378:381   */\n      dup6\n        /* \"--CODEGEN--\":369:375   */\n      dup4\n        /* \"--CODEGEN--\":364:367   */\n      dup4\n        /* \"--CODEGEN--\":360:376   */\n      add\n        /* \"--CODEGEN--\":357:382   */\n      gt\n        /* \"--CODEGEN--\":354:356   */\n      iszero\n      tag_25\n      jumpi\n        /* \"--CODEGEN--\":395:396   */\n      0x00\n        /* \"--CODEGEN--\":392:393   */\n      dup1\n        /* \"--CODEGEN--\":385:397   */\n      revert\n        /* \"--CODEGEN--\":354:356   */\n    tag_25:\n        /* \"--CODEGEN--\":405:444   */\n      tag_26\n        /* \"--CODEGEN--\":437:443   */\n      dup4\n        /* \"--CODEGEN--\":432:435   */\n      dup3\n        /* \"--CODEGEN--\":427:430   */\n      dup5\n        /* \"--CODEGEN--\":405:444   */\n      tag_27\n      jump\t// in\n    tag_26:\n        /* \"--CODEGEN--\":79:450   */\n      pop\n      pop\n      pop\n      swap3\n      swap2\n      pop\n      pop\n      jump\t// out\n        /* \"--CODEGEN--\":458:590   */\n    tag_28:\n      0x00\n        /* \"--CODEGEN--\":541:547   */\n      dup2\n        /* \"--CODEGEN--\":535:548   */\n      mload\n        /* \"--CODEGEN--\":526:548   */\n      swap1\n      pop\n        /* \"--CODEGEN--\":553:585   */\n      tag_30\n        /* \"--CODEGEN--\":579:584   */\n      dup2\n        /* \"--CODEGEN--\":553:585   */\n      tag_31\n      jump\t// in\n    tag_30:\n        /* \"--CODEGEN--\":520:590   */\n      swap3\n      swap2\n      pop\n      pop\n      jump\t// out\n        /* \"--CODEGEN--\":597:1093   */\n    tag_3:\n      0x00\n      dup1\n        /* \"--CODEGEN--\":738:740   */\n      0x40\n        /* \"--CODEGEN--\":726:735   */\n      dup4\n        /* \"--CODEGEN--\":717:724   */\n      dup6\n        /* \"--CODEGEN--\":713:736   */\n      sub\n        /* \"--CODEGEN--\":709:741   */\n      slt\n        /* \"--CODEGEN--\":706:708   */\n      iszero\n      tag_33\n      jumpi\n        /* \"--CODEGEN--\":754:755   */\n      0x00\n        /* \"--CODEGEN--\":751:752   */\n      dup1\n        /* \"--CODEGEN--\":744:756   */\n      revert\n        /* \"--CODEGEN--\":706:708   */\n    tag_33:\n        /* \"--CODEGEN--\":789:790   */\n      0x00\n        /* \"--CODEGEN--\":806:869   */\n      tag_34\n        /* \"--CODEGEN--\":861:868   */\n      dup6\n        /* \"--CODEGEN--\":852:858   */\n      dup3\n        /* \"--CODEGEN--\":841:850   */\n      dup7\n        /* \"--CODEGEN--\":837:859   */\n      add\n        /* \"--CODEGEN--\":806:869   */\n      tag_28\n      jump\t// in\n    tag_34:\n        /* \"--CODEGEN--\":796:869   */\n      swap3\n      pop\n        /* \"--CODEGEN--\":768:875   */\n      pop\n        /* \"--CODEGEN--\":927:929   */\n      0x20\n        /* \"--CODEGEN--\":916:925   */\n      dup4\n        /* \"--CODEGEN--\":912:930   */\n      add\n        /* \"--CODEGEN--\":906:931   */\n      mload\n        /* \"--CODEGEN--\":951:969   */\n      0xffffffffffffffff\n        /* \"--CODEGEN--\":943:949   */\n      dup2\n        /* \"--CODEGEN--\":940:970   */\n      gt\n        /* \"--CODEGEN--\":937:939   */\n      iszero\n      tag_35\n      jumpi\n        /* \"--CODEGEN--\":983:984   */\n      0x00\n        /* \"--CODEGEN--\":980:981   */\n      dup1\n        /* \"--CODEGEN--\":973:985   */\n      revert\n        /* \"--CODEGEN--\":937:939   */\n    tag_35:\n        /* \"--CODEGEN--\":1003:1077   */\n      tag_36\n        /* \"--CODEGEN--\":1069:1076   */\n      dup6\n        /* \"--CODEGEN--\":1060:1066   */\n      dup3\n        /* \"--CODEGEN--\":1049:1058   */\n      dup7\n        /* \"--CODEGEN--\":1045:1067   */\n      add\n        /* \"--CODEGEN--\":1003:1077   */\n      tag_18\n      jump\t// in\n    tag_36:\n        /* \"--CODEGEN--\":993:1077   */\n      swap2\n      pop\n        /* \"--CODEGEN--\":885:1083   */\n      pop\n        /* \"--CODEGEN--\":700:1093   */\n      swap3\n      pop\n      swap3\n      swap1\n      pop\n      jump\t// out\n        /* \"--CODEGEN--\":1100:1356   */\n    tag_24:\n      0x00\n        /* \"--CODEGEN--\":1162:1164   */\n      0x40\n        /* \"--CODEGEN--\":1156:1165   */\n      mload\n        /* \"--CODEGEN--\":1146:1165   */\n      swap1\n      pop\n        /* \"--CODEGEN--\":1200:1204   */\n      dup2\n        /* \"--CODEGEN--\":1192:1198   */\n      dup2\n        /* \"--CODEGEN--\":1188:1205   */\n      add\n        /* \"--CODEGEN--\":1299:1305   */\n      dup2\n        /* \"--CODEGEN--\":1287:1297   */\n      dup2\n        /* \"--CODEGEN--\":1284:1306   */\n      lt\n        /* \"--CODEGEN--\":1263:1281   */\n      0xffffffffffffffff\n        /* \"--CODEGEN--\":1251:1261   */\n      dup3\n        /* \"--CODEGEN--\":1248:1282   */\n      gt\n        /* \"--CODEGEN--\":1245:1307   */\n      or\n        /* \"--CODEGEN--\":1242:1244   */\n      iszero\n      tag_38\n      jumpi\n        /* \"--CODEGEN--\":1320:1321   */\n      0x00\n        /* \"--CODEGEN--\":1317:1318   */\n      dup1\n        /* \"--CODEGEN--\":1310:1322   */\n      revert\n        /* \"--CODEGEN--\":1242:1244   */\n    tag_38:\n        /* \"--CODEGEN--\":1340:1350   */\n      dup1\n        /* \"--CODEGEN--\":1336:1338   */\n      0x40\n        /* \"--CODEGEN--\":1329:1351   */\n      mstore\n        /* \"--CODEGEN--\":1140:1356   */\n      pop\n      swap2\n      swap1\n      pop\n      jump\t// out\n        /* \"--CODEGEN--\":1363:1685   */\n    tag_23:\n      0x00\n        /* \"--CODEGEN--\":1507:1525   */\n      0xffffffffffffffff\n        /* \"--CODEGEN--\":1499:1505   */\n      dup3\n        /* \"--CODEGEN--\":1496:1526   */\n      gt\n        /* \"--CODEGEN--\":1493:1495   */\n      iszero\n      tag_40\n      jumpi\n        /* \"--CODEGEN--\":1539:1540   */\n      0x00\n        /* \"--CODEGEN--\":1536:1537   */\n      dup1\n        /* \"--CODEGEN--\":1529:1541   */\n      revert\n        /* \"--CODEGEN--\":1493:1495   */\n    tag_40:\n        /* \"--CODEGEN--\":1606:1610   */\n      0x1f\n        /* \"--CODEGEN--\":1602:1611   */\n      not\n        /* \"--CODEGEN--\":1595:1599   */\n      0x1f\n        /* \"--CODEGEN--\":1587:1593   */\n      dup4\n        /* \"--CODEGEN--\":1583:1600   */\n      add\n        /* \"--CODEGEN--\":1579:1612   */\n      and\n        /* \"--CODEGEN--\":1571:1612   */\n      swap1\n      pop\n        /* \"--CODEGEN--\":1670:1674   */\n      0x20\n        /* \"--CODEGEN--\":1664:1668   */\n      dup2\n        /* \"--CODEGEN--\":1660:1675   */\n      add\n        /* \"--CODEGEN--\":1652:1675   */\n      swap1\n      pop\n        /* \"--CODEGEN--\":1430:1685   */\n      swap2\n      swap1\n      pop\n      jump\t// out\n        /* \"--CODEGEN--\":1692:1776   */\n    tag_41:\n      0x00\n        /* \"--CODEGEN--\":1764:1770   */\n      0xffff\n        /* \"--CODEGEN--\":1757:1762   */\n      dup3\n        /* \"--CODEGEN--\":1753:1771   */\n      and\n        /* \"--CODEGEN--\":1742:1771   */\n      swap1\n      pop\n        /* \"--CODEGEN--\":1736:1776   */\n      swap2\n      swap1\n      pop\n      jump\t// out\n        /* \"--CODEGEN--\":1784:2052   */\n    tag_27:\n        /* \"--CODEGEN--\":1849:1850   */\n      0x00\n        /* \"--CODEGEN--\":1856:1957   */\n    tag_44:\n        /* \"--CODEGEN--\":1870:1876   */\n      dup4\n        /* \"--CODEGEN--\":1867:1868   */\n      dup2\n        /* \"--CODEGEN--\":1864:1877   */\n      lt\n        /* \"--CODEGEN--\":1856:1957   */\n      iszero\n      tag_46\n      jumpi\n        /* \"--CODEGEN--\":1946:1947   */\n      dup1\n        /* \"--CODEGEN--\":1941:1944   */\n      dup3\n        /* \"--CODEGEN--\":1937:1948   */\n      add\n        /* \"--CODEGEN--\":1931:1949   */\n      mload\n        /* \"--CODEGEN--\":1927:1928   */\n      dup2\n        /* \"--CODEGEN--\":1922:1925   */\n      dup5\n        /* \"--CODEGEN--\":1918:1929   */\n      add\n        /* \"--CODEGEN--\":1911:1950   */\n      mstore\n        /* \"--CODEGEN--\":1892:1894   */\n      0x20\n        /* \"--CODEGEN--\":1889:1890   */\n      dup2\n        /* \"--CODEGEN--\":1885:1895   */\n      add\n        /* \"--CODEGEN--\":1880:1895   */\n      swap1\n      pop\n        /* \"--CODEGEN--\":1856:1957   */\n      jump(tag_44)\n    tag_46:\n        /* \"--CODEGEN--\":1972:1978   */\n      dup4\n        /* \"--CODEGEN--\":1969:1970   */\n      dup2\n        /* \"--CODEGEN--\":1966:1979   */\n      gt\n        /* \"--CODEGEN--\":1963:1965   */\n      iszero\n      tag_47\n      jumpi\n        /* \"--CODEGEN--\":2037:2038   */\n      0x00\n        /* \"--CODEGEN--\":2028:2034   */\n      dup5\n        /* \"--CODEGEN--\":2023:2026   */\n      dup5\n        /* \"--CODEGEN--\":2019:2035   */\n      add\n        /* \"--CODEGEN--\":2012:2039   */\n      mstore\n        /* \"--CODEGEN--\":1963:1965   */\n    tag_47:\n        /* \"--CODEGEN--\":1833:2052   */\n      pop\n      pop\n      pop\n      pop\n      jump\t// out\n        /* \"--CODEGEN--\":2060:2175   */\n    tag_31:\n        /* \"--CODEGEN--\":2128:2151   */\n      tag_49\n        /* \"--CODEGEN--\":2145:2150   */\n      dup2\n        /* \"--CODEGEN--\":2128:2151   */\n      tag_41\n      jump\t// in\n    tag_49:\n        /* \"--CODEGEN--\":2121:2126   */\n      dup2\n        /* \"--CODEGEN--\":2118:2152   */\n      eq\n        /* \"--CODEGEN--\":2108:2110   */\n      tag_50\n      jumpi\n        /* \"--CODEGEN--\":2166:2167   */\n      0x00\n        /* \"--CODEGEN--\":2163:2164   */\n      dup1\n        /* \"--CODEGEN--\":2156:2168   */\n      revert\n        /* \"--CODEGEN--\":2108:2110   */\n    tag_50:\n        /* \"--CODEGEN--\":2102:2175   */\n      pop\n      jump\t// out\n        /* \"contracts/learning.sol\":71:461  contract Parcel\r... */\n    tag_8:\n      dataSize(sub_0)\n      dup1\n      dataOffset(sub_0)\n      0x00\n      codecopy\n      0x00\n      return\n    stop\n\n    sub_0: assembly {\n            /* \"contracts/learning.sol\":71:461  contract Parcel\r... */\n          mstore(0x40, 0x80)\n          callvalue\n          dup1\n          iszero\n          tag_1\n          jumpi\n          0x00\n          dup1\n          revert\n        tag_1:\n          pop\n          jumpi(tag_2, lt(calldatasize, 0x04))\n          shr(0xe0, calldataload(0x00))\n          dup1\n          0x9b015805\n          eq\n          tag_3\n          jumpi\n          dup1\n          0xb7cd9d89\n          eq\n          tag_4\n          jumpi\n        tag_2:\n          0x00\n          dup1\n          revert\n            /* \"contracts/learning.sol\":362:458  function gerParcelName() view public returns(string memory) \r... */\n        tag_3:\n          tag_5\n          tag_6\n          jump\t// in\n        tag_5:\n          mload(0x40)\n          tag_7\n          swap2\n          swap1\n          tag_8\n          jump\t// in\n        tag_7:\n          mload(0x40)\n          dup1\n          swap2\n          sub\n          swap1\n          return\n            /* \"contracts/learning.sol\":265:354  function setParcelName(string memory _name)  public \r... */\n        tag_4:\n          tag_9\n          0x04\n          dup1\n          calldatasize\n          sub\n          dup2\n          add\n          swap1\n          tag_10\n          swap2\n          swap1\n          tag_11\n          jump\t// in\n        tag_10:\n          tag_12\n          jump\t// in\n        tag_9:\n          stop\n            /* \"contracts/learning.sol\":362:458  function gerParcelName() view public returns(string memory) \r... */\n        tag_6:\n            /* \"contracts/learning.sol\":407:420  string memory */\n          0x60\n            /* \"contracts/learning.sol\":446:450  name */\n          0x01\n            /* \"contracts/learning.sol\":439:450  return name */\n          dup1\n          sload\n          0x01\n          dup2\n          0x01\n          and\n          iszero\n          0x0100\n          mul\n          sub\n          and\n          0x02\n          swap1\n          div\n          dup1\n          0x1f\n          add\n          0x20\n          dup1\n          swap2\n          div\n          mul\n          0x20\n          add\n          mload(0x40)\n          swap1\n          dup2\n          add\n          0x40\n          mstore\n          dup1\n          swap3\n          swap2\n          swap1\n          dup2\n          dup2\n          mstore\n          0x20\n          add\n          dup3\n          dup1\n          sload\n          0x01\n          dup2\n          0x01\n          and\n          iszero\n          0x0100\n          mul\n          sub\n          and\n          0x02\n          swap1\n          div\n          dup1\n          iszero\n          tag_14\n          jumpi\n          dup1\n          0x1f\n          lt\n          tag_15\n          jumpi\n          0x0100\n          dup1\n          dup4\n          sload\n          div\n          mul\n          dup4\n          mstore\n          swap2\n          0x20\n          add\n          swap2\n          jump(tag_14)\n        tag_15:\n          dup3\n          add\n          swap2\n          swap1\n          0x00\n          mstore\n          keccak256(0x00, 0x20)\n          swap1\n        tag_16:\n          dup2\n          sload\n          dup2\n          mstore\n          swap1\n          0x01\n          add\n          swap1\n          0x20\n          add\n          dup1\n          dup4\n          gt\n          tag_16\n          jumpi\n          dup3\n          swap1\n          sub\n          0x1f\n          and\n          dup3\n          add\n          swap2\n        tag_14:\n          pop\n          pop\n          pop\n          pop\n          pop\n          swap1\n          pop\n            /* \"contracts/learning.sol\":362:458  function gerParcelName() view public returns(string memory) \r... */\n          swap1\n          jump\t// out\n            /* \"contracts/learning.sol\":265:354  function setParcelName(string memory _name)  public \r... */\n        tag_12:\n            /* \"contracts/learning.sol\":341:346  _name */\n          dup1\n            /* \"contracts/learning.sol\":334:338  name */\n          0x01\n            /* \"contracts/learning.sol\":334:346  name = _name */\n          swap1\n          dup1\n          mload\n          swap1\n          0x20\n          add\n          swap1\n          tag_18\n          swap3\n          swap2\n          swap1\n          tag_19\n          jump\t// in\n        tag_18:\n          pop\n            /* \"contracts/learning.sol\":265:354  function setParcelName(string memory _name)  public \r... */\n          pop\n          jump\t// out\n        tag_19:\n          dup3\n          dup1\n          sload\n          0x01\n          dup2\n          0x01\n          and\n          iszero\n          0x0100\n          mul\n          sub\n          and\n          0x02\n          swap1\n          div\n          swap1\n          0x00\n          mstore\n          keccak256(0x00, 0x20)\n          swap1\n          0x1f\n          add\n          0x20\n          swap1\n          div\n          dup2\n          add\n          swap3\n          dup3\n          0x1f\n          lt\n          tag_21\n          jumpi\n          dup1\n          mload\n          not(0xff)\n          and\n          dup4\n          dup1\n          add\n          or\n          dup6\n          sstore\n          jump(tag_20)\n        tag_21:\n          dup3\n          dup1\n          add\n          0x01\n          add\n          dup6\n          sstore\n          dup3\n          iszero\n          tag_20\n          jumpi\n          swap2\n          dup3\n          add\n        tag_22:\n          dup3\n          dup2\n          gt\n          iszero\n          tag_23\n          jumpi\n          dup3\n          mload\n          dup3\n          sstore\n          swap2\n          0x20\n          add\n          swap2\n          swap1\n          0x01\n          add\n          swap1\n          jump(tag_22)\n        tag_23:\n        tag_20:\n          pop\n          swap1\n          pop\n          tag_24\n          swap2\n          swap1\n          tag_25\n          jump\t// in\n        tag_24:\n          pop\n          swap1\n          jump\t// out\n        tag_25:\n        tag_26:\n          dup1\n          dup3\n          gt\n          iszero\n          tag_27\n          jumpi\n          0x00\n          dup2\n          0x00\n          swap1\n          sstore\n          pop\n          0x01\n          add\n          jump(tag_26)\n        tag_27:\n          pop\n          swap1\n          jump\t// out\n            /* \"--CODEGEN--\":6:448   */\n        tag_29:\n          0x00\n            /* \"--CODEGEN--\":108:111   */\n          dup3\n            /* \"--CODEGEN--\":101:105   */\n          0x1f\n            /* \"--CODEGEN--\":93:99   */\n          dup4\n            /* \"--CODEGEN--\":89:106   */\n          add\n            /* \"--CODEGEN--\":85:112   */\n          slt\n            /* \"--CODEGEN--\":75:77   */\n          tag_31\n          jumpi\n            /* \"--CODEGEN--\":126:127   */\n          0x00\n            /* \"--CODEGEN--\":123:124   */\n          dup1\n            /* \"--CODEGEN--\":116:128   */\n          revert\n            /* \"--CODEGEN--\":75:77   */\n        tag_31:\n            /* \"--CODEGEN--\":163:169   */\n          dup2\n            /* \"--CODEGEN--\":150:170   */\n          calldataload\n            /* \"--CODEGEN--\":185:250   */\n          tag_32\n            /* \"--CODEGEN--\":200:249   */\n          tag_33\n            /* \"--CODEGEN--\":242:248   */\n          dup3\n            /* \"--CODEGEN--\":200:249   */\n          tag_34\n          jump\t// in\n        tag_33:\n            /* \"--CODEGEN--\":185:250   */\n          tag_35\n          jump\t// in\n        tag_32:\n            /* \"--CODEGEN--\":176:250   */\n          swap2\n          pop\n            /* \"--CODEGEN--\":270:276   */\n          dup1\n            /* \"--CODEGEN--\":263:268   */\n          dup3\n            /* \"--CODEGEN--\":256:277   */\n          mstore\n            /* \"--CODEGEN--\":306:310   */\n          0x20\n            /* \"--CODEGEN--\":298:304   */\n          dup4\n            /* \"--CODEGEN--\":294:311   */\n          add\n            /* \"--CODEGEN--\":339:343   */\n          0x20\n            /* \"--CODEGEN--\":332:337   */\n          dup4\n            /* \"--CODEGEN--\":328:344   */\n          add\n            /* \"--CODEGEN--\":374:377   */\n          dup6\n            /* \"--CODEGEN--\":365:371   */\n          dup4\n            /* \"--CODEGEN--\":360:363   */\n          dup4\n            /* \"--CODEGEN--\":356:372   */\n          add\n            /* \"--CODEGEN--\":353:378   */\n          gt\n            /* \"--CODEGEN--\":350:352   */\n          iszero\n          tag_36\n          jumpi\n            /* \"--CODEGEN--\":391:392   */\n          0x00\n            /* \"--CODEGEN--\":388:389   */\n          dup1\n            /* \"--CODEGEN--\":381:393   */\n          revert\n            /* \"--CODEGEN--\":350:352   */\n        tag_36:\n            /* \"--CODEGEN--\":401:442   */\n          tag_37\n            /* \"--CODEGEN--\":435:441   */\n          dup4\n            /* \"--CODEGEN--\":430:433   */\n          dup3\n            /* \"--CODEGEN--\":425:428   */\n          dup5\n            /* \"--CODEGEN--\":401:442   */\n          tag_38\n          jump\t// in\n        tag_37:\n            /* \"--CODEGEN--\":68:448   */\n          pop\n          pop\n          pop\n          swap3\n          swap2\n          pop\n          pop\n          jump\t// out\n            /* \"--CODEGEN--\":456:803   */\n        tag_11:\n          0x00\n            /* \"--CODEGEN--\":570:572   */\n          0x20\n            /* \"--CODEGEN--\":558:567   */\n          dup3\n            /* \"--CODEGEN--\":549:556   */\n          dup5\n            /* \"--CODEGEN--\":545:568   */\n          sub\n            /* \"--CODEGEN--\":541:573   */\n          slt\n            /* \"--CODEGEN--\":538:540   */\n          iszero\n          tag_40\n          jumpi\n            /* \"--CODEGEN--\":586:587   */\n          0x00\n            /* \"--CODEGEN--\":583:584   */\n          dup1\n            /* \"--CODEGEN--\":576:588   */\n          revert\n            /* \"--CODEGEN--\":538:540   */\n        tag_40:\n            /* \"--CODEGEN--\":649:650   */\n          0x00\n            /* \"--CODEGEN--\":638:647   */\n          dup3\n            /* \"--CODEGEN--\":634:651   */\n          add\n            /* \"--CODEGEN--\":621:652   */\n          calldataload\n            /* \"--CODEGEN--\":672:690   */\n          0xffffffffffffffff\n            /* \"--CODEGEN--\":664:670   */\n          dup2\n            /* \"--CODEGEN--\":661:691   */\n          gt\n            /* \"--CODEGEN--\":658:660   */\n          iszero\n          tag_41\n          jumpi\n            /* \"--CODEGEN--\":704:705   */\n          0x00\n            /* \"--CODEGEN--\":701:702   */\n          dup1\n            /* \"--CODEGEN--\":694:706   */\n          revert\n            /* \"--CODEGEN--\":658:660   */\n        tag_41:\n            /* \"--CODEGEN--\":724:787   */\n          tag_42\n            /* \"--CODEGEN--\":779:786   */\n          dup5\n            /* \"--CODEGEN--\":770:776   */\n          dup3\n            /* \"--CODEGEN--\":759:768   */\n          dup6\n            /* \"--CODEGEN--\":755:777   */\n          add\n            /* \"--CODEGEN--\":724:787   */\n          tag_29\n          jump\t// in\n        tag_42:\n            /* \"--CODEGEN--\":714:787   */\n          swap2\n          pop\n            /* \"--CODEGEN--\":600:793   */\n          pop\n            /* \"--CODEGEN--\":532:803   */\n          swap3\n          swap2\n          pop\n          pop\n          jump\t// out\n            /* \"--CODEGEN--\":810:1157   */\n        tag_43:\n          0x00\n            /* \"--CODEGEN--\":922:961   */\n          tag_45\n            /* \"--CODEGEN--\":955:960   */\n          dup3\n            /* \"--CODEGEN--\":922:961   */\n          tag_46\n          jump\t// in\n        tag_45:\n            /* \"--CODEGEN--\":973:1044   */\n          tag_47\n            /* \"--CODEGEN--\":1037:1043   */\n          dup2\n            /* \"--CODEGEN--\":1032:1035   */\n          dup6\n            /* \"--CODEGEN--\":973:1044   */\n          tag_48\n          jump\t// in\n        tag_47:\n            /* \"--CODEGEN--\":966:1044   */\n          swap4\n          pop\n            /* \"--CODEGEN--\":1049:1101   */\n          tag_49\n            /* \"--CODEGEN--\":1094:1100   */\n          dup2\n            /* \"--CODEGEN--\":1089:1092   */\n          dup6\n            /* \"--CODEGEN--\":1082:1086   */\n          0x20\n            /* \"--CODEGEN--\":1075:1080   */\n          dup7\n            /* \"--CODEGEN--\":1071:1087   */\n          add\n            /* \"--CODEGEN--\":1049:1101   */\n          tag_50\n          jump\t// in\n        tag_49:\n            /* \"--CODEGEN--\":1122:1151   */\n          tag_51\n            /* \"--CODEGEN--\":1144:1150   */\n          dup2\n            /* \"--CODEGEN--\":1122:1151   */\n          tag_52\n          jump\t// in\n        tag_51:\n            /* \"--CODEGEN--\":1117:1120   */\n          dup5\n            /* \"--CODEGEN--\":1113:1152   */\n          add\n            /* \"--CODEGEN--\":1106:1152   */\n          swap2\n          pop\n            /* \"--CODEGEN--\":902:1157   */\n          pop\n          swap3\n          swap2\n          pop\n          pop\n          jump\t// out\n            /* \"--CODEGEN--\":1164:1474   */\n        tag_8:\n          0x00\n            /* \"--CODEGEN--\":1311:1313   */\n          0x20\n            /* \"--CODEGEN--\":1300:1309   */\n          dup3\n            /* \"--CODEGEN--\":1296:1314   */\n          add\n            /* \"--CODEGEN--\":1288:1314   */\n          swap1\n          pop\n            /* \"--CODEGEN--\":1361:1370   */\n          dup2\n            /* \"--CODEGEN--\":1355:1359   */\n          dup2\n            /* \"--CODEGEN--\":1351:1371   */\n          sub\n            /* \"--CODEGEN--\":1347:1348   */\n          0x00\n            /* \"--CODEGEN--\":1336:1345   */\n          dup4\n            /* \"--CODEGEN--\":1332:1349   */\n          add\n            /* \"--CODEGEN--\":1325:1372   */\n          mstore\n            /* \"--CODEGEN--\":1386:1464   */\n          tag_54\n            /* \"--CODEGEN--\":1459:1463   */\n          dup2\n            /* \"--CODEGEN--\":1450:1456   */\n          dup5\n            /* \"--CODEGEN--\":1386:1464   */\n          tag_43\n          jump\t// in\n        tag_54:\n            /* \"--CODEGEN--\":1378:1464   */\n          swap1\n          pop\n            /* \"--CODEGEN--\":1282:1474   */\n          swap3\n          swap2\n          pop\n          pop\n          jump\t// out\n            /* \"--CODEGEN--\":1481:1737   */\n        tag_35:\n          0x00\n            /* \"--CODEGEN--\":1543:1545   */\n          0x40\n            /* \"--CODEGEN--\":1537:1546   */\n          mload\n            /* \"--CODEGEN--\":1527:1546   */\n          swap1\n          pop\n            /* \"--CODEGEN--\":1581:1585   */\n          dup2\n            /* \"--CODEGEN--\":1573:1579   */\n          dup2\n            /* \"--CODEGEN--\":1569:1586   */\n          add\n            /* \"--CODEGEN--\":1680:1686   */\n          dup2\n            /* \"--CODEGEN--\":1668:1678   */\n          dup2\n            /* \"--CODEGEN--\":1665:1687   */\n          lt\n            /* \"--CODEGEN--\":1644:1662   */\n          0xffffffffffffffff\n            /* \"--CODEGEN--\":1632:1642   */\n          dup3\n            /* \"--CODEGEN--\":1629:1663   */\n          gt\n            /* \"--CODEGEN--\":1626:1688   */\n          or\n            /* \"--CODEGEN--\":1623:1625   */\n          iszero\n          tag_56\n          jumpi\n            /* \"--CODEGEN--\":1701:1702   */\n          0x00\n            /* \"--CODEGEN--\":1698:1699   */\n          dup1\n            /* \"--CODEGEN--\":1691:1703   */\n          revert\n            /* \"--CODEGEN--\":1623:1625   */\n        tag_56:\n            /* \"--CODEGEN--\":1721:1731   */\n          dup1\n            /* \"--CODEGEN--\":1717:1719   */\n          0x40\n            /* \"--CODEGEN--\":1710:1732   */\n          mstore\n            /* \"--CODEGEN--\":1521:1737   */\n          pop\n          swap2\n          swap1\n          pop\n          jump\t// out\n            /* \"--CODEGEN--\":1744:2066   */\n        tag_34:\n          0x00\n            /* \"--CODEGEN--\":1888:1906   */\n          0xffffffffffffffff\n            /* \"--CODEGEN--\":1880:1886   */\n          dup3\n            /* \"--CODEGEN--\":1877:1907   */\n          gt\n            /* \"--CODEGEN--\":1874:1876   */\n          iszero\n          tag_58\n          jumpi\n            /* \"--CODEGEN--\":1920:1921   */\n          0x00\n            /* \"--CODEGEN--\":1917:1918   */\n          dup1\n            /* \"--CODEGEN--\":1910:1922   */\n          revert\n            /* \"--CODEGEN--\":1874:1876   */\n        tag_58:\n            /* \"--CODEGEN--\":1987:1991   */\n          0x1f\n            /* \"--CODEGEN--\":1983:1992   */\n          not\n            /* \"--CODEGEN--\":1976:1980   */\n          0x1f\n            /* \"--CODEGEN--\":1968:1974   */\n          dup4\n            /* \"--CODEGEN--\":1964:1981   */\n          add\n            /* \"--CODEGEN--\":1960:1993   */\n          and\n            /* \"--CODEGEN--\":1952:1993   */\n          swap1\n          pop\n            /* \"--CODEGEN--\":2051:2055   */\n          0x20\n            /* \"--CODEGEN--\":2045:2049   */\n          dup2\n            /* \"--CODEGEN--\":2041:2056   */\n          add\n            /* \"--CODEGEN--\":2033:2056   */\n          swap1\n          pop\n            /* \"--CODEGEN--\":1811:2066   */\n          swap2\n          swap1\n          pop\n          jump\t// out\n            /* \"--CODEGEN--\":2073:2195   */\n        tag_46:\n          0x00\n            /* \"--CODEGEN--\":2167:2172   */\n          dup2\n            /* \"--CODEGEN--\":2161:2173   */\n          mload\n            /* \"--CODEGEN--\":2151:2173   */\n          swap1\n          pop\n            /* \"--CODEGEN--\":2132:2195   */\n          swap2\n          swap1\n          pop\n          jump\t// out\n            /* \"--CODEGEN--\":2203:2366   */\n        tag_48:\n          0x00\n            /* \"--CODEGEN--\":2318:2324   */\n          dup3\n            /* \"--CODEGEN--\":2313:2316   */\n          dup3\n            /* \"--CODEGEN--\":2306:2325   */\n          mstore\n            /* \"--CODEGEN--\":2355:2359   */\n          0x20\n            /* \"--CODEGEN--\":2350:2353   */\n          dup3\n            /* \"--CODEGEN--\":2346:2360   */\n          add\n            /* \"--CODEGEN--\":2331:2360   */\n          swap1\n          pop\n            /* \"--CODEGEN--\":2299:2366   */\n          swap3\n          swap2\n          pop\n          pop\n          jump\t// out\n            /* \"--CODEGEN--\":2375:2520   */\n        tag_38:\n            /* \"--CODEGEN--\":2456:2462   */\n          dup3\n            /* \"--CODEGEN--\":2451:2454   */\n          dup2\n            /* \"--CODEGEN--\":2446:2449   */\n          dup4\n            /* \"--CODEGEN--\":2433:2463   */\n          calldatacopy\n            /* \"--CODEGEN--\":2512:2513   */\n          0x00\n            /* \"--CODEGEN--\":2503:2509   */\n          dup4\n            /* \"--CODEGEN--\":2498:2501   */\n          dup4\n            /* \"--CODEGEN--\":2494:2510   */\n          add\n            /* \"--CODEGEN--\":2487:2514   */\n          mstore\n            /* \"--CODEGEN--\":2426:2520   */\n          pop\n          pop\n          pop\n          jump\t// out\n            /* \"--CODEGEN--\":2529:2797   */\n        tag_50:\n            /* \"--CODEGEN--\":2594:2595   */\n          0x00\n            /* \"--CODEGEN--\":2601:2702   */\n        tag_63:\n            /* \"--CODEGEN--\":2615:2621   */\n          dup4\n            /* \"--CODEGEN--\":2612:2613   */\n          dup2\n            /* \"--CODEGEN--\":2609:2622   */\n          lt\n            /* \"--CODEGEN--\":2601:2702   */\n          iszero\n          tag_65\n          jumpi\n            /* \"--CODEGEN--\":2691:2692   */\n          dup1\n            /* \"--CODEGEN--\":2686:2689   */\n          dup3\n            /* \"--CODEGEN--\":2682:2693   */\n          add\n            /* \"--CODEGEN--\":2676:2694   */\n          mload\n            /* \"--CODEGEN--\":2672:2673   */\n          dup2\n            /* \"--CODEGEN--\":2667:2670   */\n          dup5\n            /* \"--CODEGEN--\":2663:2674   */\n          add\n            /* \"--CODEGEN--\":2656:2695   */\n          mstore\n            /* \"--CODEGEN--\":2637:2639   */\n          0x20\n            /* \"--CODEGEN--\":2634:2635   */\n          dup2\n            /* \"--CODEGEN--\":2630:2640   */\n          add\n            /* \"--CODEGEN--\":2625:2640   */\n          swap1\n          pop\n            /* \"--CODEGEN--\":2601:2702   */\n          jump(tag_63)\n        tag_65:\n            /* \"--CODEGEN--\":2717:2723   */\n          dup4\n            /* \"--CODEGEN--\":2714:2715   */\n          dup2\n            /* \"--CODEGEN--\":2711:2724   */\n          gt\n            /* \"--CODEGEN--\":2708:2710   */\n          iszero\n          tag_66\n          jumpi\n            /* \"--CODEGEN--\":2782:2783   */\n          0x00\n            /* \"--CODEGEN--\":2773:2779   */\n          dup5\n            /* \"--CODEGEN--\":2768:2771   */\n          dup5\n            /* \"--CODEGEN--\":2764:2780   */\n          add\n            /* \"--CODEGEN--\":2757:2784   */\n          mstore\n            /* \"--CODEGEN--\":2708:2710   */\n        tag_66:\n            /* \"--CODEGEN--\":2578:2797   */\n          pop\n          pop\n          pop\n          pop\n          jump\t// out\n            /* \"--CODEGEN--\":2805:2902   */\n        tag_52:\n          0x00\n            /* \"--CODEGEN--\":2893:2895   */\n          0x1f\n            /* \"--CODEGEN--\":2889:2896   */\n          not\n            /* \"--CODEGEN--\":2884:2886   */\n          0x1f\n            /* \"--CODEGEN--\":2877:2882   */\n          dup4\n            /* \"--CODEGEN--\":2873:2887   */\n          add\n            /* \"--CODEGEN--\":2869:2897   */\n          and\n            /* \"--CODEGEN--\":2859:2897   */\n          swap1\n          pop\n            /* \"--CODEGEN--\":2853:2902   */\n          swap2\n          swap1\n          pop\n          jump\t// out\n\n        auxdata: 0xa26469706673582212200e91b1cde1fdf1166292105f396cb974715ca3af04288e7aaa37107460b4f01864736f6c634300060c0033\n    }\n}\n",
				"bytecode": {
					"linkReferences": {},
					"object": "608060405260016040516100129061008a565b61001c91906100e6565b604051809103906000f080158015610038573d6000803e3d6000fd5b506000806101000a81548173ffffffffffffffffffffffffffffffffffffffff021916908373ffffffffffffffffffffffffffffffffffffffff16021790555034801561008457600080fd5b50610145565b6106428061025f83390190565b6100a081610133565b82525050565b60006100b3600783610114565b91507f70617263656c31000000000000000000000000000000000000000000000000006000830152602082019050919050565b60006040820190506100fb6000830184610097565b818103602083015261010c816100a6565b905092915050565b600082825260208201905092915050565b600061ffff82169050919050565b600061013e82610125565b9050919050565b61010b806101546000396000f3fe6080604052348015600f57600080fd5b506004361060285760003560e01c80636ac38b4414602d575b600080fd5b60436004803603810190603f9190605b565b6045565b005b50565b60008135905060558160c1565b92915050565b600060208284031215606c57600080fd5b60006078848285016048565b91505092915050565b6000608a8260a1565b9050919050565b6000609a826081565b9050919050565b600073ffffffffffffffffffffffffffffffffffffffff82169050919050565b60c8816091565b811460d257600080fd5b5056fea26469706673582212204e70b0404f58a9c936dbe05a7e28eced5c06cdad391093c9690d6c2381351a3c64736f6c634300060c0033608060405234801561001057600080fd5b5060405161064238038061064283398181016040528101906100329190610172565b816000806101000a81548161ffff021916908361ffff160217905550806001908051906020019061006492919061006c565b505050610277565b828054600181600116156101000203166002900490600052602060002090601f016020900481019282601f106100ad57805160ff19168380011785556100db565b828001600101855582156100db579182015b828111156100da5782518255916020019190600101906100bf565b5b5090506100e891906100ec565b5090565b5b808211156101055760008160009055506001016100ed565b5090565b600082601f83011261011a57600080fd5b815161012d610128826101f3565b6101c6565b9150808252602083016020830185838301111561014957600080fd5b61015483828461022d565b50505092915050565b60008151905061016c81610260565b92915050565b6000806040838503121561018557600080fd5b60006101938582860161015d565b925050602083015167ffffffffffffffff8111156101b057600080fd5b6101bc85828601610109565b9150509250929050565b6000604051905081810181811067ffffffffffffffff821117156101e957600080fd5b8060405250919050565b600067ffffffffffffffff82111561020a57600080fd5b601f19601f8301169050602081019050919050565b600061ffff82169050919050565b60005b8381101561024b578082015181840152602081019050610230565b8381111561025a576000848401525b50505050565b6102698161021f565b811461027457600080fd5b50565b6103bc806102866000396000f3fe608060405234801561001057600080fd5b50600436106100365760003560e01c80639b0158051461003b578063b7cd9d8914610059575b600080fd5b610043610075565b604051610050919061029c565b60405180910390f35b610073600480360381019061006e9190610222565b610117565b005b606060018054600181600116156101000203166002900480601f01602080910402602001604051908101604052809291908181526020018280546001816001161561010002031660029004801561010d5780601f106100e25761010080835404028352916020019161010d565b820191906000526020600020905b8154815290600101906020018083116100f057829003601f168201915b5050505050905090565b806001908051906020019061012d929190610131565b5050565b828054600181600116156101000203166002900490600052602060002090601f016020900481019282601f1061017257805160ff19168380011785556101a0565b828001600101855582156101a0579182015b8281111561019f578251825591602001919060010190610184565b5b5090506101ad91906101b1565b5090565b5b808211156101ca5760008160009055506001016101b2565b5090565b600082601f8301126101df57600080fd5b81356101f26101ed826102eb565b6102be565b9150808252602083016020830185838301111561020e57600080fd5b610219838284610333565b50505092915050565b60006020828403121561023457600080fd5b600082013567ffffffffffffffff81111561024e57600080fd5b61025a848285016101ce565b91505092915050565b600061026e82610317565b6102788185610322565b9350610288818560208601610342565b61029181610375565b840191505092915050565b600060208201905081810360008301526102b68184610263565b905092915050565b6000604051905081810181811067ffffffffffffffff821117156102e157600080fd5b8060405250919050565b600067ffffffffffffffff82111561030257600080fd5b601f19601f8301169050602081019050919050565b600081519050919050565b600082825260208201905092915050565b82818337600083830152505050565b60005b83811015610360578082015181840152602081019050610345565b8381111561036f576000848401525b50505050565b6000601f19601f830116905091905056fea26469706673582212200e91b1cde1fdf1166292105f396cb974715ca3af04288e7aaa37107460b4f01864736f6c634300060c0033",
					"opcodes": "PUSH1 0x80 PUSH1 0x40 MSTORE PUSH1 0x1 PUSH1 0x40 MLOAD PUSH2 0x12 SWAP1 PUSH2 0x8A JUMP JUMPDEST PUSH2 0x1C SWAP2 SWAP1 PUSH2 0xE6 JUMP JUMPDEST PUSH1 0x40 MLOAD DUP1 SWAP2 SUB SWAP1 PUSH1 0x0 CREATE DUP1 ISZERO DUP1 ISZERO PUSH2 0x38 JUMPI RETURNDATASIZE PUSH1 0x0 DUP1 RETURNDATACOPY RETURNDATASIZE PUSH1 0x0 REVERT JUMPDEST POP PUSH1 0x0 DUP1 PUSH2 0x100 EXP DUP2 SLOAD DUP2 PUSH20 0xFFFFFFFFFFFFFFFFFFFFFFFFFFFFFFFFFFFFFFFF MUL NOT AND SWAP1 DUP4 PUSH20 0xFFFFFFFFFFFFFFFFFFFFFFFFFFFFFFFFFFFFFFFF AND MUL OR SWAP1 SSTORE POP CALLVALUE DUP1 ISZERO PUSH2 0x84 JUMPI PUSH1 0x0 DUP1 REVERT JUMPDEST POP PUSH2 0x145 JUMP JUMPDEST PUSH2 0x642 DUP1 PUSH2 0x25F DUP4 CODECOPY ADD SWAP1 JUMP JUMPDEST PUSH2 0xA0 DUP2 PUSH2 0x133 JUMP JUMPDEST DUP3 MSTORE POP POP JUMP JUMPDEST PUSH1 0x0 PUSH2 0xB3 PUSH1 0x7 DUP4 PUSH2 0x114 JUMP JUMPDEST SWAP2 POP PUSH32 0x70617263656C3100000000000000000000000000000000000000000000000000 PUSH1 0x0 DUP4 ADD MSTORE PUSH1 0x20 DUP3 ADD SWAP1 POP SWAP2 SWAP1 POP JUMP JUMPDEST PUSH1 0x0 PUSH1 0x40 DUP3 ADD SWAP1 POP PUSH2 0xFB PUSH1 0x0 DUP4 ADD DUP5 PUSH2 0x97 JUMP JUMPDEST DUP2 DUP2 SUB PUSH1 0x20 DUP4 ADD MSTORE PUSH2 0x10C DUP2 PUSH2 0xA6 JUMP JUMPDEST SWAP1 POP SWAP3 SWAP2 POP POP JUMP JUMPDEST PUSH1 0x0 DUP3 DUP3 MSTORE PUSH1 0x20 DUP3 ADD SWAP1 POP SWAP3 SWAP2 POP POP JUMP JUMPDEST PUSH1 0x0 PUSH2 0xFFFF DUP3 AND SWAP1 POP SWAP2 SWAP1 POP JUMP JUMPDEST PUSH1 0x0 PUSH2 0x13E DUP3 PUSH2 0x125 JUMP JUMPDEST SWAP1 POP SWAP2 SWAP1 POP JUMP JUMPDEST PUSH2 0x10B DUP1 PUSH2 0x154 PUSH1 0x0 CODECOPY PUSH1 0x0 RETURN INVALID PUSH1 0x80 PUSH1 0x40 MSTORE CALLVALUE DUP1 ISZERO PUSH1 0xF JUMPI PUSH1 0x0 DUP1 REVERT JUMPDEST POP PUSH1 0x4 CALLDATASIZE LT PUSH1 0x28 JUMPI PUSH1 0x0 CALLDATALOAD PUSH1 0xE0 SHR DUP1 PUSH4 0x6AC38B44 EQ PUSH1 0x2D JUMPI JUMPDEST PUSH1 0x0 DUP1 REVERT JUMPDEST PUSH1 0x43 PUSH1 0x4 DUP1 CALLDATASIZE SUB DUP2 ADD SWAP1 PUSH1 0x3F SWAP2 SWAP1 PUSH1 0x5B JUMP JUMPDEST PUSH1 0x45 JUMP JUMPDEST STOP JUMPDEST POP JUMP JUMPDEST PUSH1 0x0 DUP2 CALLDATALOAD SWAP1 POP PUSH1 0x55 DUP2 PUSH1 0xC1 JUMP JUMPDEST SWAP3 SWAP2 POP POP JUMP JUMPDEST PUSH1 0x0 PUSH1 0x20 DUP3 DUP5 SUB SLT ISZERO PUSH1 0x6C JUMPI PUSH1 0x0 DUP1 REVERT JUMPDEST PUSH1 0x0 PUSH1 0x78 DUP5 DUP3 DUP6 ADD PUSH1 0x48 JUMP JUMPDEST SWAP2 POP POP SWAP3 SWAP2 POP POP JUMP JUMPDEST PUSH1 0x0 PUSH1 0x8A DUP3 PUSH1 0xA1 JUMP JUMPDEST SWAP1 POP SWAP2 SWAP1 POP JUMP JUMPDEST PUSH1 0x0 PUSH1 0x9A DUP3 PUSH1 0x81 JUMP JUMPDEST SWAP1 POP SWAP2 SWAP1 POP JUMP JUMPDEST PUSH1 0x0 PUSH20 0xFFFFFFFFFFFFFFFFFFFFFFFFFFFFFFFFFFFFFFFF DUP3 AND SWAP1 POP SWAP2 SWAP1 POP JUMP JUMPDEST PUSH1 0xC8 DUP2 PUSH1 0x91 JUMP JUMPDEST DUP2 EQ PUSH1 0xD2 JUMPI PUSH1 0x0 DUP1 REVERT JUMPDEST POP JUMP INVALID LOG2 PUSH5 0x6970667358 0x22 SLT KECCAK256 0x4E PUSH17 0xB0404F58A9C936DBE05A7E28ECED5C06CD 0xAD CODECOPY LT SWAP4 0xC9 PUSH10 0xD6C2381351A3C64736F PUSH13 0x634300060C0033608060405234 DUP1 ISZERO PUSH2 0x10 JUMPI PUSH1 0x0 DUP1 REVERT JUMPDEST POP PUSH1 0x40 MLOAD PUSH2 0x642 CODESIZE SUB DUP1 PUSH2 0x642 DUP4 CODECOPY DUP2 DUP2 ADD PUSH1 0x40 MSTORE DUP2 ADD SWAP1 PUSH2 0x32 SWAP2 SWAP1 PUSH2 0x172 JUMP JUMPDEST DUP2 PUSH1 0x0 DUP1 PUSH2 0x100 EXP DUP2 SLOAD DUP2 PUSH2 0xFFFF MUL NOT AND SWAP1 DUP4 PUSH2 0xFFFF AND MUL OR SWAP1 SSTORE POP DUP1 PUSH1 0x1 SWAP1 DUP1 MLOAD SWAP1 PUSH1 0x20 ADD SWAP1 PUSH2 0x64 SWAP3 SWAP2 SWAP1 PUSH2 0x6C JUMP JUMPDEST POP POP POP PUSH2 0x277 JUMP JUMPDEST DUP3 DUP1 SLOAD PUSH1 0x1 DUP2 PUSH1 0x1 AND ISZERO PUSH2 0x100 MUL SUB AND PUSH1 0x2 SWAP1 DIV SWAP1 PUSH1 0x0 MSTORE PUSH1 0x20 PUSH1 0x0 KECCAK256 SWAP1 PUSH1 0x1F ADD PUSH1 0x20 SWAP1 DIV DUP2 ADD SWAP3 DUP3 PUSH1 0x1F LT PUSH2 0xAD JUMPI DUP1 MLOAD PUSH1 0xFF NOT AND DUP4 DUP1 ADD OR DUP6 SSTORE PUSH2 0xDB JUMP JUMPDEST DUP3 DUP1 ADD PUSH1 0x1 ADD DUP6 SSTORE DUP3 ISZERO PUSH2 0xDB JUMPI SWAP2 DUP3 ADD JUMPDEST DUP3 DUP2 GT ISZERO PUSH2 0xDA JUMPI DUP3 MLOAD DUP3 SSTORE SWAP2 PUSH1 0x20 ADD SWAP2 SWAP1 PUSH1 0x1 ADD SWAP1 PUSH2 0xBF JUMP JUMPDEST JUMPDEST POP SWAP1 POP PUSH2 0xE8 SWAP2 SWAP1 PUSH2 0xEC JUMP JUMPDEST POP SWAP1 JUMP JUMPDEST JUMPDEST DUP1 DUP3 GT ISZERO PUSH2 0x105 JUMPI PUSH1 0x0 DUP2 PUSH1 0x0 SWAP1 SSTORE POP PUSH1 0x1 ADD PUSH2 0xED JUMP JUMPDEST POP SWAP1 JUMP JUMPDEST PUSH1 0x0 DUP3 PUSH1 0x1F DUP4 ADD SLT PUSH2 0x11A JUMPI PUSH1 0x0 DUP1 REVERT JUMPDEST DUP2 MLOAD PUSH2 0x12D PUSH2 0x128 DUP3 PUSH2 0x1F3 JUMP JUMPDEST PUSH2 0x1C6 JUMP JUMPDEST SWAP2 POP DUP1 DUP3 MSTORE PUSH1 0x20 DUP4 ADD PUSH1 0x20 DUP4 ADD DUP6 DUP4 DUP4 ADD GT ISZERO PUSH2 0x149 JUMPI PUSH1 0x0 DUP1 REVERT JUMPDEST PUSH2 0x154 DUP4 DUP3 DUP5 PUSH2 0x22D JUMP JUMPDEST POP POP POP SWAP3 SWAP2 POP POP JUMP JUMPDEST PUSH1 0x0 DUP2 MLOAD SWAP1 POP PUSH2 0x16C DUP2 PUSH2 0x260 JUMP JUMPDEST SWAP3 SWAP2 POP POP JUMP JUMPDEST PUSH1 0x0 DUP1 PUSH1 0x40 DUP4 DUP6 SUB SLT ISZERO PUSH2 0x185 JUMPI PUSH1 0x0 DUP1 REVERT JUMPDEST PUSH1 0x0 PUSH2 0x193 DUP6 DUP3 DUP7 ADD PUSH2 0x15D JUMP JUMPDEST SWAP3 POP POP PUSH1 0x20 DUP4 ADD MLOAD PUSH8 0xFFFFFFFFFFFFFFFF DUP2 GT ISZERO PUSH2 0x1B0 JUMPI PUSH1 0x0 DUP1 REVERT JUMPDEST PUSH2 0x1BC DUP6 DUP3 DUP7 ADD PUSH2 0x109 JUMP JUMPDEST SWAP2 POP POP SWAP3 POP SWAP3 SWAP1 POP JUMP JUMPDEST PUSH1 0x0 PUSH1 0x40 MLOAD SWAP1 POP DUP2 DUP2 ADD DUP2 DUP2 LT PUSH8 0xFFFFFFFFFFFFFFFF DUP3 GT OR ISZERO PUSH2 0x1E9 JUMPI PUSH1 0x0 DUP1 REVERT JUMPDEST DUP1 PUSH1 0x40 MSTORE POP SWAP2 SWAP1 POP JUMP JUMPDEST PUSH1 0x0 PUSH8 0xFFFFFFFFFFFFFFFF DUP3 GT ISZERO PUSH2 0x20A JUMPI PUSH1 0x0 DUP1 REVERT JUMPDEST PUSH1 0x1F NOT PUSH1 0x1F DUP4 ADD AND SWAP1 POP PUSH1 0x20 DUP2 ADD SWAP1 POP SWAP2 SWAP1 POP JUMP JUMPDEST PUSH1 0x0 PUSH2 0xFFFF DUP3 AND SWAP1 POP SWAP2 SWAP1 POP JUMP JUMPDEST PUSH1 0x0 JUMPDEST DUP4 DUP2 LT ISZERO PUSH2 0x24B JUMPI DUP1 DUP3 ADD MLOAD DUP2 DUP5 ADD MSTORE PUSH1 0x20 DUP2 ADD SWAP1 POP PUSH2 0x230 JUMP JUMPDEST DUP4 DUP2 GT ISZERO PUSH2 0x25A JUMPI PUSH1 0x0 DUP5 DUP5 ADD MSTORE JUMPDEST POP POP POP POP JUMP JUMPDEST PUSH2 0x269 DUP2 PUSH2 0x21F JUMP JUMPDEST DUP2 EQ PUSH2 0x274 JUMPI PUSH1 0x0 DUP1 REVERT JUMPDEST POP JUMP JUMPDEST PUSH2 0x3BC DUP1 PUSH2 0x286 PUSH1 0x0 CODECOPY PUSH1 0x0 RETURN INVALID PUSH1 0x80 PUSH1 0x40 MSTORE CALLVALUE DUP1 ISZERO PUSH2 0x10 JUMPI PUSH1 0x0 DUP1 REVERT JUMPDEST POP PUSH1 0x4 CALLDATASIZE LT PUSH2 0x36 JUMPI PUSH1 0x0 CALLDATALOAD PUSH1 0xE0 SHR DUP1 PUSH4 0x9B015805 EQ PUSH2 0x3B JUMPI DUP1 PUSH4 0xB7CD9D89 EQ PUSH2 0x59 JUMPI JUMPDEST PUSH1 0x0 DUP1 REVERT JUMPDEST PUSH2 0x43 PUSH2 0x75 JUMP JUMPDEST PUSH1 0x40 MLOAD PUSH2 0x50 SWAP2 SWAP1 PUSH2 0x29C JUMP JUMPDEST PUSH1 0x40 MLOAD DUP1 SWAP2 SUB SWAP1 RETURN JUMPDEST PUSH2 0x73 PUSH1 0x4 DUP1 CALLDATASIZE SUB DUP2 ADD SWAP1 PUSH2 0x6E SWAP2 SWAP1 PUSH2 0x222 JUMP JUMPDEST PUSH2 0x117 JUMP JUMPDEST STOP JUMPDEST PUSH1 0x60 PUSH1 0x1 DUP1 SLOAD PUSH1 0x1 DUP2 PUSH1 0x1 AND ISZERO PUSH2 0x100 MUL SUB AND PUSH1 0x2 SWAP1 DIV DUP1 PUSH1 0x1F ADD PUSH1 0x20 DUP1 SWAP2 DIV MUL PUSH1 0x20 ADD PUSH1 0x40 MLOAD SWAP1 DUP2 ADD PUSH1 0x40 MSTORE DUP1 SWAP3 SWAP2 SWAP1 DUP2 DUP2 MSTORE PUSH1 0x20 ADD DUP3 DUP1 SLOAD PUSH1 0x1 DUP2 PUSH1 0x1 AND ISZERO PUSH2 0x100 MUL SUB AND PUSH1 0x2 SWAP1 DIV DUP1 ISZERO PUSH2 0x10D JUMPI DUP1 PUSH1 0x1F LT PUSH2 0xE2 JUMPI PUSH2 0x100 DUP1 DUP4 SLOAD DIV MUL DUP4 MSTORE SWAP2 PUSH1 0x20 ADD SWAP2 PUSH2 0x10D JUMP JUMPDEST DUP3 ADD SWAP2 SWAP1 PUSH1 0x0 MSTORE PUSH1 0x20 PUSH1 0x0 KECCAK256 SWAP1 JUMPDEST DUP2 SLOAD DUP2 MSTORE SWAP1 PUSH1 0x1 ADD SWAP1 PUSH1 0x20 ADD DUP1 DUP4 GT PUSH2 0xF0 JUMPI DUP3 SWAP1 SUB PUSH1 0x1F AND DUP3 ADD SWAP2 JUMPDEST POP POP POP POP POP SWAP1 POP SWAP1 JUMP JUMPDEST DUP1 PUSH1 0x1 SWAP1 DUP1 MLOAD SWAP1 PUSH1 0x20 ADD SWAP1 PUSH2 0x12D SWAP3 SWAP2 SWAP1 PUSH2 0x131 JUMP JUMPDEST POP POP JUMP JUMPDEST DUP3 DUP1 SLOAD PUSH1 0x1 DUP2 PUSH1 0x1 AND ISZERO PUSH2 0x100 MUL SUB AND PUSH1 0x2 SWAP1 DIV SWAP1 PUSH1 0x0 MSTORE PUSH1 0x20 PUSH1 0x0 KECCAK256 SWAP1 PUSH1 0x1F ADD PUSH1 0x20 SWAP1 DIV DUP2 ADD SWAP3 DUP3 PUSH1 0x1F LT PUSH2 0x172 JUMPI DUP1 MLOAD PUSH1 0xFF NOT AND DUP4 DUP1 ADD OR DUP6 SSTORE PUSH2 0x1A0 JUMP JUMPDEST DUP3 DUP1 ADD PUSH1 0x1 ADD DUP6 SSTORE DUP3 ISZERO PUSH2 0x1A0 JUMPI SWAP2 DUP3 ADD JUMPDEST DUP3 DUP2 GT ISZERO PUSH2 0x19F JUMPI DUP3 MLOAD DUP3 SSTORE SWAP2 PUSH1 0x20 ADD SWAP2 SWAP1 PUSH1 0x1 ADD SWAP1 PUSH2 0x184 JUMP JUMPDEST JUMPDEST POP SWAP1 POP PUSH2 0x1AD SWAP2 SWAP1 PUSH2 0x1B1 JUMP JUMPDEST POP SWAP1 JUMP JUMPDEST JUMPDEST DUP1 DUP3 GT ISZERO PUSH2 0x1CA JUMPI PUSH1 0x0 DUP2 PUSH1 0x0 SWAP1 SSTORE POP PUSH1 0x1 ADD PUSH2 0x1B2 JUMP JUMPDEST POP SWAP1 JUMP JUMPDEST PUSH1 0x0 DUP3 PUSH1 0x1F DUP4 ADD SLT PUSH2 0x1DF JUMPI PUSH1 0x0 DUP1 REVERT JUMPDEST DUP2 CALLDATALOAD PUSH2 0x1F2 PUSH2 0x1ED DUP3 PUSH2 0x2EB JUMP JUMPDEST PUSH2 0x2BE JUMP JUMPDEST SWAP2 POP DUP1 DUP3 MSTORE PUSH1 0x20 DUP4 ADD PUSH1 0x20 DUP4 ADD DUP6 DUP4 DUP4 ADD GT ISZERO PUSH2 0x20E JUMPI PUSH1 0x0 DUP1 REVERT JUMPDEST PUSH2 0x219 DUP4 DUP3 DUP5 PUSH2 0x333 JUMP JUMPDEST POP POP POP SWAP3 SWAP2 POP POP JUMP JUMPDEST PUSH1 0x0 PUSH1 0x20 DUP3 DUP5 SUB SLT ISZERO PUSH2 0x234 JUMPI PUSH1 0x0 DUP1 REVERT JUMPDEST PUSH1 0x0 DUP3 ADD CALLDATALOAD PUSH8 0xFFFFFFFFFFFFFFFF DUP2 GT ISZERO PUSH2 0x24E JUMPI PUSH1 0x0 DUP1 REVERT JUMPDEST PUSH2 0x25A DUP5 DUP3 DUP6 ADD PUSH2 0x1CE JUMP JUMPDEST SWAP2 POP POP SWAP3 SWAP2 POP POP JUMP JUMPDEST PUSH1 0x0 PUSH2 0x26E DUP3 PUSH2 0x317 JUMP JUMPDEST PUSH2 0x278 DUP2 DUP6 PUSH2 0x322 JUMP JUMPDEST SWAP4 POP PUSH2 0x288 DUP2 DUP6 PUSH1 0x20 DUP7 ADD PUSH2 0x342 JUMP JUMPDEST PUSH2 0x291 DUP2 PUSH2 0x375 JUMP JUMPDEST DUP5 ADD SWAP2 POP POP SWAP3 SWAP2 POP POP JUMP JUMPDEST PUSH1 0x0 PUSH1 0x20 DUP3 ADD SWAP1 POP DUP2 DUP2 SUB PUSH1 0x0 DUP4 ADD MSTORE PUSH2 0x2B6 DUP2 DUP5 PUSH2 0x263 JUMP JUMPDEST SWAP1 POP SWAP3 SWAP2 POP POP JUMP JUMPDEST PUSH1 0x0 PUSH1 0x40 MLOAD SWAP1 POP DUP2 DUP2 ADD DUP2 DUP2 LT PUSH8 0xFFFFFFFFFFFFFFFF DUP3 GT OR ISZERO PUSH2 0x2E1 JUMPI PUSH1 0x0 DUP1 REVERT JUMPDEST DUP1 PUSH1 0x40 MSTORE POP SWAP2 SWAP1 POP JUMP JUMPDEST PUSH1 0x0 PUSH8 0xFFFFFFFFFFFFFFFF DUP3 GT ISZERO PUSH2 0x302 JUMPI PUSH1 0x0 DUP1 REVERT JUMPDEST PUSH1 0x1F NOT PUSH1 0x1F DUP4 ADD AND SWAP1 POP PUSH1 0x20 DUP2 ADD SWAP1 POP SWAP2 SWAP1 POP JUMP JUMPDEST PUSH1 0x0 DUP2 MLOAD SWAP1 POP SWAP2 SWAP1 POP JUMP JUMPDEST PUSH1 0x0 DUP3 DUP3 MSTORE PUSH1 0x20 DUP3 ADD SWAP1 POP SWAP3 SWAP2 POP POP JUMP JUMPDEST DUP3 DUP2 DUP4 CALLDATACOPY PUSH1 0x0 DUP4 DUP4 ADD MSTORE POP POP POP JUMP JUMPDEST PUSH1 0x0 JUMPDEST DUP4 DUP2 LT ISZERO PUSH2 0x360 JUMPI DUP1 DUP3 ADD MLOAD DUP2 DUP5 ADD MSTORE PUSH1 0x20 DUP2 ADD SWAP1 POP PUSH2 0x345 JUMP JUMPDEST DUP4 DUP2 GT ISZERO PUSH2 0x36F JUMPI PUSH1 0x0 DUP5 DUP5 ADD MSTORE JUMPDEST POP POP POP POP JUMP JUMPDEST PUSH1 0x0 PUSH1 0x1F NOT PUSH1 0x1F DUP4 ADD AND SWAP1 POP SWAP2 SWAP1 POP JUMP INVALID LOG2 PUSH5 0x6970667358 0x22 SLT KECCAK256 0xE SWAP2 0xB1 0xCD 0xE1 REVERT CALL AND PUSH3 0x92105F CODECOPY PUSH13 0xB974715CA3AF04288E7AAA3710 PUSH21 0x60B4F01864736F6C634300060C0033000000000000 "
				},
				"gasEstimates": {
					"creation": {
						"codeDepositCost": "53400",
						"executionCost": "infinite",
						"totalCost": "infinite"
					},
					"external": {
						"printName(address)": "476"
					}
				},
				"methodIdentifiers": {
					"printName(address)": "6ac38b44"
				}
			},
			"storageLayout": {
				"storage": [
					{
						"astId": 48,
						"contract": "contracts/learning.sol:dusra",
						"label": "par",
						"offset": 0,
						"slot": "0",
						"type": "t_contract(Parcel)41"
					}
				],
				"types": {
					"t_contract(Parcel)41": {
						"encoding": "inplace",
						"label": "contract Parcel",
						"numberOfBytes": "20"
					}
				}
			},
			"userdoc": {
				"kind": "user",
				"methods": {},
				"version": 1
			}
		}
	}
}